{
  "contractName": "AntBattle",
  "abi": [
    {
      "inputs": [
        {
          "internalType": "address",
          "name": "_victoryTokenAddress",
          "type": "address"
        }
      ],
      "stateMutability": "nonpayable",
      "type": "constructor"
    },
    {
      "anonymous": false,
      "inputs": [
        {
          "indexed": false,
          "internalType": "uint256",
          "name": "antId",
          "type": "uint256"
        },
        {
          "indexed": false,
          "internalType": "string",
          "name": "name",
          "type": "string"
        },
        {
          "indexed": false,
          "internalType": "uint256",
          "name": "dna",
          "type": "uint256"
        },
        {
          "indexed": false,
          "internalType": "enum AntFactory.Species",
          "name": "species",
          "type": "uint8"
        },
        {
          "indexed": false,
          "internalType": "uint256",
          "name": "winCount",
          "type": "uint256"
        },
        {
          "indexed": false,
          "internalType": "uint256",
          "name": "lossCount",
          "type": "uint256"
        }
      ],
      "name": "NewAnt",
      "type": "event"
    },
    {
      "inputs": [
        {
          "internalType": "string",
          "name": "_name",
          "type": "string"
        },
        {
          "internalType": "uint256",
          "name": "_dna",
          "type": "uint256"
        },
        {
          "internalType": "enum AntFactory.Species",
          "name": "_species",
          "type": "uint8"
        },
        {
          "internalType": "uint256",
          "name": "_winCount",
          "type": "uint256"
        },
        {
          "internalType": "uint256",
          "name": "_lossCount",
          "type": "uint256"
        }
      ],
      "name": "_createAnt",
      "outputs": [],
      "stateMutability": "nonpayable",
      "type": "function"
    },
    {
      "inputs": [
        {
          "internalType": "string",
          "name": "_str",
          "type": "string"
        }
      ],
      "name": "_generateRandomDna",
      "outputs": [
        {
          "internalType": "uint256",
          "name": "",
          "type": "uint256"
        }
      ],
      "stateMutability": "view",
      "type": "function",
      "constant": true
    },
    {
      "inputs": [],
      "name": "_generateRandomSpecies",
      "outputs": [
        {
          "internalType": "enum AntFactory.Species",
          "name": "",
          "type": "uint8"
        }
      ],
      "stateMutability": "view",
      "type": "function",
      "constant": true
    },
    {
      "inputs": [],
      "name": "antPrice",
      "outputs": [
        {
          "internalType": "uint256",
          "name": "",
          "type": "uint256"
        }
      ],
      "stateMutability": "view",
      "type": "function",
      "constant": true
    },
    {
      "inputs": [
        {
          "internalType": "uint256",
          "name": "",
          "type": "uint256"
        }
      ],
      "name": "antToOwner",
      "outputs": [
        {
          "internalType": "address",
          "name": "",
          "type": "address"
        }
      ],
      "stateMutability": "view",
      "type": "function",
      "constant": true
    },
    {
      "inputs": [
        {
          "internalType": "uint256",
          "name": "",
          "type": "uint256"
        }
      ],
      "name": "ants",
      "outputs": [
        {
          "internalType": "string",
          "name": "name",
          "type": "string"
        },
        {
          "internalType": "uint256",
          "name": "dna",
          "type": "uint256"
        },
        {
          "internalType": "enum AntFactory.Species",
          "name": "species",
          "type": "uint8"
        },
        {
          "internalType": "uint256",
          "name": "winCount",
          "type": "uint256"
        },
        {
          "internalType": "uint256",
          "name": "lossCount",
          "type": "uint256"
        }
      ],
      "stateMutability": "view",
      "type": "function",
      "constant": true
    },
    {
      "inputs": [
        {
          "internalType": "string",
          "name": "_name",
          "type": "string"
        },
        {
          "internalType": "enum AntFactory.Species",
          "name": "_species",
          "type": "uint8"
        }
      ],
      "name": "buyAntByChoice",
      "outputs": [],
      "stateMutability": "nonpayable",
      "type": "function"
    },
    {
      "inputs": [
        {
          "internalType": "string",
          "name": "_name",
          "type": "string"
        }
      ],
      "name": "createRandomAnt",
      "outputs": [],
      "stateMutability": "nonpayable",
      "type": "function"
    },
    {
      "inputs": [],
      "name": "getAnts",
      "outputs": [
        {
          "components": [
            {
              "internalType": "string",
              "name": "name",
              "type": "string"
            },
            {
              "internalType": "uint256",
              "name": "dna",
              "type": "uint256"
            },
            {
              "internalType": "enum AntFactory.Species",
              "name": "species",
              "type": "uint8"
            },
            {
              "internalType": "uint256",
              "name": "winCount",
              "type": "uint256"
            },
            {
              "internalType": "uint256",
              "name": "lossCount",
              "type": "uint256"
            }
          ],
          "internalType": "struct AntFactory.Ant[]",
          "name": "",
          "type": "tuple[]"
        }
      ],
      "stateMutability": "view",
      "type": "function",
      "constant": true
    },
    {
      "inputs": [
        {
          "internalType": "address",
          "name": "",
          "type": "address"
        }
      ],
      "name": "ownerAntCount",
      "outputs": [
        {
          "internalType": "uint256",
          "name": "",
          "type": "uint256"
        }
      ],
      "stateMutability": "view",
      "type": "function",
      "constant": true
    },
    {
      "inputs": [],
      "name": "victoryToken",
      "outputs": [
        {
          "internalType": "contract VictoryToken",
          "name": "",
          "type": "address"
        }
      ],
      "stateMutability": "view",
      "type": "function",
      "constant": true
    },
    {
      "inputs": [
        {
          "internalType": "address",
          "name": "_owner",
          "type": "address"
        }
      ],
      "name": "getAntsByOwner",
      "outputs": [
        {
          "internalType": "uint256[]",
          "name": "",
          "type": "uint256[]"
        }
      ],
      "stateMutability": "view",
      "type": "function",
      "constant": true
    },
    {
      "inputs": [
        {
          "internalType": "uint256",
          "name": "_antId",
          "type": "uint256"
        },
        {
          "internalType": "uint256",
          "name": "_targetId",
          "type": "uint256"
        }
      ],
      "name": "attack",
      "outputs": [],
      "stateMutability": "nonpayable",
      "type": "function"
    }
  ],
  "bytecode": "0x60806040526010600055600054600a6200001a919062000381565b6001556003600255678ac7230489e80000600355600060085560326009553480156200004557600080fd5b5060405162002aff38038062002aff83398181016040528101906200006b91906200043c565b8080600460006101000a81548173ffffffffffffffffffffffffffffffffffffffff021916908373ffffffffffffffffffffffffffffffffffffffff160217905550506014600a6000806002811115620000ca57620000c96200046e565b5b8152602001908152602001600020600060016002811115620000f157620000f06200046e565b5b8152602001908152602001600020819055506014600a60006001600281111562000120576200011f6200046e565b5b815260200190815260200160002060006002808111156200014657620001456200046e565b5b8152602001908152602001600020819055506014600a60006002808111156200017457620001736200046e565b5b815260200190815260200160002060008060028111156200019a57620001996200046e565b5b81526020019081526020016000208190555080600460006101000a81548173ffffffffffffffffffffffffffffffffffffffff021916908373ffffffffffffffffffffffffffffffffffffffff160217905550506200049d565b7f4e487b7100000000000000000000000000000000000000000000000000000000600052601160045260246000fd5b60008160011c9050919050565b6000808291508390505b600185111562000282578086048111156200025a5762000259620001f4565b5b60018516156200026a5780820291505b80810290506200027a8562000223565b94506200023a565b94509492505050565b6000826200029d576001905062000370565b81620002ad576000905062000370565b8160018114620002c65760028114620002d15762000307565b600191505062000370565b60ff841115620002e657620002e5620001f4565b5b8360020a9150848211156200030057620002ff620001f4565b5b5062000370565b5060208310610133831016604e8410600b8410161715620003415782820a9050838111156200033b576200033a620001f4565b5b62000370565b62000350848484600162000230565b925090508184048111156200036a5762000369620001f4565b5b81810290505b9392505050565b6000819050919050565b60006200038e8262000377565b91506200039b8362000377565b9250620003ca7fffffffffffffffffffffffffffffffffffffffffffffffffffffffffffffffff84846200028b565b905092915050565b600080fd5b600073ffffffffffffffffffffffffffffffffffffffff82169050919050565b60006200040482620003d7565b9050919050565b6200041681620003f7565b81146200042257600080fd5b50565b60008151905062000436816200040b565b92915050565b600060208284031215620004555762000454620003d2565b5b6000620004658482850162000425565b91505092915050565b7f4e487b7100000000000000000000000000000000000000000000000000000000600052602160045260246000fd5b61265280620004ad6000396000f3fe608060405234801561001057600080fd5b50600436106100cf5760003560e01c8063520f7c0e1161008c578063df30775411610066578063df30775414610218578063df57a6ec14610234578063e1fa763814610264578063f770031c14610280576100cf565b8063520f7c0e146101be5780635bd49b2d146101dc578063a8847d9d146101fa576100cf565b80630192e414146100d457806308e64aac146100f25780630e0fda451461010e578063109dcfe61461012a578063265f980a1461015e5780635126443b1461018e575b600080fd5b6100dc6102b0565b6040516100e9919061122b565b60405180910390f35b61010c600480360381019061010791906113fb565b6102d6565b005b61012860048036038101906101239190611492565b6104a6565b005b610144600480360381019061013f91906114ee565b610725565b604051610155959493929190611620565b60405180910390f35b610178600480360381019061017391906116b8565b610800565b60405161018591906117a3565b60405180910390f35b6101a860048036038101906101a391906116b8565b610952565b6040516101b591906117c5565b60405180910390f35b6101c661096a565b6040516101d391906117c5565b60405180910390f35b6101e4610970565b6040516101f191906117e0565b60405180910390f35b6102026109c7565b60405161020f919061198c565b60405180910390f35b610232600480360381019061022d91906119ae565b610b11565b005b61024e600480360381019061024991906119ae565b610bde565b60405161025b91906117c5565b60405180910390f35b61027e600480360381019061027991906119f7565b610c23565b005b61029a600480360381019061029591906114ee565b6110e3565b6040516102a79190611a46565b60405180910390f35b600460009054906101000a900473ffffffffffffffffffffffffffffffffffffffff1681565b60056040518060a00160405280878152602001868152602001856002811115610302576103016115a9565b5b8152602001848152602001838152509080600181540180825580915050600190039060005260206000209060050201600090919091909150600082015181600001908161034f9190611c63565b506020820151816001015560408201518160020160006101000a81548160ff02191690836002811115610385576103846115a9565b5b021790555060608201518160030155608082015181600401555050600060016005805490506103b49190611d64565b9050336006600083815260200190815260200160002060006101000a81548173ffffffffffffffffffffffffffffffffffffffff021916908373ffffffffffffffffffffffffffffffffffffffff160217905550600760003373ffffffffffffffffffffffffffffffffffffffff1673ffffffffffffffffffffffffffffffffffffffff168152602001908152602001600020600081548092919061045890611d98565b91905055507f97b1514c5150294825105d3d34fda558beea8e579828e9a7d2f63b8259ff220181878787878760405161049696959493929190611de0565b60405180910390a1505050505050565b6000600760003373ffffffffffffffffffffffffffffffffffffffff1673ffffffffffffffffffffffffffffffffffffffff1681526020019081526020016000205411610528576040517f08c379a000000000000000000000000000000000000000000000000000000000815260040161051f90611eba565b60405180910390fd5b600354600460009054906101000a900473ffffffffffffffffffffffffffffffffffffffff1673ffffffffffffffffffffffffffffffffffffffff166370a08231336040518263ffffffff1660e01b81526004016105869190611a46565b602060405180830381865afa1580156105a3573d6000803e3d6000fd5b505050506040513d601f19601f820116820180604052508101906105c79190611eef565b1015610608576040517f08c379a00000000000000000000000000000000000000000000000000000000081526004016105ff90611f68565b60405180910390fd5b600460009054906101000a900473ffffffffffffffffffffffffffffffffffffffff1673ffffffffffffffffffffffffffffffffffffffff166323b872dd33306003546040518463ffffffff1660e01b815260040161066993929190611f88565b6020604051808303816000875af1158015610688573d6000803e3d6000fd5b505050506040513d601f19601f820116820180604052508101906106ac9190611ff7565b6106eb576040517f08c379a00000000000000000000000000000000000000000000000000000000081526004016106e290612070565b60405180910390fd5b60006106f683610bde565b905060648161070591906120bf565b816107109190611d64565b90506107208382846000806102d6565b505050565b6005818154811061073557600080fd5b906000526020600020906005020160009150905080600001805461075890611a90565b80601f016020809104026020016040519081016040528092919081815260200182805461078490611a90565b80156107d15780601f106107a6576101008083540402835291602001916107d1565b820191906000526020600020905b8154815290600101906020018083116107b457829003601f168201915b5050505050908060010154908060020160009054906101000a900460ff16908060030154908060040154905085565b60606000600760008473ffffffffffffffffffffffffffffffffffffffff1673ffffffffffffffffffffffffffffffffffffffff1681526020019081526020016000205467ffffffffffffffff81111561085d5761085c611275565b5b60405190808252806020026020018201604052801561088b5781602001602082028036833780820191505090505b5090506000805b600580549050811015610947578473ffffffffffffffffffffffffffffffffffffffff166006600083815260200190815260200160002060009054906101000a900473ffffffffffffffffffffffffffffffffffffffff1673ffffffffffffffffffffffffffffffffffffffff16036109345780838381518110610919576109186120f0565b5b602002602001018181525050818061093090611d98565b9250505b808061093f90611d98565b915050610892565b508192505050919050565b60076020528060005260406000206000915090505481565b60035481565b6000806002544233604051602001610989929190612188565b6040516020818303038152906040528051906020012060001c6109ac91906120bf565b90508060028111156109c1576109c06115a9565b5b91505090565b60606005805480602002602001604051908101604052809291908181526020016000905b82821015610b0857838290600052602060002090600502016040518060a0016040529081600082018054610a1e90611a90565b80601f0160208091040260200160405190810160405280929190818152602001828054610a4a90611a90565b8015610a975780601f10610a6c57610100808354040283529160200191610a97565b820191906000526020600020905b815481529060010190602001808311610a7a57829003601f168201915b50505050508152602001600182015481526020016002820160009054906101000a900460ff166002811115610acf57610ace6115a9565b5b6002811115610ae157610ae06115a9565b5b815260200160038201548152602001600482015481525050815260200190600101906109eb565b50505050905090565b6000600760003373ffffffffffffffffffffffffffffffffffffffff1673ffffffffffffffffffffffffffffffffffffffff1681526020019081526020016000205403610ba0576000610b6382610bde565b9050606481610b7291906120bf565b81610b7d9190611d64565b90506000610b89610970565b9050610b998383836000806102d6565b5050610bdb565b6040517f08c379a0000000000000000000000000000000000000000000000000000000008152600401610bd290612226565b60405180910390fd5b50565b60008082604051602001610bf29190612282565b6040516020818303038152906040528051906020012060001c905060015481610c1b91906120bf565b915050919050565b6006600083815260200190815260200160002060009054906101000a900473ffffffffffffffffffffffffffffffffffffffff1673ffffffffffffffffffffffffffffffffffffffff163373ffffffffffffffffffffffffffffffffffffffff1614610cc4576040517f08c379a0000000000000000000000000000000000000000000000000000000008152600401610cbb9061230b565b60405180910390fd5b600060058381548110610cda57610cd96120f0565b5b90600052602060002090600502019050600060058381548110610d0057610cff6120f0565b5b906000526020600020906005020190506000610d1c6064611116565b905060008360020160009054906101000a900460ff16905060008360020160009054906101000a900460ff1690506000600a6000846002811115610d6357610d626115a9565b5b81526020019081526020016000206000836002811115610d8657610d856115a9565b5b8152602001908152602001600020549050600060095490506000821115610db6578181610db3919061232b565b90505b808511610f5b57866003016000815480929190610dd290611d98565b9190505550600a8660010154610de8919061235f565b876001016000828254610dfb919061232b565b92505081905550856004016000815480929190610e1790611d98565b9190505550600460009054906101000a900473ffffffffffffffffffffffffffffffffffffffff1673ffffffffffffffffffffffffffffffffffffffff16634e6ec24733600460009054906101000a900473ffffffffffffffffffffffffffffffffffffffff1673ffffffffffffffffffffffffffffffffffffffff1663313ce5676040518163ffffffff1660e01b8152600401602060405180830381865afa158015610ec8573d6000803e3d6000fd5b505050506040513d601f19601f82011682018060405250810190610eec91906123c9565b60ff16600a610efb9190612529565b600a610f079190612574565b6040518363ffffffff1660e01b8152600401610f249291906125b6565b600060405180830381600087803b158015610f3e57600080fd5b505af1158015610f52573d6000803e3d6000fd5b505050506110d8565b866004016000815480929190610f7090611d98565b9190505550856003016000815480929190610f8a90611d98565b91905055506000610f9a8961116f565b9050600460009054906101000a900473ffffffffffffffffffffffffffffffffffffffff1673ffffffffffffffffffffffffffffffffffffffff16634e6ec24782600460009054906101000a900473ffffffffffffffffffffffffffffffffffffffff1673ffffffffffffffffffffffffffffffffffffffff1663313ce5676040518163ffffffff1660e01b8152600401602060405180830381865afa158015611048573d6000803e3d6000fd5b505050506040513d601f19601f8201168201806040525081019061106c91906123c9565b60ff16600a61107b9190612529565b600a6110879190612574565b6040518363ffffffff1660e01b81526004016110a49291906125b6565b600060405180830381600087803b1580156110be57600080fd5b505af11580156110d2573d6000803e3d6000fd5b50505050505b505050505050505050565b60066020528060005260406000206000915054906101000a900473ffffffffffffffffffffffffffffffffffffffff1681565b60006001600854611127919061232b565b600881905550814233600854604051602001611145939291906125df565b6040516020818303038152906040528051906020012060001c61116891906120bf565b9050919050565b60006006600083815260200190815260200160002060009054906101000a900473ffffffffffffffffffffffffffffffffffffffff169050919050565b600073ffffffffffffffffffffffffffffffffffffffff82169050919050565b6000819050919050565b60006111f16111ec6111e7846111ac565b6111cc565b6111ac565b9050919050565b6000611203826111d6565b9050919050565b6000611215826111f8565b9050919050565b6112258161120a565b82525050565b6000602082019050611240600083018461121c565b92915050565b6000604051905090565b600080fd5b600080fd5b600080fd5b600080fd5b6000601f19601f8301169050919050565b7f4e487b7100000000000000000000000000000000000000000000000000000000600052604160045260246000fd5b6112ad82611264565b810181811067ffffffffffffffff821117156112cc576112cb611275565b5b80604052505050565b60006112df611246565b90506112eb82826112a4565b919050565b600067ffffffffffffffff82111561130b5761130a611275565b5b61131482611264565b9050602081019050919050565b82818337600083830152505050565b600061134361133e846112f0565b6112d5565b90508281526020810184848401111561135f5761135e61125f565b5b61136a848285611321565b509392505050565b600082601f8301126113875761138661125a565b5b8135611397848260208601611330565b91505092915050565b6000819050919050565b6113b3816113a0565b81146113be57600080fd5b50565b6000813590506113d0816113aa565b92915050565b600381106113e357600080fd5b50565b6000813590506113f5816113d6565b92915050565b600080600080600060a0868803121561141757611416611250565b5b600086013567ffffffffffffffff81111561143557611434611255565b5b61144188828901611372565b9550506020611452888289016113c1565b9450506040611463888289016113e6565b9350506060611474888289016113c1565b9250506080611485888289016113c1565b9150509295509295909350565b600080604083850312156114a9576114a8611250565b5b600083013567ffffffffffffffff8111156114c7576114c6611255565b5b6114d385828601611372565b92505060206114e4858286016113e6565b9150509250929050565b60006020828403121561150457611503611250565b5b6000611512848285016113c1565b91505092915050565b600081519050919050565b600082825260208201905092915050565b60005b8381101561155557808201518184015260208101905061153a565b60008484015250505050565b600061156c8261151b565b6115768185611526565b9350611586818560208601611537565b61158f81611264565b840191505092915050565b6115a3816113a0565b82525050565b7f4e487b7100000000000000000000000000000000000000000000000000000000600052602160045260246000fd5b600381106115e9576115e86115a9565b5b50565b60008190506115fa826115d8565b919050565b600061160a826115ec565b9050919050565b61161a816115ff565b82525050565b600060a082019050818103600083015261163a8188611561565b9050611649602083018761159a565b6116566040830186611611565b611663606083018561159a565b611670608083018461159a565b9695505050505050565b6000611685826111ac565b9050919050565b6116958161167a565b81146116a057600080fd5b50565b6000813590506116b28161168c565b92915050565b6000602082840312156116ce576116cd611250565b5b60006116dc848285016116a3565b91505092915050565b600081519050919050565b600082825260208201905092915050565b6000819050602082019050919050565b61171a816113a0565b82525050565b600061172c8383611711565b60208301905092915050565b6000602082019050919050565b6000611750826116e5565b61175a81856116f0565b935061176583611701565b8060005b8381101561179657815161177d8882611720565b975061178883611738565b925050600181019050611769565b5085935050505092915050565b600060208201905081810360008301526117bd8184611745565b905092915050565b60006020820190506117da600083018461159a565b92915050565b60006020820190506117f56000830184611611565b92915050565b600081519050919050565b600082825260208201905092915050565b6000819050602082019050919050565b600082825260208201905092915050565b60006118438261151b565b61184d8185611827565b935061185d818560208601611537565b61186681611264565b840191505092915050565b61187a816115ff565b82525050565b600060a083016000830151848203600086015261189d8282611838565b91505060208301516118b26020860182611711565b5060408301516118c56040860182611871565b5060608301516118d86060860182611711565b5060808301516118eb6080860182611711565b508091505092915050565b60006119028383611880565b905092915050565b6000602082019050919050565b6000611922826117fb565b61192c8185611806565b93508360208202850161193e85611817565b8060005b8581101561197a578484038952815161195b85826118f6565b94506119668361190a565b925060208a01995050600181019050611942565b50829750879550505050505092915050565b600060208201905081810360008301526119a68184611917565b905092915050565b6000602082840312156119c4576119c3611250565b5b600082013567ffffffffffffffff8111156119e2576119e1611255565b5b6119ee84828501611372565b91505092915050565b60008060408385031215611a0e57611a0d611250565b5b6000611a1c858286016113c1565b9250506020611a2d858286016113c1565b9150509250929050565b611a408161167a565b82525050565b6000602082019050611a5b6000830184611a37565b92915050565b7f4e487b7100000000000000000000000000000000000000000000000000000000600052602260045260246000fd5b60006002820490506001821680611aa857607f821691505b602082108103611abb57611aba611a61565b5b50919050565b60008190508160005260206000209050919050565b60006020601f8301049050919050565b600082821b905092915050565b600060088302611b237fffffffffffffffffffffffffffffffffffffffffffffffffffffffffffffffff82611ae6565b611b2d8683611ae6565b95508019841693508086168417925050509392505050565b6000611b60611b5b611b56846113a0565b6111cc565b6113a0565b9050919050565b6000819050919050565b611b7a83611b45565b611b8e611b8682611b67565b848454611af3565b825550505050565b600090565b611ba3611b96565b611bae818484611b71565b505050565b5b81811015611bd257611bc7600082611b9b565b600181019050611bb4565b5050565b601f821115611c1757611be881611ac1565b611bf184611ad6565b81016020851015611c00578190505b611c14611c0c85611ad6565b830182611bb3565b50505b505050565b600082821c905092915050565b6000611c3a60001984600802611c1c565b1980831691505092915050565b6000611c538383611c29565b9150826002028217905092915050565b611c6c8261151b565b67ffffffffffffffff811115611c8557611c84611275565b5b611c8f8254611a90565b611c9a828285611bd6565b600060209050601f831160018114611ccd5760008415611cbb578287015190505b611cc58582611c47565b865550611d2d565b601f198416611cdb86611ac1565b60005b82811015611d0357848901518255600182019150602085019450602081019050611cde565b86831015611d205784890151611d1c601f891682611c29565b8355505b6001600288020188555050505b505050505050565b7f4e487b7100000000000000000000000000000000000000000000000000000000600052601160045260246000fd5b6000611d6f826113a0565b9150611d7a836113a0565b9250828203905081811115611d9257611d91611d35565b5b92915050565b6000611da3826113a0565b91507fffffffffffffffffffffffffffffffffffffffffffffffffffffffffffffffff8203611dd557611dd4611d35565b5b600182019050919050565b600060c082019050611df5600083018961159a565b8181036020830152611e078188611561565b9050611e16604083018761159a565b611e236060830186611611565b611e30608083018561159a565b611e3d60a083018461159a565b979650505050505050565b7f596f75206d757374206f776e206174206c65617374206f6e6520616e7420746f60008201527f20627579206d6f72652e00000000000000000000000000000000000000000000602082015250565b6000611ea4602a83611526565b9150611eaf82611e48565b604082019050919050565b60006020820190508181036000830152611ed381611e97565b9050919050565b600081519050611ee9816113aa565b92915050565b600060208284031215611f0557611f04611250565b5b6000611f1384828501611eda565b91505092915050565b7f496e73756666696369656e7420566963746f7279546f6b656e732e0000000000600082015250565b6000611f52601b83611526565b9150611f5d82611f1c565b602082019050919050565b60006020820190508181036000830152611f8181611f45565b9050919050565b6000606082019050611f9d6000830186611a37565b611faa6020830185611a37565b611fb7604083018461159a565b949350505050565b60008115159050919050565b611fd481611fbf565b8114611fdf57600080fd5b50565b600081519050611ff181611fcb565b92915050565b60006020828403121561200d5761200c611250565b5b600061201b84828501611fe2565b91505092915050565b7f546f6b656e207472616e73666572206661696c65642e00000000000000000000600082015250565b600061205a601683611526565b915061206582612024565b602082019050919050565b600060208201905081810360008301526120898161204d565b9050919050565b7f4e487b7100000000000000000000000000000000000000000000000000000000600052601260045260246000fd5b60006120ca826113a0565b91506120d5836113a0565b9250826120e5576120e4612090565b5b828206905092915050565b7f4e487b7100000000000000000000000000000000000000000000000000000000600052603260045260246000fd5b6000819050919050565b61213a612135826113a0565b61211f565b82525050565b60008160601b9050919050565b600061215882612140565b9050919050565b600061216a8261214d565b9050919050565b61218261217d8261167a565b61215f565b82525050565b60006121948285612129565b6020820191506121a48284612171565b6014820191508190509392505050565b7f596f7520616c7265616479206f776e20616e20616e742e20557365206275794160008201527f6e74427943686f69636520746f20627579206d6f72652e000000000000000000602082015250565b6000612210603783611526565b915061221b826121b4565b604082019050919050565b6000602082019050818103600083015261223f81612203565b9050919050565b600081905092915050565b600061225c8261151b565b6122668185612246565b9350612276818560208601611537565b80840191505092915050565b600061228e8284612251565b915081905092915050565b7f596f752063616e206f6e6c792061747461636b207769746820796f7572206f7760008201527f6e20616e74000000000000000000000000000000000000000000000000000000602082015250565b60006122f5602583611526565b915061230082612299565b604082019050919050565b60006020820190508181036000830152612324816122e8565b9050919050565b6000612336826113a0565b9150612341836113a0565b925082820190508082111561235957612358611d35565b5b92915050565b600061236a826113a0565b9150612375836113a0565b92508261238557612384612090565b5b828204905092915050565b600060ff82169050919050565b6123a681612390565b81146123b157600080fd5b50565b6000815190506123c38161239d565b92915050565b6000602082840312156123df576123de611250565b5b60006123ed848285016123b4565b91505092915050565b60008160011c9050919050565b6000808291508390505b600185111561244d5780860481111561242957612428611d35565b5b60018516156124385780820291505b8081029050612446856123f6565b945061240d565b94509492505050565b6000826124665760019050612522565b816124745760009050612522565b816001811461248a5760028114612494576124c3565b6001915050612522565b60ff8411156124a6576124a5611d35565b5b8360020a9150848211156124bd576124bc611d35565b5b50612522565b5060208310610133831016604e8410600b84101617156124f85782820a9050838111156124f3576124f2611d35565b5b612522565b6125058484846001612403565b9250905081840481111561251c5761251b611d35565b5b81810290505b9392505050565b6000612534826113a0565b915061253f836113a0565b925061256c7fffffffffffffffffffffffffffffffffffffffffffffffffffffffffffffffff8484612456565b905092915050565b600061257f826113a0565b915061258a836113a0565b9250828202612598816113a0565b915082820484148315176125af576125ae611d35565b5b5092915050565b60006040820190506125cb6000830185611a37565b6125d8602083018461159a565b9392505050565b60006125eb8286612129565b6020820191506125fb8285612171565b60148201915061260b8284612129565b60208201915081905094935050505056fea26469706673582212200391ffad3969af8237eeb9de0daaab47e0a0ff6ff9df5d796a157fa262f1222664736f6c63430008110033",
  "immutableReferences": {},
  "source": "pragma solidity ^0.8.0;\r\n\r\nimport \"./antfactory.sol\";\r\nimport \"./victoryToken.sol\";\r\n\r\ncontract AntBattle is AntFactory {\r\n    constructor(address _victoryTokenAddress) AntFactory(_victoryTokenAddress) {\r\n        // Initialize species advantages (you can adjust these values as needed)\r\n        speciesAdvantages[uint(Species.FireAnt)][uint(Species.BlackCrazyAnt)] = 20; // FireAnt has a 20% advantage against BlackCrazyAnt\r\n        speciesAdvantages[uint(Species.BlackCrazyAnt)][uint(Species.CarpenterAnt)] = 20; // BlackCrazyAnt has a 20% advantage against CarpenterAnt\r\n        speciesAdvantages[uint(Species.CarpenterAnt)][uint(Species.FireAnt)] = 20; // CarpenterAnt has a 20% advantage against FireAnt \r\n        victoryToken = VictoryToken(_victoryTokenAddress); // Corrected assignment\r\n    }\r\n\r\n    uint randNonce = 0;\r\n    uint attackVictoryProbability = 50;\r\n\r\n    // Define species advantages (if SpeciesA attacks SpeciesB, etc.)\r\n    mapping(uint => mapping(uint => uint)) speciesAdvantages;\r\n\r\n    // constructor(address _victoryTokenAddress) {\r\n    //     // Initialize species advantages (you can adjust these values as needed)\r\n    //     speciesAdvantages[uint(Species.FireAnt)][uint(Species.BlackCrazyAnt)] = 20; // FireAnt has a 20% advantage against BlackCrazyAnt\r\n    //     speciesAdvantages[uint(Species.BlackCrazyAnt)][uint(Species.CarpenterAnt)] = 20; // BlackCrazyAnt has a 20% advantage against CarpenterAnt\r\n    //     speciesAdvantages[uint(Species.CarpenterAnt)][uint(Species.FireAnt)] = 20; // CarpenterAnt has a 20% advantage against FireAnt \r\n    //     victoryToken = VictoryToken(_victoryTokenAddress); // Corrected assignment\r\n    // }\r\n\r\n    function randMod(uint _modulus) internal returns(uint) {\r\n        randNonce = randNonce + 1;\r\n        return uint(keccak256(abi.encodePacked(block.timestamp, msg.sender, randNonce))) % _modulus;\r\n    }\r\n\r\n    function getAntOwner(uint _antId) internal view returns (address) {\r\n        return antToOwner[_antId];\r\n    }\r\n\r\n    function getAntsByOwner(address _owner) external view returns(uint[] memory) {\r\n        uint[] memory result = new uint[](ownerAntCount[_owner]);\r\n        uint counter = 0;\r\n        for (uint i = 0; i < ants.length; i++) {\r\n            if (antToOwner[i] == _owner) {\r\n                result[counter] = i;\r\n                counter++;\r\n            }\r\n        }\r\n        return result;\r\n    }\r\n\r\n    function attack(uint _antId, uint _targetId) external {\r\n        require(msg.sender == antToOwner[_antId], \"You can only attack with your own ant\");\r\n\r\n        Ant storage myAnt = ants[_antId];\r\n        Ant storage enemyAnt = ants[_targetId];\r\n\r\n        uint rand = randMod(100);\r\n\r\n        Species myAntSpecies = myAnt.species;\r\n        Species enemyAntSpecies = enemyAnt.species;\r\n\r\n        // uint speciesAdvantage = speciesAdvantages[myAntSpecies][enemyAntSpecies];\r\n        uint speciesAdvantage = speciesAdvantages[uint(myAntSpecies)][uint(enemyAntSpecies)];\r\n\r\n        // Calculate final attack probability\r\n        uint finalAttackProbability = attackVictoryProbability;\r\n        \r\n        if (speciesAdvantage > 0) {\r\n            finalAttackProbability += uint(speciesAdvantage); // Apply species advantage directly\r\n        }\r\n\r\n        if (rand <= finalAttackProbability) {\r\n            myAnt.winCount++;\r\n            myAnt.dna += enemyAnt.dna / 10; // You can modify this logic as needed\r\n            enemyAnt.lossCount++;\r\n\r\n            //give victory tokens to the winner \r\n            victoryToken._mint(msg.sender, 10 * 10 ** uint(victoryToken.decimals()));\r\n        } else {\r\n            myAnt.lossCount++;\r\n            enemyAnt.winCount++;\r\n\r\n            //give victory tokens to the winner\r\n            address enemyAntOwner = getAntOwner(_targetId); // Corrected usage\r\n            victoryToken._mint(enemyAntOwner, 10 * 10 ** uint(victoryToken.decimals()));\r\n        }\r\n    }\r\n}",
  "sourcePath": "C:\\Users\\brand\\Desktop\\erasmus\\blockchain\\blockchain_home_assignment\\contracts\\antbattle.sol",
  "compiler": {
    "name": "solc",
    "version": "0.8.17+commit.8df45f5f.Emscripten.clang"
  },
  "schemaVersion": "3.4.16",
  "updatedAt": "2024-06-06T17:24:50.137Z",
  "networkType": "ethereum",
  "devdoc": {
    "kind": "dev",
    "methods": {},
    "version": 1
  },
  "userdoc": {
    "kind": "user",
    "methods": {},
    "version": 1
  }
}