{
  "contractName": "AntBattle",
  "abi": [
    {
      "inputs": [
        {
          "internalType": "address",
          "name": "_victoryTokenAddress",
          "type": "address"
        }
      ],
      "stateMutability": "nonpayable",
      "type": "constructor"
    },
    {
      "anonymous": false,
      "inputs": [
        {
          "indexed": false,
          "internalType": "uint256",
          "name": "antId",
          "type": "uint256"
        },
        {
          "indexed": false,
          "internalType": "string",
          "name": "name",
          "type": "string"
        },
        {
          "indexed": false,
          "internalType": "uint256",
          "name": "dna",
          "type": "uint256"
        },
        {
          "indexed": false,
          "internalType": "enum AntFactory.Species",
          "name": "species",
          "type": "uint8"
        },
        {
          "indexed": false,
          "internalType": "uint256",
          "name": "winCount",
          "type": "uint256"
        },
        {
          "indexed": false,
          "internalType": "uint256",
          "name": "lossCount",
          "type": "uint256"
        }
      ],
      "name": "NewAnt",
      "type": "event"
    },
    {
      "inputs": [
        {
          "internalType": "string",
          "name": "_name",
          "type": "string"
        },
        {
          "internalType": "uint256",
          "name": "_dna",
          "type": "uint256"
        },
        {
          "internalType": "enum AntFactory.Species",
          "name": "_species",
          "type": "uint8"
        },
        {
          "internalType": "uint256",
          "name": "_winCount",
          "type": "uint256"
        },
        {
          "internalType": "uint256",
          "name": "_lossCount",
          "type": "uint256"
        }
      ],
      "name": "_createAnt",
      "outputs": [],
      "stateMutability": "nonpayable",
      "type": "function"
    },
    {
      "inputs": [
        {
          "internalType": "string",
          "name": "_str",
          "type": "string"
        }
      ],
      "name": "_generateRandomDna",
      "outputs": [
        {
          "internalType": "uint256",
          "name": "",
          "type": "uint256"
        }
      ],
      "stateMutability": "view",
      "type": "function",
      "constant": true
    },
    {
      "inputs": [],
      "name": "_generateRandomSpecies",
      "outputs": [
        {
          "internalType": "enum AntFactory.Species",
          "name": "",
          "type": "uint8"
        }
      ],
      "stateMutability": "view",
      "type": "function",
      "constant": true
    },
    {
      "inputs": [],
      "name": "antPrice",
      "outputs": [
        {
          "internalType": "uint256",
          "name": "",
          "type": "uint256"
        }
      ],
      "stateMutability": "view",
      "type": "function",
      "constant": true
    },
    {
      "inputs": [
        {
          "internalType": "uint256",
          "name": "",
          "type": "uint256"
        }
      ],
      "name": "antToOwner",
      "outputs": [
        {
          "internalType": "address",
          "name": "",
          "type": "address"
        }
      ],
      "stateMutability": "view",
      "type": "function",
      "constant": true
    },
    {
      "inputs": [
        {
          "internalType": "uint256",
          "name": "",
          "type": "uint256"
        }
      ],
      "name": "ants",
      "outputs": [
        {
          "internalType": "string",
          "name": "name",
          "type": "string"
        },
        {
          "internalType": "uint256",
          "name": "dna",
          "type": "uint256"
        },
        {
          "internalType": "enum AntFactory.Species",
          "name": "species",
          "type": "uint8"
        },
        {
          "internalType": "uint256",
          "name": "winCount",
          "type": "uint256"
        },
        {
          "internalType": "uint256",
          "name": "lossCount",
          "type": "uint256"
        }
      ],
      "stateMutability": "view",
      "type": "function",
      "constant": true
    },
    {
      "inputs": [
        {
          "internalType": "string",
          "name": "_name",
          "type": "string"
        },
        {
          "internalType": "enum AntFactory.Species",
          "name": "_species",
          "type": "uint8"
        }
      ],
      "name": "buyAntByChoice",
      "outputs": [],
      "stateMutability": "nonpayable",
      "type": "function"
    },
    {
      "inputs": [
        {
          "internalType": "string",
          "name": "_name",
          "type": "string"
        }
      ],
      "name": "createRandomAnt",
      "outputs": [],
      "stateMutability": "nonpayable",
      "type": "function"
    },
    {
      "inputs": [
        {
          "internalType": "uint256",
          "name": "",
          "type": "uint256"
        }
      ],
      "name": "dnaToId",
      "outputs": [
        {
          "internalType": "uint256",
          "name": "",
          "type": "uint256"
        }
      ],
      "stateMutability": "view",
      "type": "function",
      "constant": true
    },
    {
      "inputs": [
        {
          "internalType": "uint256",
          "name": "_dna",
          "type": "uint256"
        }
      ],
      "name": "getAntId",
      "outputs": [
        {
          "internalType": "uint256",
          "name": "",
          "type": "uint256"
        }
      ],
      "stateMutability": "view",
      "type": "function",
      "constant": true
    },
    {
      "inputs": [
        {
          "internalType": "uint256",
          "name": "_antId",
          "type": "uint256"
        }
      ],
      "name": "getAntOwner",
      "outputs": [
        {
          "internalType": "address",
          "name": "",
          "type": "address"
        }
      ],
      "stateMutability": "view",
      "type": "function",
      "constant": true
    },
    {
      "inputs": [],
      "name": "getAnts",
      "outputs": [
        {
          "components": [
            {
              "internalType": "string",
              "name": "name",
              "type": "string"
            },
            {
              "internalType": "uint256",
              "name": "dna",
              "type": "uint256"
            },
            {
              "internalType": "enum AntFactory.Species",
              "name": "species",
              "type": "uint8"
            },
            {
              "internalType": "uint256",
              "name": "winCount",
              "type": "uint256"
            },
            {
              "internalType": "uint256",
              "name": "lossCount",
              "type": "uint256"
            }
          ],
          "internalType": "struct AntFactory.Ant[]",
          "name": "",
          "type": "tuple[]"
        }
      ],
      "stateMutability": "view",
      "type": "function",
      "constant": true
    },
    {
      "inputs": [
        {
          "internalType": "address",
          "name": "_owner",
          "type": "address"
        }
      ],
      "name": "getAntsByOwner",
      "outputs": [
        {
          "components": [
            {
              "internalType": "string",
              "name": "name",
              "type": "string"
            },
            {
              "internalType": "uint256",
              "name": "dna",
              "type": "uint256"
            },
            {
              "internalType": "enum AntFactory.Species",
              "name": "species",
              "type": "uint8"
            },
            {
              "internalType": "uint256",
              "name": "winCount",
              "type": "uint256"
            },
            {
              "internalType": "uint256",
              "name": "lossCount",
              "type": "uint256"
            }
          ],
          "internalType": "struct AntFactory.Ant[]",
          "name": "",
          "type": "tuple[]"
        }
      ],
      "stateMutability": "view",
      "type": "function",
      "constant": true
    },
    {
      "inputs": [
        {
          "internalType": "address",
          "name": "",
          "type": "address"
        }
      ],
      "name": "ownerAntCount",
      "outputs": [
        {
          "internalType": "uint256",
          "name": "",
          "type": "uint256"
        }
      ],
      "stateMutability": "view",
      "type": "function",
      "constant": true
    },
    {
      "inputs": [],
      "name": "victoryToken",
      "outputs": [
        {
          "internalType": "contract VictoryToken",
          "name": "",
          "type": "address"
        }
      ],
      "stateMutability": "view",
      "type": "function",
      "constant": true
    },
    {
      "inputs": [
        {
          "internalType": "uint256",
          "name": "_antDna",
          "type": "uint256"
        },
        {
          "internalType": "uint256",
          "name": "_targetDna",
          "type": "uint256"
        }
      ],
      "name": "attack",
      "outputs": [],
      "stateMutability": "nonpayable",
      "type": "function"
    }
  ],
  "bytecode": "0x60806040526010600055600054600a6200001a919062000379565b60015560036002556003805560006009556032600a553480156200003d57600080fd5b506040516200233b3803806200233b833981810160405281019062000063919062000434565b8080600460006101000a81548173ffffffffffffffffffffffffffffffffffffffff021916908373ffffffffffffffffffffffffffffffffffffffff160217905550506014600b6000806002811115620000c257620000c162000466565b5b8152602001908152602001600020600060016002811115620000e957620000e862000466565b5b8152602001908152602001600020819055506014600b60006001600281111562000118576200011762000466565b5b815260200190815260200160002060006002808111156200013e576200013d62000466565b5b8152602001908152602001600020819055506014600b60006002808111156200016c576200016b62000466565b5b8152602001908152602001600020600080600281111562000192576200019162000466565b5b81526020019081526020016000208190555080600460006101000a81548173ffffffffffffffffffffffffffffffffffffffff021916908373ffffffffffffffffffffffffffffffffffffffff1602179055505062000495565b7f4e487b7100000000000000000000000000000000000000000000000000000000600052601160045260246000fd5b60008160011c9050919050565b6000808291508390505b60018511156200027a57808604811115620002525762000251620001ec565b5b6001851615620002625780820291505b808102905062000272856200021b565b945062000232565b94509492505050565b60008262000295576001905062000368565b81620002a5576000905062000368565b8160018114620002be5760028114620002c957620002ff565b600191505062000368565b60ff841115620002de57620002dd620001ec565b5b8360020a915084821115620002f857620002f7620001ec565b5b5062000368565b5060208310610133831016604e8410600b8410161715620003395782820a905083811115620003335762000332620001ec565b5b62000368565b62000348848484600162000228565b92509050818404811115620003625762000361620001ec565b5b81810290505b9392505050565b6000819050919050565b600062000386826200036f565b915062000393836200036f565b9250620003c27fffffffffffffffffffffffffffffffffffffffffffffffffffffffffffffffff848462000283565b905092915050565b600080fd5b600073ffffffffffffffffffffffffffffffffffffffff82169050919050565b6000620003fc82620003cf565b9050919050565b6200040e81620003ef565b81146200041a57600080fd5b50565b6000815190506200042e8162000403565b92915050565b6000602082840312156200044d576200044c620003ca565b5b60006200045d848285016200041d565b91505092915050565b7f4e487b7100000000000000000000000000000000000000000000000000000000600052602160045260246000fd5b611e9680620004a56000396000f3fe608060405234801561001057600080fd5b50600436106101005760003560e01c80635b5fce5d11610097578063df30775411610066578063df307754146102d9578063df57a6ec146102f5578063e1fa763814610325578063f770031c1461034157610100565b80635b5fce5d1461023d5780635bd49b2d1461026d578063a294f4db1461028b578063a8847d9d146102bb57610100565b8063265f980a116100d3578063265f980a1461018f57806341b4d82d146101bf5780635126443b146101ef578063520f7c0e1461021f57610100565b80630192e4141461010557806308e64aac146101235780630e0fda451461013f578063109dcfe61461015b575b600080fd5b61010d610371565b60405161011a9190610fd7565b60405180910390f35b61013d600480360381019061013891906111a7565b610397565b005b6101596004803603810190610154919061123e565b61057f565b005b6101756004803603810190610170919061129a565b61063b565b6040516101869594939291906113cc565b60405180910390f35b6101a960048036038101906101a49190611464565b610716565b6040516101b69190611631565b60405180910390f35b6101d960048036038101906101d4919061129a565b61098f565b6040516101e69190611662565b60405180910390f35b61020960048036038101906102049190611464565b6109cc565b604051610216919061167d565b60405180910390f35b6102276109e4565b604051610234919061167d565b60405180910390f35b6102576004803603810190610252919061129a565b6109ea565b604051610264919061167d565b60405180910390f35b610275610a07565b6040516102829190611698565b60405180910390f35b6102a560048036038101906102a0919061129a565b610a5e565b6040516102b2919061167d565b60405180910390f35b6102c3610a76565b6040516102d09190611631565b60405180910390f35b6102f360048036038101906102ee91906116b3565b610bc0565b005b61030f600480360381019061030a91906116b3565b610c8d565b60405161031c919061167d565b60405180910390f35b61033f600480360381019061033a91906116fc565b610cd2565b005b61035b6004803603810190610356919061129a565b610e8b565b6040516103689190611662565b60405180910390f35b600460009054906101000a900473ffffffffffffffffffffffffffffffffffffffff1681565b60056040518060a001604052808781526020018681526020018560028111156103c3576103c2611355565b5b81526020018481526020018381525090806001815401808255809150506001900390600052602060002090600502016000909190919091506000820151816000019081610410919061193e565b506020820151816001015560408201518160020160006101000a81548160ff0219169083600281111561044657610445611355565b5b021790555060608201518160030155608082015181600401555050600060016005805490506104759190611a3f565b9050336006600083815260200190815260200160002060006101000a81548173ffffffffffffffffffffffffffffffffffffffff021916908373ffffffffffffffffffffffffffffffffffffffff160217905550600760003373ffffffffffffffffffffffffffffffffffffffff1673ffffffffffffffffffffffffffffffffffffffff168152602001908152602001600020600081548092919061051990611a73565b91905055508060086000878152602001908152602001600020819055507f97b1514c5150294825105d3d34fda558beea8e579828e9a7d2f63b8259ff220181878787878760405161056f96959493929190611abb565b60405180910390a1505050505050565b6000600760003373ffffffffffffffffffffffffffffffffffffffff1673ffffffffffffffffffffffffffffffffffffffff1681526020019081526020016000205411610601576040517f08c379a00000000000000000000000000000000000000000000000000000000081526004016105f890611b95565b60405180910390fd5b600061060c83610c8d565b905060648161061b9190611be4565b816106269190611a3f565b9050610636838284600080610397565b505050565b6005818154811061064b57600080fd5b906000526020600020906005020160009150905080600001805461066e9061176b565b80601f016020809104026020016040519081016040528092919081815260200182805461069a9061176b565b80156106e75780601f106106bc576101008083540402835291602001916106e7565b820191906000526020600020905b8154815290600101906020018083116106ca57829003601f168201915b5050505050908060010154908060020160009054906101000a900460ff16908060030154908060040154905085565b60606000600760008473ffffffffffffffffffffffffffffffffffffffff1673ffffffffffffffffffffffffffffffffffffffff16815260200190815260200160002054905060008167ffffffffffffffff81111561077857610777611021565b5b6040519080825280602002602001820160405280156107b157816020015b61079e610f17565b8152602001906001900390816107965790505b5090506000805b600580549050811015610983578573ffffffffffffffffffffffffffffffffffffffff166006600083815260200190815260200160002060009054906101000a900473ffffffffffffffffffffffffffffffffffffffff1673ffffffffffffffffffffffffffffffffffffffff1603610970576005818154811061083f5761083e611c15565b5b90600052602060002090600502016040518060a00160405290816000820180546108689061176b565b80601f01602080910402602001604051908101604052809291908181526020018280546108949061176b565b80156108e15780601f106108b6576101008083540402835291602001916108e1565b820191906000526020600020905b8154815290600101906020018083116108c457829003601f168201915b50505050508152602001600182015481526020016002820160009054906101000a900460ff16600281111561091957610918611355565b5b600281111561092b5761092a611355565b5b81526020016003820154815260200160048201548152505083838151811061095657610955611c15565b5b6020026020010181905250818061096c90611a73565b9250505b808061097b90611a73565b9150506107b8565b50819350505050919050565b60006006600083815260200190815260200160002060009054906101000a900473ffffffffffffffffffffffffffffffffffffffff169050919050565b60076020528060005260406000206000915090505481565b60035481565b600060086000838152602001908152602001600020549050919050565b6000806002544233604051602001610a20929190611cad565b6040516020818303038152906040528051906020012060001c610a439190611be4565b9050806002811115610a5857610a57611355565b5b91505090565b60086020528060005260406000206000915090505481565b60606005805480602002602001604051908101604052809291908181526020016000905b82821015610bb757838290600052602060002090600502016040518060a0016040529081600082018054610acd9061176b565b80601f0160208091040260200160405190810160405280929190818152602001828054610af99061176b565b8015610b465780601f10610b1b57610100808354040283529160200191610b46565b820191906000526020600020905b815481529060010190602001808311610b2957829003601f168201915b50505050508152602001600182015481526020016002820160009054906101000a900460ff166002811115610b7e57610b7d611355565b5b6002811115610b9057610b8f611355565b5b81526020016003820154815260200160048201548152505081526020019060010190610a9a565b50505050905090565b6000600760003373ffffffffffffffffffffffffffffffffffffffff1673ffffffffffffffffffffffffffffffffffffffff1681526020019081526020016000205403610c4f576000610c1282610c8d565b9050606481610c219190611be4565b81610c2c9190611a3f565b90506000610c38610a07565b9050610c48838383600080610397565b5050610c8a565b6040517f08c379a0000000000000000000000000000000000000000000000000000000008152600401610c8190611d4b565b60405180910390fd5b50565b60008082604051602001610ca19190611da7565b6040516020818303038152906040528051906020012060001c905060015481610cca9190611be4565b915050919050565b6000610cdd836109ea565b90506000610cea836109ea565b9050600060058381548110610d0257610d01611c15565b5b90600052602060002090600502019050600060058381548110610d2857610d27611c15565b5b906000526020600020906005020190506000610d446064610ebe565b905060008360020160009054906101000a900460ff16905060008360020160009054906101000a900460ff1690506000600b6000846002811115610d8b57610d8a611355565b5b81526020019081526020016000206000836002811115610dae57610dad611355565b5b81526020019081526020016000205490506000600a5490506000821115610dde578181610ddb9190611dbe565b90505b808511610e4957866003016000815480929190610dfa90611a73565b9190505550600a8660010154610e109190611df2565b876001016000828254610e239190611dbe565b92505081905550856004016000815480929190610e3f90611a73565b9190505550610e7e565b866004016000815480929190610e5e90611a73565b9190505550856003016000815480929190610e7890611a73565b91905055505b5050505050505050505050565b60066020528060005260406000206000915054906101000a900473ffffffffffffffffffffffffffffffffffffffff1681565b60006001600954610ecf9190611dbe565b600981905550814233600954604051602001610eed93929190611e23565b6040516020818303038152906040528051906020012060001c610f109190611be4565b9050919050565b6040518060a00160405280606081526020016000815260200160006002811115610f4457610f43611355565b5b815260200160008152602001600081525090565b600073ffffffffffffffffffffffffffffffffffffffff82169050919050565b6000819050919050565b6000610f9d610f98610f9384610f58565b610f78565b610f58565b9050919050565b6000610faf82610f82565b9050919050565b6000610fc182610fa4565b9050919050565b610fd181610fb6565b82525050565b6000602082019050610fec6000830184610fc8565b92915050565b6000604051905090565b600080fd5b600080fd5b600080fd5b600080fd5b6000601f19601f8301169050919050565b7f4e487b7100000000000000000000000000000000000000000000000000000000600052604160045260246000fd5b61105982611010565b810181811067ffffffffffffffff8211171561107857611077611021565b5b80604052505050565b600061108b610ff2565b90506110978282611050565b919050565b600067ffffffffffffffff8211156110b7576110b6611021565b5b6110c082611010565b9050602081019050919050565b82818337600083830152505050565b60006110ef6110ea8461109c565b611081565b90508281526020810184848401111561110b5761110a61100b565b5b6111168482856110cd565b509392505050565b600082601f83011261113357611132611006565b5b81356111438482602086016110dc565b91505092915050565b6000819050919050565b61115f8161114c565b811461116a57600080fd5b50565b60008135905061117c81611156565b92915050565b6003811061118f57600080fd5b50565b6000813590506111a181611182565b92915050565b600080600080600060a086880312156111c3576111c2610ffc565b5b600086013567ffffffffffffffff8111156111e1576111e0611001565b5b6111ed8882890161111e565b95505060206111fe8882890161116d565b945050604061120f88828901611192565b93505060606112208882890161116d565b92505060806112318882890161116d565b9150509295509295909350565b6000806040838503121561125557611254610ffc565b5b600083013567ffffffffffffffff81111561127357611272611001565b5b61127f8582860161111e565b925050602061129085828601611192565b9150509250929050565b6000602082840312156112b0576112af610ffc565b5b60006112be8482850161116d565b91505092915050565b600081519050919050565b600082825260208201905092915050565b60005b838110156113015780820151818401526020810190506112e6565b60008484015250505050565b6000611318826112c7565b61132281856112d2565b93506113328185602086016112e3565b61133b81611010565b840191505092915050565b61134f8161114c565b82525050565b7f4e487b7100000000000000000000000000000000000000000000000000000000600052602160045260246000fd5b6003811061139557611394611355565b5b50565b60008190506113a682611384565b919050565b60006113b682611398565b9050919050565b6113c6816113ab565b82525050565b600060a08201905081810360008301526113e6818861130d565b90506113f56020830187611346565b61140260408301866113bd565b61140f6060830185611346565b61141c6080830184611346565b9695505050505050565b600061143182610f58565b9050919050565b61144181611426565b811461144c57600080fd5b50565b60008135905061145e81611438565b92915050565b60006020828403121561147a57611479610ffc565b5b60006114888482850161144f565b91505092915050565b600081519050919050565b600082825260208201905092915050565b6000819050602082019050919050565b600082825260208201905092915050565b60006114d9826112c7565b6114e381856114bd565b93506114f38185602086016112e3565b6114fc81611010565b840191505092915050565b6115108161114c565b82525050565b61151f816113ab565b82525050565b600060a083016000830151848203600086015261154282826114ce565b91505060208301516115576020860182611507565b50604083015161156a6040860182611516565b50606083015161157d6060860182611507565b5060808301516115906080860182611507565b508091505092915050565b60006115a78383611525565b905092915050565b6000602082019050919050565b60006115c782611491565b6115d1818561149c565b9350836020820285016115e3856114ad565b8060005b8581101561161f5784840389528151611600858261159b565b945061160b836115af565b925060208a019950506001810190506115e7565b50829750879550505050505092915050565b6000602082019050818103600083015261164b81846115bc565b905092915050565b61165c81611426565b82525050565b60006020820190506116776000830184611653565b92915050565b60006020820190506116926000830184611346565b92915050565b60006020820190506116ad60008301846113bd565b92915050565b6000602082840312156116c9576116c8610ffc565b5b600082013567ffffffffffffffff8111156116e7576116e6611001565b5b6116f38482850161111e565b91505092915050565b6000806040838503121561171357611712610ffc565b5b60006117218582860161116d565b92505060206117328582860161116d565b9150509250929050565b7f4e487b7100000000000000000000000000000000000000000000000000000000600052602260045260246000fd5b6000600282049050600182168061178357607f821691505b6020821081036117965761179561173c565b5b50919050565b60008190508160005260206000209050919050565b60006020601f8301049050919050565b600082821b905092915050565b6000600883026117fe7fffffffffffffffffffffffffffffffffffffffffffffffffffffffffffffffff826117c1565b61180886836117c1565b95508019841693508086168417925050509392505050565b600061183b6118366118318461114c565b610f78565b61114c565b9050919050565b6000819050919050565b61185583611820565b61186961186182611842565b8484546117ce565b825550505050565b600090565b61187e611871565b61188981848461184c565b505050565b5b818110156118ad576118a2600082611876565b60018101905061188f565b5050565b601f8211156118f2576118c38161179c565b6118cc846117b1565b810160208510156118db578190505b6118ef6118e7856117b1565b83018261188e565b50505b505050565b600082821c905092915050565b6000611915600019846008026118f7565b1980831691505092915050565b600061192e8383611904565b9150826002028217905092915050565b611947826112c7565b67ffffffffffffffff8111156119605761195f611021565b5b61196a825461176b565b6119758282856118b1565b600060209050601f8311600181146119a85760008415611996578287015190505b6119a08582611922565b865550611a08565b601f1984166119b68661179c565b60005b828110156119de578489015182556001820191506020850194506020810190506119b9565b868310156119fb57848901516119f7601f891682611904565b8355505b6001600288020188555050505b505050505050565b7f4e487b7100000000000000000000000000000000000000000000000000000000600052601160045260246000fd5b6000611a4a8261114c565b9150611a558361114c565b9250828203905081811115611a6d57611a6c611a10565b5b92915050565b6000611a7e8261114c565b91507fffffffffffffffffffffffffffffffffffffffffffffffffffffffffffffffff8203611ab057611aaf611a10565b5b600182019050919050565b600060c082019050611ad06000830189611346565b8181036020830152611ae2818861130d565b9050611af16040830187611346565b611afe60608301866113bd565b611b0b6080830185611346565b611b1860a0830184611346565b979650505050505050565b7f596f75206d757374206f776e206174206c65617374206f6e6520616e7420746f60008201527f20627579206d6f72652e00000000000000000000000000000000000000000000602082015250565b6000611b7f602a836112d2565b9150611b8a82611b23565b604082019050919050565b60006020820190508181036000830152611bae81611b72565b9050919050565b7f4e487b7100000000000000000000000000000000000000000000000000000000600052601260045260246000fd5b6000611bef8261114c565b9150611bfa8361114c565b925082611c0a57611c09611bb5565b5b828206905092915050565b7f4e487b7100000000000000000000000000000000000000000000000000000000600052603260045260246000fd5b6000819050919050565b611c5f611c5a8261114c565b611c44565b82525050565b60008160601b9050919050565b6000611c7d82611c65565b9050919050565b6000611c8f82611c72565b9050919050565b611ca7611ca282611426565b611c84565b82525050565b6000611cb98285611c4e565b602082019150611cc98284611c96565b6014820191508190509392505050565b7f596f7520616c7265616479206f776e20616e20616e742e20557365206275794160008201527f6e74427943686f69636520746f20627579206d6f72652e000000000000000000602082015250565b6000611d356037836112d2565b9150611d4082611cd9565b604082019050919050565b60006020820190508181036000830152611d6481611d28565b9050919050565b600081905092915050565b6000611d81826112c7565b611d8b8185611d6b565b9350611d9b8185602086016112e3565b80840191505092915050565b6000611db38284611d76565b915081905092915050565b6000611dc98261114c565b9150611dd48361114c565b9250828201905080821115611dec57611deb611a10565b5b92915050565b6000611dfd8261114c565b9150611e088361114c565b925082611e1857611e17611bb5565b5b828204905092915050565b6000611e2f8286611c4e565b602082019150611e3f8285611c96565b601482019150611e4f8284611c4e565b60208201915081905094935050505056fea264697066735822122011699009367e122a68333a1f5d70ccaf6a0931415b5dd811b73d3e0358697c5764736f6c63430008110033",
  "immutableReferences": {},
  "source": "pragma solidity ^0.8.0;\r\n\r\nimport \"./antfactory.sol\";\r\nimport \"./victoryToken.sol\";\r\n\r\ncontract AntBattle is AntFactory {\r\n    constructor(address _victoryTokenAddress) AntFactory(_victoryTokenAddress) {\r\n        speciesAdvantages[uint(Species.FireAnt)][uint(Species.BlackCrazyAnt)] = 20; // FireAnt has a 20% advantage against BlackCrazyAnt\r\n        speciesAdvantages[uint(Species.BlackCrazyAnt)][uint(Species.CarpenterAnt)] = 20; // BlackCrazyAnt has a 20% advantage against CarpenterAnt\r\n        speciesAdvantages[uint(Species.CarpenterAnt)][uint(Species.FireAnt)] = 20; // CarpenterAnt has a 20% advantage against FireAnt \r\n        victoryToken = VictoryToken(_victoryTokenAddress);\r\n    }\r\n\r\n    uint randNonce = 0;\r\n    uint attackVictoryProbability = 50;\r\n    mapping(uint => mapping(uint => uint)) speciesAdvantages;\r\n\r\n    function randMod(uint _modulus) internal returns(uint) {\r\n        randNonce = randNonce + 1;\r\n        return uint(keccak256(abi.encodePacked(block.timestamp, msg.sender, randNonce))) % _modulus;\r\n    }\r\n\r\n    function attack(uint _antDna, uint _targetDna) public {\r\n        uint _antId = getAntId(_antDna);\r\n        uint _targetId = getAntId(_targetDna);\r\n\r\n        // require(msg.sender == getAntOwner(_antId), \"You can only attack with your own ant\");\r\n\r\n        Ant storage myAnt = ants[_antId];\r\n        Ant storage enemyAnt = ants[_targetId];\r\n\r\n        uint rand = randMod(100);\r\n\r\n        Species myAntSpecies = myAnt.species;\r\n        Species enemyAntSpecies = enemyAnt.species;\r\n\r\n        uint speciesAdvantage = speciesAdvantages[uint(myAntSpecies)][uint(enemyAntSpecies)];\r\n\r\n        // Calculate final attack probability\r\n        uint finalAttackProbability = attackVictoryProbability;\r\n        \r\n        if (speciesAdvantage > 0) {\r\n            finalAttackProbability += uint(speciesAdvantage); // Apply species advantage directly\r\n        }\r\n\r\n        if (rand <= finalAttackProbability) {\r\n            myAnt.winCount++;\r\n            myAnt.dna += enemyAnt.dna / 10; // You can modify this logic as needed\r\n            enemyAnt.lossCount++;\r\n\r\n            //give victory tokens to the winner \r\n            // victoryToken._mintVictoryTokens(msg.sender, 1);\r\n        } else {\r\n            myAnt.lossCount++;\r\n            enemyAnt.winCount++;\r\n\r\n            //give victory tokens to the winner\r\n            // address enemyAntOwner = getAntOwner(_targetId);\r\n            // victoryToken._mintVictoryTokens(enemyAntOwner, 1);\r\n        }\r\n    }\r\n}",
  "sourcePath": "C:\\Users\\brand\\Desktop\\erasmus\\blockchain\\blockchain_home_assignment\\contracts\\antbattle.sol",
  "compiler": {
    "name": "solc",
    "version": "0.8.17+commit.8df45f5f.Emscripten.clang"
  },
  "schemaVersion": "3.4.16",
  "updatedAt": "2024-06-07T13:57:32.902Z",
  "networkType": "ethereum",
  "devdoc": {
    "kind": "dev",
    "methods": {},
    "version": 1
  },
  "userdoc": {
    "kind": "user",
    "methods": {},
    "version": 1
  }
}