{
  "contractName": "AntBattle",
  "abi": [
    {
      "inputs": [
        {
          "internalType": "address",
          "name": "_victoryTokenAddress",
          "type": "address"
        }
      ],
      "stateMutability": "nonpayable",
      "type": "constructor"
    },
    {
      "anonymous": false,
      "inputs": [
        {
          "indexed": false,
          "internalType": "uint256",
          "name": "antId",
          "type": "uint256"
        },
        {
          "indexed": false,
          "internalType": "string",
          "name": "name",
          "type": "string"
        },
        {
          "indexed": false,
          "internalType": "uint256",
          "name": "dna",
          "type": "uint256"
        },
        {
          "indexed": false,
          "internalType": "enum AntFactory.Species",
          "name": "species",
          "type": "uint8"
        },
        {
          "indexed": false,
          "internalType": "uint256",
          "name": "winCount",
          "type": "uint256"
        },
        {
          "indexed": false,
          "internalType": "uint256",
          "name": "lossCount",
          "type": "uint256"
        }
      ],
      "name": "NewAnt",
      "type": "event"
    },
    {
      "inputs": [
        {
          "internalType": "string",
          "name": "_name",
          "type": "string"
        },
        {
          "internalType": "uint256",
          "name": "_dna",
          "type": "uint256"
        },
        {
          "internalType": "enum AntFactory.Species",
          "name": "_species",
          "type": "uint8"
        },
        {
          "internalType": "uint256",
          "name": "_winCount",
          "type": "uint256"
        },
        {
          "internalType": "uint256",
          "name": "_lossCount",
          "type": "uint256"
        }
      ],
      "name": "_createAnt",
      "outputs": [],
      "stateMutability": "nonpayable",
      "type": "function"
    },
    {
      "inputs": [
        {
          "internalType": "string",
          "name": "_str",
          "type": "string"
        }
      ],
      "name": "_generateRandomDna",
      "outputs": [
        {
          "internalType": "uint256",
          "name": "",
          "type": "uint256"
        }
      ],
      "stateMutability": "view",
      "type": "function"
    },
    {
      "inputs": [],
      "name": "_generateRandomSpecies",
      "outputs": [
        {
          "internalType": "enum AntFactory.Species",
          "name": "",
          "type": "uint8"
        }
      ],
      "stateMutability": "view",
      "type": "function"
    },
    {
      "inputs": [
        {
          "internalType": "uint256",
          "name": "",
          "type": "uint256"
        }
      ],
      "name": "antToOwner",
      "outputs": [
        {
          "internalType": "address",
          "name": "",
          "type": "address"
        }
      ],
      "stateMutability": "view",
      "type": "function"
    },
    {
      "inputs": [
        {
          "internalType": "uint256",
          "name": "",
          "type": "uint256"
        }
      ],
      "name": "ants",
      "outputs": [
        {
          "internalType": "string",
          "name": "name",
          "type": "string"
        },
        {
          "internalType": "uint256",
          "name": "dna",
          "type": "uint256"
        },
        {
          "internalType": "enum AntFactory.Species",
          "name": "species",
          "type": "uint8"
        },
        {
          "internalType": "uint256",
          "name": "winCount",
          "type": "uint256"
        },
        {
          "internalType": "uint256",
          "name": "lossCount",
          "type": "uint256"
        }
      ],
      "stateMutability": "view",
      "type": "function"
    },
    {
      "inputs": [
        {
          "internalType": "string",
          "name": "_name",
          "type": "string"
        }
      ],
      "name": "createRandomAnt",
      "outputs": [],
      "stateMutability": "nonpayable",
      "type": "function"
    },
    {
      "inputs": [],
      "name": "victoryToken",
      "outputs": [
        {
          "internalType": "contract VictoryToken",
          "name": "",
          "type": "address"
        }
      ],
      "stateMutability": "view",
      "type": "function"
    },
    {
      "inputs": [
        {
          "internalType": "uint256",
          "name": "_antId",
          "type": "uint256"
        },
        {
          "internalType": "uint256",
          "name": "_targetId",
          "type": "uint256"
        }
      ],
      "name": "attack",
      "outputs": [],
      "stateMutability": "nonpayable",
      "type": "function"
    }
  ],
  "bytecode": "0x608060405260105f555f54600a6200001891906200031a565b60015560036002555f600655603260075534801562000035575f80fd5b5060405162001df238038062001df283398181016040528101906200005b9190620003cf565b601460095f806002811115620000765762000075620003ff565b5b81526020019081526020015f205f600160028111156200009b576200009a620003ff565b5b81526020019081526020015f2081905550601460095f60016002811115620000c857620000c7620003ff565b5b81526020019081526020015f205f600280811115620000ec57620000eb620003ff565b5b81526020019081526020015f2081905550601460095f600280811115620001185762000117620003ff565b5b81526020019081526020015f205f8060028111156200013c576200013b620003ff565b5b81526020019081526020015f20819055508060085f6101000a81548173ffffffffffffffffffffffffffffffffffffffff021916908373ffffffffffffffffffffffffffffffffffffffff160217905550506200042c565b7f4e487b71000000000000000000000000000000000000000000000000000000005f52601160045260245ffd5b5f8160011c9050919050565b5f808291508390505b60018511156200021e57808604811115620001f657620001f562000194565b5b6001851615620002065780820291505b80810290506200021685620001c1565b9450620001d6565b94509492505050565b5f826200023857600190506200030a565b8162000247575f90506200030a565b81600181146200026057600281146200026b57620002a1565b60019150506200030a565b60ff84111562000280576200027f62000194565b5b8360020a9150848211156200029a576200029962000194565b5b506200030a565b5060208310610133831016604e8410600b8410161715620002db5782820a905083811115620002d557620002d462000194565b5b6200030a565b620002ea8484846001620001cd565b9250905081840481111562000304576200030362000194565b5b81810290505b9392505050565b5f819050919050565b5f620003268262000311565b9150620003338362000311565b9250620003627fffffffffffffffffffffffffffffffffffffffffffffffffffffffffffffffff848462000227565b905092915050565b5f80fd5b5f73ffffffffffffffffffffffffffffffffffffffff82169050919050565b5f62000399826200036e565b9050919050565b620003ab816200038d565b8114620003b6575f80fd5b50565b5f81519050620003c981620003a0565b92915050565b5f60208284031215620003e757620003e66200036a565b5b5f620003f684828501620003b9565b91505092915050565b7f4e487b71000000000000000000000000000000000000000000000000000000005f52602160045260245ffd5b6119b8806200043a5f395ff3fe608060405234801561000f575f80fd5b5060043610610086575f3560e01c8063df30775411610059578063df30775414610116578063df57a6ec14610132578063e1fa763814610162578063f770031c1461017e57610086565b80630192e4141461008a57806308e64aac146100a8578063109dcfe6146100c45780635bd49b2d146100f8575b5f80fd5b6100926101ae565b60405161009f9190610b90565b60405180910390f35b6100c260048036038101906100bd9190610d4c565b6101d3565b005b6100de60048036038101906100d99190610ddf565b610396565b6040516100ef959493929190610f06565b60405180910390f35b610100610469565b60405161010d9190610f5e565b60405180910390f35b610130600480360381019061012b9190610f77565b6104be565b005b61014c60048036038101906101479190610f77565b610580565b6040516101599190610fbe565b60405180910390f35b61017c60048036038101906101779190610fd7565b6105c3565b005b61019860048036038101906101939190610ddf565b610a56565b6040516101a59190611035565b60405180910390f35b60085f9054906101000a900473ffffffffffffffffffffffffffffffffffffffff1681565b60036040518060a001604052808781526020018681526020018560028111156101ff576101fe610e93565b5b815260200184815260200183815250908060018154018082558091505060019003905f5260205f2090600502015f909190919091505f820151815f019081610247919061123f565b50602082015181600101556040820151816002015f6101000a81548160ff0219169083600281111561027c5761027b610e93565b5b0217905550606082015181600301556080820151816004015550505f60016003805490506102aa919061133b565b90503360045f8381526020019081526020015f205f6101000a81548173ffffffffffffffffffffffffffffffffffffffff021916908373ffffffffffffffffffffffffffffffffffffffff16021790555060055f3373ffffffffffffffffffffffffffffffffffffffff1673ffffffffffffffffffffffffffffffffffffffff1681526020019081526020015f205f8154809291906103489061136e565b91905055507f97b1514c5150294825105d3d34fda558beea8e579828e9a7d2f63b8259ff2201818787878787604051610386969594939291906113b5565b60405180910390a1505050505050565b600381815481106103a5575f80fd5b905f5260205f2090600502015f91509050805f0180546103c49061107b565b80601f01602080910402602001604051908101604052809291908181526020018280546103f09061107b565b801561043b5780601f106104125761010080835404028352916020019161043b565b820191905f5260205f20905b81548152906001019060200180831161041e57829003601f168201915b505050505090806001015490806002015f9054906101000a900460ff16908060030154908060040154905085565b5f806002544233604051602001610481929190611480565b604051602081830303815290604052805190602001205f1c6104a391906114d8565b90508060028111156104b8576104b7610e93565b5b91505090565b5f60055f3373ffffffffffffffffffffffffffffffffffffffff1673ffffffffffffffffffffffffffffffffffffffff1681526020019081526020015f20541461053d576040517f08c379a000000000000000000000000000000000000000000000000000000000815260040161053490611578565b60405180910390fd5b5f61054782610580565b905060648161055691906114d8565b81610561919061133b565b90505f61056c610469565b905061057b8383835f806101d3565b505050565b5f808260405160200161059391906115d0565b604051602081830303815290604052805190602001205f1c9050600154816105bb91906114d8565b915050919050565b60045f8381526020019081526020015f205f9054906101000a900473ffffffffffffffffffffffffffffffffffffffff1673ffffffffffffffffffffffffffffffffffffffff163373ffffffffffffffffffffffffffffffffffffffff1614610661576040517f08c379a000000000000000000000000000000000000000000000000000000000815260040161065890611656565b60405180910390fd5b5f6003838154811061067657610675611674565b5b905f5260205f20906005020190505f6003838154811061069957610698611674565b5b905f5260205f20906005020190505f6106b26064610a86565b90505f836002015f9054906101000a900460ff1690505f836002015f9054906101000a900460ff1690505f60095f8460028111156106f3576106f2610e93565b5b81526020019081526020015f205f83600281111561071457610713610e93565b5b81526020019081526020015f205490505f60075490505f82111561074157818161073e91906116a1565b90505b8085116108da57866003015f81548092919061075c9061136e565b9190505550600a866001015461077291906116d4565b876001015f82825461078491906116a1565b92505081905550856004015f81548092919061079f9061136e565b919050555060085f9054906101000a900473ffffffffffffffffffffffffffffffffffffffff1673ffffffffffffffffffffffffffffffffffffffff16634e6ec2473360085f9054906101000a900473ffffffffffffffffffffffffffffffffffffffff1673ffffffffffffffffffffffffffffffffffffffff1663313ce5676040518163ffffffff1660e01b8152600401602060405180830381865afa15801561084c573d5f803e3d5ffd5b505050506040513d601f19601f82011682018060405250810190610870919061173a565b60ff16600a61087f9190611894565b600a61088b91906118de565b6040518363ffffffff1660e01b81526004016108a892919061191f565b5f604051808303815f87803b1580156108bf575f80fd5b505af11580156108d1573d5f803e3d5ffd5b50505050610a4b565b866004015f8154809291906108ee9061136e565b9190505550856003015f8154809291906109079061136e565b91905055505f61091689610add565b905060085f9054906101000a900473ffffffffffffffffffffffffffffffffffffffff1673ffffffffffffffffffffffffffffffffffffffff16634e6ec2478260085f9054906101000a900473ffffffffffffffffffffffffffffffffffffffff1673ffffffffffffffffffffffffffffffffffffffff1663313ce5676040518163ffffffff1660e01b8152600401602060405180830381865afa1580156109c0573d5f803e3d5ffd5b505050506040513d601f19601f820116820180604052508101906109e4919061173a565b60ff16600a6109f39190611894565b600a6109ff91906118de565b6040518363ffffffff1660e01b8152600401610a1c92919061191f565b5f604051808303815f87803b158015610a33575f80fd5b505af1158015610a45573d5f803e3d5ffd5b50505050505b505050505050505050565b6004602052805f5260405f205f915054906101000a900473ffffffffffffffffffffffffffffffffffffffff1681565b5f6001600654610a9691906116a1565b600681905550814233600654604051602001610ab493929190611946565b604051602081830303815290604052805190602001205f1c610ad691906114d8565b9050919050565b5f60045f8381526020019081526020015f205f9054906101000a900473ffffffffffffffffffffffffffffffffffffffff169050919050565b5f73ffffffffffffffffffffffffffffffffffffffff82169050919050565b5f819050919050565b5f610b58610b53610b4e84610b16565b610b35565b610b16565b9050919050565b5f610b6982610b3e565b9050919050565b5f610b7a82610b5f565b9050919050565b610b8a81610b70565b82525050565b5f602082019050610ba35f830184610b81565b92915050565b5f604051905090565b5f80fd5b5f80fd5b5f80fd5b5f80fd5b5f601f19601f8301169050919050565b7f4e487b71000000000000000000000000000000000000000000000000000000005f52604160045260245ffd5b610c0882610bc2565b810181811067ffffffffffffffff82111715610c2757610c26610bd2565b5b80604052505050565b5f610c39610ba9565b9050610c458282610bff565b919050565b5f67ffffffffffffffff821115610c6457610c63610bd2565b5b610c6d82610bc2565b9050602081019050919050565b828183375f83830152505050565b5f610c9a610c9584610c4a565b610c30565b905082815260208101848484011115610cb657610cb5610bbe565b5b610cc1848285610c7a565b509392505050565b5f82601f830112610cdd57610cdc610bba565b5b8135610ced848260208601610c88565b91505092915050565b5f819050919050565b610d0881610cf6565b8114610d12575f80fd5b50565b5f81359050610d2381610cff565b92915050565b60038110610d35575f80fd5b50565b5f81359050610d4681610d29565b92915050565b5f805f805f60a08688031215610d6557610d64610bb2565b5b5f86013567ffffffffffffffff811115610d8257610d81610bb6565b5b610d8e88828901610cc9565b9550506020610d9f88828901610d15565b9450506040610db088828901610d38565b9350506060610dc188828901610d15565b9250506080610dd288828901610d15565b9150509295509295909350565b5f60208284031215610df457610df3610bb2565b5b5f610e0184828501610d15565b91505092915050565b5f81519050919050565b5f82825260208201905092915050565b5f5b83811015610e41578082015181840152602081019050610e26565b5f8484015250505050565b5f610e5682610e0a565b610e608185610e14565b9350610e70818560208601610e24565b610e7981610bc2565b840191505092915050565b610e8d81610cf6565b82525050565b7f4e487b71000000000000000000000000000000000000000000000000000000005f52602160045260245ffd5b60038110610ed157610ed0610e93565b5b50565b5f819050610ee182610ec0565b919050565b5f610ef082610ed4565b9050919050565b610f0081610ee6565b82525050565b5f60a0820190508181035f830152610f1e8188610e4c565b9050610f2d6020830187610e84565b610f3a6040830186610ef7565b610f476060830185610e84565b610f546080830184610e84565b9695505050505050565b5f602082019050610f715f830184610ef7565b92915050565b5f60208284031215610f8c57610f8b610bb2565b5b5f82013567ffffffffffffffff811115610fa957610fa8610bb6565b5b610fb584828501610cc9565b91505092915050565b5f602082019050610fd15f830184610e84565b92915050565b5f8060408385031215610fed57610fec610bb2565b5b5f610ffa85828601610d15565b925050602061100b85828601610d15565b9150509250929050565b5f61101f82610b16565b9050919050565b61102f81611015565b82525050565b5f6020820190506110485f830184611026565b92915050565b7f4e487b71000000000000000000000000000000000000000000000000000000005f52602260045260245ffd5b5f600282049050600182168061109257607f821691505b6020821081036110a5576110a461104e565b5b50919050565b5f819050815f5260205f209050919050565b5f6020601f8301049050919050565b5f82821b905092915050565b5f600883026111077fffffffffffffffffffffffffffffffffffffffffffffffffffffffffffffffff826110cc565b61111186836110cc565b95508019841693508086168417925050509392505050565b5f61114361113e61113984610cf6565b610b35565b610cf6565b9050919050565b5f819050919050565b61115c83611129565b6111706111688261114a565b8484546110d8565b825550505050565b5f90565b611184611178565b61118f818484611153565b505050565b5b818110156111b2576111a75f8261117c565b600181019050611195565b5050565b601f8211156111f7576111c8816110ab565b6111d1846110bd565b810160208510156111e0578190505b6111f46111ec856110bd565b830182611194565b50505b505050565b5f82821c905092915050565b5f6112175f19846008026111fc565b1980831691505092915050565b5f61122f8383611208565b9150826002028217905092915050565b61124882610e0a565b67ffffffffffffffff81111561126157611260610bd2565b5b61126b825461107b565b6112768282856111b6565b5f60209050601f8311600181146112a7575f8415611295578287015190505b61129f8582611224565b865550611306565b601f1984166112b5866110ab565b5f5b828110156112dc578489015182556001820191506020850194506020810190506112b7565b868310156112f957848901516112f5601f891682611208565b8355505b6001600288020188555050505b505050505050565b7f4e487b71000000000000000000000000000000000000000000000000000000005f52601160045260245ffd5b5f61134582610cf6565b915061135083610cf6565b92508282039050818111156113685761136761130e565b5b92915050565b5f61137882610cf6565b91507fffffffffffffffffffffffffffffffffffffffffffffffffffffffffffffffff82036113aa576113a961130e565b5b600182019050919050565b5f60c0820190506113c85f830189610e84565b81810360208301526113da8188610e4c565b90506113e96040830187610e84565b6113f66060830186610ef7565b6114036080830185610e84565b61141060a0830184610e84565b979650505050505050565b5f819050919050565b61143561143082610cf6565b61141b565b82525050565b5f8160601b9050919050565b5f6114518261143b565b9050919050565b5f61146282611447565b9050919050565b61147a61147582611015565b611458565b82525050565b5f61148b8285611424565b60208201915061149b8284611469565b6014820191508190509392505050565b7f4e487b71000000000000000000000000000000000000000000000000000000005f52601260045260245ffd5b5f6114e282610cf6565b91506114ed83610cf6565b9250826114fd576114fc6114ab565b5b828206905092915050565b7f4561636820616464726573732063616e206f6e6c79206f776e206f6e6520616e5f8201527f7400000000000000000000000000000000000000000000000000000000000000602082015250565b5f611562602183610e14565b915061156d82611508565b604082019050919050565b5f6020820190508181035f83015261158f81611556565b9050919050565b5f81905092915050565b5f6115aa82610e0a565b6115b48185611596565b93506115c4818560208601610e24565b80840191505092915050565b5f6115db82846115a0565b915081905092915050565b7f596f752063616e206f6e6c792061747461636b207769746820796f7572206f775f8201527f6e20616e74000000000000000000000000000000000000000000000000000000602082015250565b5f611640602583610e14565b915061164b826115e6565b604082019050919050565b5f6020820190508181035f83015261166d81611634565b9050919050565b7f4e487b71000000000000000000000000000000000000000000000000000000005f52603260045260245ffd5b5f6116ab82610cf6565b91506116b683610cf6565b92508282019050808211156116ce576116cd61130e565b5b92915050565b5f6116de82610cf6565b91506116e983610cf6565b9250826116f9576116f86114ab565b5b828204905092915050565b5f60ff82169050919050565b61171981611704565b8114611723575f80fd5b50565b5f8151905061173481611710565b92915050565b5f6020828403121561174f5761174e610bb2565b5b5f61175c84828501611726565b91505092915050565b5f8160011c9050919050565b5f808291508390505b60018511156117ba578086048111156117965761179561130e565b5b60018516156117a55780820291505b80810290506117b385611765565b945061177a565b94509492505050565b5f826117d2576001905061188d565b816117df575f905061188d565b81600181146117f557600281146117ff5761182e565b600191505061188d565b60ff8411156118115761181061130e565b5b8360020a9150848211156118285761182761130e565b5b5061188d565b5060208310610133831016604e8410600b84101617156118635782820a90508381111561185e5761185d61130e565b5b61188d565b6118708484846001611771565b925090508184048111156118875761188661130e565b5b81810290505b9392505050565b5f61189e82610cf6565b91506118a983610cf6565b92506118d67fffffffffffffffffffffffffffffffffffffffffffffffffffffffffffffffff84846117c3565b905092915050565b5f6118e882610cf6565b91506118f383610cf6565b925082820261190181610cf6565b915082820484148315176119185761191761130e565b5b5092915050565b5f6040820190506119325f830185611026565b61193f6020830184610e84565b9392505050565b5f6119518286611424565b6020820191506119618285611469565b6014820191506119718284611424565b60208201915081905094935050505056fea26469706673582212200bf964fd878753d1f94f40d152e59c948bf2a00e463cc419cdb99a338804edf664736f6c63430008150033",
  "immutableReferences": {},
  "source": "pragma solidity ^0.8.0;\r\n\r\nimport \"./AntFactory.sol\";\r\nimport \"./victoryToken.sol\";\r\n\r\ncontract AntBattle is AntFactory {\r\n    uint randNonce = 0;\r\n    uint attackVictoryProbability = 50;\r\n    VictoryToken public victoryToken;\r\n\r\n    // Define species advantages (if SpeciesA attacks SpeciesB, etc.)\r\n    mapping(uint => mapping(uint => uint)) speciesAdvantages;\r\n\r\n    constructor(address _victoryTokenAddress) {\r\n        // Initialize species advantages (you can adjust these values as needed)\r\n        speciesAdvantages[uint(Species.FireAnt)][uint(Species.BlackCrazyAnt)] = 20; // FireAnt has a 20% advantage against BlackCrazyAnt\r\n        speciesAdvantages[uint(Species.BlackCrazyAnt)][uint(Species.CarpenterAnt)] = 20; // BlackCrazyAnt has a 20% advantage against CarpenterAnt\r\n        speciesAdvantages[uint(Species.CarpenterAnt)][uint(Species.FireAnt)] = 20; // CarpenterAnt has a 20% advantage against FireAnt \r\n        victoryToken = VictoryToken(_victoryTokenAddress); // Corrected assignment\r\n    }\r\n\r\n    function randMod(uint _modulus) internal returns(uint) {\r\n        randNonce = randNonce + 1;\r\n        return uint(keccak256(abi.encodePacked(block.timestamp, msg.sender, randNonce))) % _modulus;\r\n    }\r\n\r\n    function getAntOwner(uint _antId) internal view returns (address) {\r\n        return antToOwner[_antId];\r\n    }\r\n\r\n    function attack(uint _antId, uint _targetId) external {\r\n        require(msg.sender == antToOwner[_antId], \"You can only attack with your own ant\");\r\n\r\n        Ant storage myAnt = ants[_antId];\r\n        Ant storage enemyAnt = ants[_targetId];\r\n\r\n        uint rand = randMod(100);\r\n\r\n        Species myAntSpecies = myAnt.species;\r\n        Species enemyAntSpecies = enemyAnt.species;\r\n\r\n        // uint speciesAdvantage = speciesAdvantages[myAntSpecies][enemyAntSpecies];\r\n        uint speciesAdvantage = speciesAdvantages[uint(myAntSpecies)][uint(enemyAntSpecies)];\r\n\r\n        // Calculate final attack probability\r\n        uint finalAttackProbability = attackVictoryProbability;\r\n        \r\n        if (speciesAdvantage > 0) {\r\n            finalAttackProbability += uint(speciesAdvantage); // Apply species advantage directly\r\n\r\n        }\r\n\r\n        if (rand <= finalAttackProbability) {\r\n            myAnt.winCount++;\r\n            myAnt.dna += enemyAnt.dna / 10; // You can modify this logic as needed\r\n            enemyAnt.lossCount++;\r\n\r\n            //give victory tokens to the winner \r\n            victoryToken._mint(msg.sender, 10 * 10 ** uint(victoryToken.decimals()));\r\n        } else {\r\n            myAnt.lossCount++;\r\n            enemyAnt.winCount++;\r\n\r\n            //give victory tokens to the winner\r\n            address enemyAntOwner = getAntOwner(_targetId); // Corrected usage\r\n            victoryToken._mint(enemyAntOwner, 10 * 10 ** uint(victoryToken.decimals()));\r\n        }\r\n    }\r\n}",
  "sourcePath": "C:\\Users\\brand\\Desktop\\erasmus\\blockchain\\blockchain_home_assignment\\contracts\\antbattle.sol",
  "compiler": {
    "name": "solc",
    "version": "0.8.21+commit.d9974bed.Emscripten.clang"
  },
  "schemaVersion": "3.4.16",
  "updatedAt": "2024-05-27T15:45:30.801Z",
  "devdoc": {
    "kind": "dev",
    "methods": {},
    "version": 1
  },
  "userdoc": {
    "kind": "user",
    "methods": {},
    "version": 1
  }
}