{
  "contractName": "AntBattle",
  "abi": [
    {
      "inputs": [
        {
          "internalType": "address",
          "name": "_victoryTokenAddress",
          "type": "address"
        }
      ],
      "stateMutability": "nonpayable",
      "type": "constructor"
    },
    {
      "anonymous": false,
      "inputs": [
        {
          "indexed": false,
          "internalType": "uint256",
          "name": "antId",
          "type": "uint256"
        },
        {
          "indexed": false,
          "internalType": "string",
          "name": "name",
          "type": "string"
        },
        {
          "indexed": false,
          "internalType": "uint256",
          "name": "dna",
          "type": "uint256"
        },
        {
          "indexed": false,
          "internalType": "enum AntFactory.Species",
          "name": "species",
          "type": "uint8"
        },
        {
          "indexed": false,
          "internalType": "uint256",
          "name": "winCount",
          "type": "uint256"
        },
        {
          "indexed": false,
          "internalType": "uint256",
          "name": "lossCount",
          "type": "uint256"
        }
      ],
      "name": "NewAnt",
      "type": "event"
    },
    {
      "inputs": [
        {
          "internalType": "string",
          "name": "_name",
          "type": "string"
        },
        {
          "internalType": "uint256",
          "name": "_dna",
          "type": "uint256"
        },
        {
          "internalType": "enum AntFactory.Species",
          "name": "_species",
          "type": "uint8"
        },
        {
          "internalType": "uint256",
          "name": "_winCount",
          "type": "uint256"
        },
        {
          "internalType": "uint256",
          "name": "_lossCount",
          "type": "uint256"
        }
      ],
      "name": "_createAnt",
      "outputs": [],
      "stateMutability": "nonpayable",
      "type": "function"
    },
    {
      "inputs": [
        {
          "internalType": "string",
          "name": "_str",
          "type": "string"
        }
      ],
      "name": "_generateRandomDna",
      "outputs": [
        {
          "internalType": "uint256",
          "name": "",
          "type": "uint256"
        }
      ],
      "stateMutability": "view",
      "type": "function"
    },
    {
      "inputs": [],
      "name": "_generateRandomSpecies",
      "outputs": [
        {
          "internalType": "enum AntFactory.Species",
          "name": "",
          "type": "uint8"
        }
      ],
      "stateMutability": "view",
      "type": "function"
    },
    {
      "inputs": [],
      "name": "antPrice",
      "outputs": [
        {
          "internalType": "uint256",
          "name": "",
          "type": "uint256"
        }
      ],
      "stateMutability": "view",
      "type": "function"
    },
    {
      "inputs": [
        {
          "internalType": "uint256",
          "name": "",
          "type": "uint256"
        }
      ],
      "name": "antToOwner",
      "outputs": [
        {
          "internalType": "address",
          "name": "",
          "type": "address"
        }
      ],
      "stateMutability": "view",
      "type": "function"
    },
    {
      "inputs": [
        {
          "internalType": "uint256",
          "name": "",
          "type": "uint256"
        }
      ],
      "name": "ants",
      "outputs": [
        {
          "internalType": "string",
          "name": "name",
          "type": "string"
        },
        {
          "internalType": "uint256",
          "name": "dna",
          "type": "uint256"
        },
        {
          "internalType": "enum AntFactory.Species",
          "name": "species",
          "type": "uint8"
        },
        {
          "internalType": "uint256",
          "name": "winCount",
          "type": "uint256"
        },
        {
          "internalType": "uint256",
          "name": "lossCount",
          "type": "uint256"
        }
      ],
      "stateMutability": "view",
      "type": "function"
    },
    {
      "inputs": [
        {
          "internalType": "string",
          "name": "_name",
          "type": "string"
        },
        {
          "internalType": "enum AntFactory.Species",
          "name": "_species",
          "type": "uint8"
        }
      ],
      "name": "buyAntByChoice",
      "outputs": [],
      "stateMutability": "nonpayable",
      "type": "function"
    },
    {
      "inputs": [
        {
          "internalType": "string",
          "name": "_name",
          "type": "string"
        }
      ],
      "name": "createRandomAnt",
      "outputs": [],
      "stateMutability": "nonpayable",
      "type": "function"
    },
    {
      "inputs": [],
      "name": "getAnts",
      "outputs": [
        {
          "components": [
            {
              "internalType": "string",
              "name": "name",
              "type": "string"
            },
            {
              "internalType": "uint256",
              "name": "dna",
              "type": "uint256"
            },
            {
              "internalType": "enum AntFactory.Species",
              "name": "species",
              "type": "uint8"
            },
            {
              "internalType": "uint256",
              "name": "winCount",
              "type": "uint256"
            },
            {
              "internalType": "uint256",
              "name": "lossCount",
              "type": "uint256"
            }
          ],
          "internalType": "struct AntFactory.Ant[]",
          "name": "",
          "type": "tuple[]"
        }
      ],
      "stateMutability": "view",
      "type": "function"
    },
    {
      "inputs": [
        {
          "internalType": "address",
          "name": "",
          "type": "address"
        }
      ],
      "name": "ownerAntCount",
      "outputs": [
        {
          "internalType": "uint256",
          "name": "",
          "type": "uint256"
        }
      ],
      "stateMutability": "view",
      "type": "function"
    },
    {
      "inputs": [],
      "name": "victoryToken",
      "outputs": [
        {
          "internalType": "contract VictoryToken",
          "name": "",
          "type": "address"
        }
      ],
      "stateMutability": "view",
      "type": "function"
    },
    {
      "inputs": [
        {
          "internalType": "address",
          "name": "_owner",
          "type": "address"
        }
      ],
      "name": "getAntsByOwner",
      "outputs": [
        {
          "internalType": "uint256[]",
          "name": "",
          "type": "uint256[]"
        }
      ],
      "stateMutability": "view",
      "type": "function"
    },
    {
      "inputs": [
        {
          "internalType": "uint256",
          "name": "_antId",
          "type": "uint256"
        },
        {
          "internalType": "uint256",
          "name": "_targetId",
          "type": "uint256"
        }
      ],
      "name": "attack",
      "outputs": [],
      "stateMutability": "nonpayable",
      "type": "function"
    }
  ],
  "bytecode": "0x60806040526010600055600054600a6200001a919062000379565b600155600360025560038055600060085560326009553480156200003d57600080fd5b50604051620027a8380380620027a8833981810160405281019062000063919062000434565b8080600460006101000a81548173ffffffffffffffffffffffffffffffffffffffff021916908373ffffffffffffffffffffffffffffffffffffffff160217905550506014600a6000806002811115620000c257620000c162000466565b5b8152602001908152602001600020600060016002811115620000e957620000e862000466565b5b8152602001908152602001600020819055506014600a60006001600281111562000118576200011762000466565b5b815260200190815260200160002060006002808111156200013e576200013d62000466565b5b8152602001908152602001600020819055506014600a60006002808111156200016c576200016b62000466565b5b8152602001908152602001600020600080600281111562000192576200019162000466565b5b81526020019081526020016000208190555080600460006101000a81548173ffffffffffffffffffffffffffffffffffffffff021916908373ffffffffffffffffffffffffffffffffffffffff1602179055505062000495565b7f4e487b7100000000000000000000000000000000000000000000000000000000600052601160045260246000fd5b60008160011c9050919050565b6000808291508390505b60018511156200027a57808604811115620002525762000251620001ec565b5b6001851615620002625780820291505b808102905062000272856200021b565b945062000232565b94509492505050565b60008262000295576001905062000368565b81620002a5576000905062000368565b8160018114620002be5760028114620002c957620002ff565b600191505062000368565b60ff841115620002de57620002dd620001ec565b5b8360020a915084821115620002f857620002f7620001ec565b5b5062000368565b5060208310610133831016604e8410600b8410161715620003395782820a905083811115620003335762000332620001ec565b5b62000368565b62000348848484600162000228565b92509050818404811115620003625762000361620001ec565b5b81810290505b9392505050565b6000819050919050565b600062000386826200036f565b915062000393836200036f565b9250620003c27fffffffffffffffffffffffffffffffffffffffffffffffffffffffffffffffff848462000283565b905092915050565b600080fd5b600073ffffffffffffffffffffffffffffffffffffffff82169050919050565b6000620003fc82620003cf565b9050919050565b6200040e81620003ef565b81146200041a57600080fd5b50565b6000815190506200042e8162000403565b92915050565b6000602082840312156200044d576200044c620003ca565b5b60006200045d848285016200041d565b91505092915050565b7f4e487b7100000000000000000000000000000000000000000000000000000000600052602160045260246000fd5b61230380620004a56000396000f3fe608060405234801561001057600080fd5b50600436106100cf5760003560e01c8063520f7c0e1161008c578063df30775411610066578063df30775414610218578063df57a6ec14610234578063e1fa763814610264578063f770031c14610280576100cf565b8063520f7c0e146101be5780635bd49b2d146101dc578063a8847d9d146101fa576100cf565b80630192e414146100d457806308e64aac146100f25780630e0fda451461010e578063109dcfe61461012a578063265f980a1461015e5780635126443b1461018e575b600080fd5b6100dc6102b0565b6040516100e991906110d5565b60405180910390f35b61010c600480360381019061010791906112a5565b6102d6565b005b6101286004803603810190610123919061133c565b6104a6565b005b610144600480360381019061013f9190611398565b610723565b6040516101559594939291906114ca565b60405180910390f35b61017860048036038101906101739190611562565b6107fe565b604051610185919061164d565b60405180910390f35b6101a860048036038101906101a39190611562565b610950565b6040516101b5919061166f565b60405180910390f35b6101c6610968565b6040516101d3919061166f565b60405180910390f35b6101e461096e565b6040516101f1919061168a565b60405180910390f35b6102026109c5565b60405161020f9190611836565b60405180910390f35b610232600480360381019061022d9190611858565b610b0f565b005b61024e60048036038101906102499190611858565b610bdc565b60405161025b919061166f565b60405180910390f35b61027e600480360381019061027991906118a1565b610c21565b005b61029a60048036038101906102959190611398565b610f8d565b6040516102a791906118f0565b60405180910390f35b600460009054906101000a900473ffffffffffffffffffffffffffffffffffffffff1681565b60056040518060a0016040528087815260200186815260200185600281111561030257610301611453565b5b8152602001848152602001838152509080600181540180825580915050600190039060005260206000209060050201600090919091909150600082015181600001908161034f9190611b0d565b506020820151816001015560408201518160020160006101000a81548160ff0219169083600281111561038557610384611453565b5b021790555060608201518160030155608082015181600401555050600060016005805490506103b49190611c0e565b9050336006600083815260200190815260200160002060006101000a81548173ffffffffffffffffffffffffffffffffffffffff021916908373ffffffffffffffffffffffffffffffffffffffff160217905550600760003373ffffffffffffffffffffffffffffffffffffffff1673ffffffffffffffffffffffffffffffffffffffff168152602001908152602001600020600081548092919061045890611c42565b91905055507f97b1514c5150294825105d3d34fda558beea8e579828e9a7d2f63b8259ff220181878787878760405161049696959493929190611c8a565b60405180910390a1505050505050565b6000600760003373ffffffffffffffffffffffffffffffffffffffff1673ffffffffffffffffffffffffffffffffffffffff1681526020019081526020016000205411610528576040517f08c379a000000000000000000000000000000000000000000000000000000000815260040161051f90611d64565b60405180910390fd5b600354600460009054906101000a900473ffffffffffffffffffffffffffffffffffffffff1673ffffffffffffffffffffffffffffffffffffffff166370a08231336040518263ffffffff1660e01b815260040161058691906118f0565b602060405180830381865afa1580156105a3573d6000803e3d6000fd5b505050506040513d601f19601f820116820180604052508101906105c79190611d99565b1015610608576040517f08c379a00000000000000000000000000000000000000000000000000000000081526004016105ff90611e12565b60405180910390fd5b600460009054906101000a900473ffffffffffffffffffffffffffffffffffffffff1673ffffffffffffffffffffffffffffffffffffffff1663a9059cbb306003546040518363ffffffff1660e01b8152600401610667929190611e32565b6020604051808303816000875af1158015610686573d6000803e3d6000fd5b505050506040513d601f19601f820116820180604052508101906106aa9190611e93565b6106e9576040517f08c379a00000000000000000000000000000000000000000000000000000000081526004016106e090611f0c565b60405180910390fd5b60006106f483610bdc565b90506064816107039190611f5b565b8161070e9190611c0e565b905061071e8382846000806102d6565b505050565b6005818154811061073357600080fd5b90600052602060002090600502016000915090508060000180546107569061193a565b80601f01602080910402602001604051908101604052809291908181526020018280546107829061193a565b80156107cf5780601f106107a4576101008083540402835291602001916107cf565b820191906000526020600020905b8154815290600101906020018083116107b257829003601f168201915b5050505050908060010154908060020160009054906101000a900460ff16908060030154908060040154905085565b60606000600760008473ffffffffffffffffffffffffffffffffffffffff1673ffffffffffffffffffffffffffffffffffffffff1681526020019081526020016000205467ffffffffffffffff81111561085b5761085a61111f565b5b6040519080825280602002602001820160405280156108895781602001602082028036833780820191505090505b5090506000805b600580549050811015610945578473ffffffffffffffffffffffffffffffffffffffff166006600083815260200190815260200160002060009054906101000a900473ffffffffffffffffffffffffffffffffffffffff1673ffffffffffffffffffffffffffffffffffffffff1603610932578083838151811061091757610916611f8c565b5b602002602001018181525050818061092e90611c42565b9250505b808061093d90611c42565b915050610890565b508192505050919050565b60076020528060005260406000206000915090505481565b60035481565b6000806002544233604051602001610987929190612024565b6040516020818303038152906040528051906020012060001c6109aa9190611f5b565b90508060028111156109bf576109be611453565b5b91505090565b60606005805480602002602001604051908101604052809291908181526020016000905b82821015610b0657838290600052602060002090600502016040518060a0016040529081600082018054610a1c9061193a565b80601f0160208091040260200160405190810160405280929190818152602001828054610a489061193a565b8015610a955780601f10610a6a57610100808354040283529160200191610a95565b820191906000526020600020905b815481529060010190602001808311610a7857829003601f168201915b50505050508152602001600182015481526020016002820160009054906101000a900460ff166002811115610acd57610acc611453565b5b6002811115610adf57610ade611453565b5b815260200160038201548152602001600482015481525050815260200190600101906109e9565b50505050905090565b6000600760003373ffffffffffffffffffffffffffffffffffffffff1673ffffffffffffffffffffffffffffffffffffffff1681526020019081526020016000205403610b9e576000610b6182610bdc565b9050606481610b709190611f5b565b81610b7b9190611c0e565b90506000610b8761096e565b9050610b978383836000806102d6565b5050610bd9565b6040517f08c379a0000000000000000000000000000000000000000000000000000000008152600401610bd0906120c2565b60405180910390fd5b50565b60008082604051602001610bf0919061211e565b6040516020818303038152906040528051906020012060001c905060015481610c199190611f5b565b915050919050565b6006600083815260200190815260200160002060009054906101000a900473ffffffffffffffffffffffffffffffffffffffff1673ffffffffffffffffffffffffffffffffffffffff163373ffffffffffffffffffffffffffffffffffffffff1614610cc2576040517f08c379a0000000000000000000000000000000000000000000000000000000008152600401610cb9906121a7565b60405180910390fd5b600060058381548110610cd857610cd7611f8c565b5b90600052602060002090600502019050600060058381548110610cfe57610cfd611f8c565b5b906000526020600020906005020190506000610d1a6064610fc0565b905060008360020160009054906101000a900460ff16905060008360020160009054906101000a900460ff1690506000600a6000846002811115610d6157610d60611453565b5b81526020019081526020016000206000836002811115610d8457610d83611453565b5b8152602001908152602001600020549050600060095490506000821115610db4578181610db191906121c7565b90505b808511610eaf57866003016000815480929190610dd090611c42565b9190505550600a8660010154610de691906121fb565b876001016000828254610df991906121c7565b92505081905550856004016000815480929190610e1590611c42565b9190505550600460009054906101000a900473ffffffffffffffffffffffffffffffffffffffff1673ffffffffffffffffffffffffffffffffffffffff16634e6ec2473360016040518363ffffffff1660e01b8152600401610e78929190612267565b600060405180830381600087803b158015610e9257600080fd5b505af1158015610ea6573d6000803e3d6000fd5b50505050610f82565b866004016000815480929190610ec490611c42565b9190505550856003016000815480929190610ede90611c42565b91905055506000610eee89611019565b9050600460009054906101000a900473ffffffffffffffffffffffffffffffffffffffff1673ffffffffffffffffffffffffffffffffffffffff16634e6ec2478260016040518363ffffffff1660e01b8152600401610f4e929190612267565b600060405180830381600087803b158015610f6857600080fd5b505af1158015610f7c573d6000803e3d6000fd5b50505050505b505050505050505050565b60066020528060005260406000206000915054906101000a900473ffffffffffffffffffffffffffffffffffffffff1681565b60006001600854610fd191906121c7565b600881905550814233600854604051602001610fef93929190612290565b6040516020818303038152906040528051906020012060001c6110129190611f5b565b9050919050565b60006006600083815260200190815260200160002060009054906101000a900473ffffffffffffffffffffffffffffffffffffffff169050919050565b600073ffffffffffffffffffffffffffffffffffffffff82169050919050565b6000819050919050565b600061109b61109661109184611056565b611076565b611056565b9050919050565b60006110ad82611080565b9050919050565b60006110bf826110a2565b9050919050565b6110cf816110b4565b82525050565b60006020820190506110ea60008301846110c6565b92915050565b6000604051905090565b600080fd5b600080fd5b600080fd5b600080fd5b6000601f19601f8301169050919050565b7f4e487b7100000000000000000000000000000000000000000000000000000000600052604160045260246000fd5b6111578261110e565b810181811067ffffffffffffffff821117156111765761117561111f565b5b80604052505050565b60006111896110f0565b9050611195828261114e565b919050565b600067ffffffffffffffff8211156111b5576111b461111f565b5b6111be8261110e565b9050602081019050919050565b82818337600083830152505050565b60006111ed6111e88461119a565b61117f565b90508281526020810184848401111561120957611208611109565b5b6112148482856111cb565b509392505050565b600082601f83011261123157611230611104565b5b81356112418482602086016111da565b91505092915050565b6000819050919050565b61125d8161124a565b811461126857600080fd5b50565b60008135905061127a81611254565b92915050565b6003811061128d57600080fd5b50565b60008135905061129f81611280565b92915050565b600080600080600060a086880312156112c1576112c06110fa565b5b600086013567ffffffffffffffff8111156112df576112de6110ff565b5b6112eb8882890161121c565b95505060206112fc8882890161126b565b945050604061130d88828901611290565b935050606061131e8882890161126b565b925050608061132f8882890161126b565b9150509295509295909350565b60008060408385031215611353576113526110fa565b5b600083013567ffffffffffffffff811115611371576113706110ff565b5b61137d8582860161121c565b925050602061138e85828601611290565b9150509250929050565b6000602082840312156113ae576113ad6110fa565b5b60006113bc8482850161126b565b91505092915050565b600081519050919050565b600082825260208201905092915050565b60005b838110156113ff5780820151818401526020810190506113e4565b60008484015250505050565b6000611416826113c5565b61142081856113d0565b93506114308185602086016113e1565b6114398161110e565b840191505092915050565b61144d8161124a565b82525050565b7f4e487b7100000000000000000000000000000000000000000000000000000000600052602160045260246000fd5b6003811061149357611492611453565b5b50565b60008190506114a482611482565b919050565b60006114b482611496565b9050919050565b6114c4816114a9565b82525050565b600060a08201905081810360008301526114e4818861140b565b90506114f36020830187611444565b61150060408301866114bb565b61150d6060830185611444565b61151a6080830184611444565b9695505050505050565b600061152f82611056565b9050919050565b61153f81611524565b811461154a57600080fd5b50565b60008135905061155c81611536565b92915050565b600060208284031215611578576115776110fa565b5b60006115868482850161154d565b91505092915050565b600081519050919050565b600082825260208201905092915050565b6000819050602082019050919050565b6115c48161124a565b82525050565b60006115d683836115bb565b60208301905092915050565b6000602082019050919050565b60006115fa8261158f565b611604818561159a565b935061160f836115ab565b8060005b8381101561164057815161162788826115ca565b9750611632836115e2565b925050600181019050611613565b5085935050505092915050565b6000602082019050818103600083015261166781846115ef565b905092915050565b60006020820190506116846000830184611444565b92915050565b600060208201905061169f60008301846114bb565b92915050565b600081519050919050565b600082825260208201905092915050565b6000819050602082019050919050565b600082825260208201905092915050565b60006116ed826113c5565b6116f781856116d1565b93506117078185602086016113e1565b6117108161110e565b840191505092915050565b611724816114a9565b82525050565b600060a083016000830151848203600086015261174782826116e2565b915050602083015161175c60208601826115bb565b50604083015161176f604086018261171b565b50606083015161178260608601826115bb565b50608083015161179560808601826115bb565b508091505092915050565b60006117ac838361172a565b905092915050565b6000602082019050919050565b60006117cc826116a5565b6117d681856116b0565b9350836020820285016117e8856116c1565b8060005b85811015611824578484038952815161180585826117a0565b9450611810836117b4565b925060208a019950506001810190506117ec565b50829750879550505050505092915050565b6000602082019050818103600083015261185081846117c1565b905092915050565b60006020828403121561186e5761186d6110fa565b5b600082013567ffffffffffffffff81111561188c5761188b6110ff565b5b6118988482850161121c565b91505092915050565b600080604083850312156118b8576118b76110fa565b5b60006118c68582860161126b565b92505060206118d78582860161126b565b9150509250929050565b6118ea81611524565b82525050565b600060208201905061190560008301846118e1565b92915050565b7f4e487b7100000000000000000000000000000000000000000000000000000000600052602260045260246000fd5b6000600282049050600182168061195257607f821691505b6020821081036119655761196461190b565b5b50919050565b60008190508160005260206000209050919050565b60006020601f8301049050919050565b600082821b905092915050565b6000600883026119cd7fffffffffffffffffffffffffffffffffffffffffffffffffffffffffffffffff82611990565b6119d78683611990565b95508019841693508086168417925050509392505050565b6000611a0a611a05611a008461124a565b611076565b61124a565b9050919050565b6000819050919050565b611a24836119ef565b611a38611a3082611a11565b84845461199d565b825550505050565b600090565b611a4d611a40565b611a58818484611a1b565b505050565b5b81811015611a7c57611a71600082611a45565b600181019050611a5e565b5050565b601f821115611ac157611a928161196b565b611a9b84611980565b81016020851015611aaa578190505b611abe611ab685611980565b830182611a5d565b50505b505050565b600082821c905092915050565b6000611ae460001984600802611ac6565b1980831691505092915050565b6000611afd8383611ad3565b9150826002028217905092915050565b611b16826113c5565b67ffffffffffffffff811115611b2f57611b2e61111f565b5b611b39825461193a565b611b44828285611a80565b600060209050601f831160018114611b775760008415611b65578287015190505b611b6f8582611af1565b865550611bd7565b601f198416611b858661196b565b60005b82811015611bad57848901518255600182019150602085019450602081019050611b88565b86831015611bca5784890151611bc6601f891682611ad3565b8355505b6001600288020188555050505b505050505050565b7f4e487b7100000000000000000000000000000000000000000000000000000000600052601160045260246000fd5b6000611c198261124a565b9150611c248361124a565b9250828203905081811115611c3c57611c3b611bdf565b5b92915050565b6000611c4d8261124a565b91507fffffffffffffffffffffffffffffffffffffffffffffffffffffffffffffffff8203611c7f57611c7e611bdf565b5b600182019050919050565b600060c082019050611c9f6000830189611444565b8181036020830152611cb1818861140b565b9050611cc06040830187611444565b611ccd60608301866114bb565b611cda6080830185611444565b611ce760a0830184611444565b979650505050505050565b7f596f75206d757374206f776e206174206c65617374206f6e6520616e7420746f60008201527f20627579206d6f72652e00000000000000000000000000000000000000000000602082015250565b6000611d4e602a836113d0565b9150611d5982611cf2565b604082019050919050565b60006020820190508181036000830152611d7d81611d41565b9050919050565b600081519050611d9381611254565b92915050565b600060208284031215611daf57611dae6110fa565b5b6000611dbd84828501611d84565b91505092915050565b7f496e73756666696369656e7420566963746f7279546f6b656e732e0000000000600082015250565b6000611dfc601b836113d0565b9150611e0782611dc6565b602082019050919050565b60006020820190508181036000830152611e2b81611def565b9050919050565b6000604082019050611e4760008301856118e1565b611e546020830184611444565b9392505050565b60008115159050919050565b611e7081611e5b565b8114611e7b57600080fd5b50565b600081519050611e8d81611e67565b92915050565b600060208284031215611ea957611ea86110fa565b5b6000611eb784828501611e7e565b91505092915050565b7f546f6b656e207472616e73666572206661696c65642e00000000000000000000600082015250565b6000611ef66016836113d0565b9150611f0182611ec0565b602082019050919050565b60006020820190508181036000830152611f2581611ee9565b9050919050565b7f4e487b7100000000000000000000000000000000000000000000000000000000600052601260045260246000fd5b6000611f668261124a565b9150611f718361124a565b925082611f8157611f80611f2c565b5b828206905092915050565b7f4e487b7100000000000000000000000000000000000000000000000000000000600052603260045260246000fd5b6000819050919050565b611fd6611fd18261124a565b611fbb565b82525050565b60008160601b9050919050565b6000611ff482611fdc565b9050919050565b600061200682611fe9565b9050919050565b61201e61201982611524565b611ffb565b82525050565b60006120308285611fc5565b602082019150612040828461200d565b6014820191508190509392505050565b7f596f7520616c7265616479206f776e20616e20616e742e20557365206275794160008201527f6e74427943686f69636520746f20627579206d6f72652e000000000000000000602082015250565b60006120ac6037836113d0565b91506120b782612050565b604082019050919050565b600060208201905081810360008301526120db8161209f565b9050919050565b600081905092915050565b60006120f8826113c5565b61210281856120e2565b93506121128185602086016113e1565b80840191505092915050565b600061212a82846120ed565b915081905092915050565b7f596f752063616e206f6e6c792061747461636b207769746820796f7572206f7760008201527f6e20616e74000000000000000000000000000000000000000000000000000000602082015250565b60006121916025836113d0565b915061219c82612135565b604082019050919050565b600060208201905081810360008301526121c081612184565b9050919050565b60006121d28261124a565b91506121dd8361124a565b92508282019050808211156121f5576121f4611bdf565b5b92915050565b60006122068261124a565b91506122118361124a565b92508261222157612220611f2c565b5b828204905092915050565b6000819050919050565b600061225161224c6122478461222c565b611076565b61124a565b9050919050565b61226181612236565b82525050565b600060408201905061227c60008301856118e1565b6122896020830184612258565b9392505050565b600061229c8286611fc5565b6020820191506122ac828561200d565b6014820191506122bc8284611fc5565b60208201915081905094935050505056fea2646970667358221220cc9ece4ea072a0f9ba609f54b9f0c73f7340b3ee06f14973872ac5754ab541f664736f6c63430008110033",
  "immutableReferences": {},
  "source": "pragma solidity ^0.8.0;\r\n\r\nimport \"./antfactory.sol\";\r\nimport \"./victoryToken.sol\";\r\n\r\ncontract AntBattle is AntFactory {\r\n    constructor(address _victoryTokenAddress) AntFactory(_victoryTokenAddress) {\r\n        // Initialize species advantages (you can adjust these values as needed)\r\n        speciesAdvantages[uint(Species.FireAnt)][uint(Species.BlackCrazyAnt)] = 20; // FireAnt has a 20% advantage against BlackCrazyAnt\r\n        speciesAdvantages[uint(Species.BlackCrazyAnt)][uint(Species.CarpenterAnt)] = 20; // BlackCrazyAnt has a 20% advantage against CarpenterAnt\r\n        speciesAdvantages[uint(Species.CarpenterAnt)][uint(Species.FireAnt)] = 20; // CarpenterAnt has a 20% advantage against FireAnt \r\n        victoryToken = VictoryToken(_victoryTokenAddress); // Corrected assignment\r\n    }\r\n\r\n    uint randNonce = 0;\r\n    uint attackVictoryProbability = 50;\r\n\r\n    // Define species advantages (if SpeciesA attacks SpeciesB, etc.)\r\n    mapping(uint => mapping(uint => uint)) speciesAdvantages;\r\n\r\n    // constructor(address _victoryTokenAddress) {\r\n    //     // Initialize species advantages (you can adjust these values as needed)\r\n    //     speciesAdvantages[uint(Species.FireAnt)][uint(Species.BlackCrazyAnt)] = 20; // FireAnt has a 20% advantage against BlackCrazyAnt\r\n    //     speciesAdvantages[uint(Species.BlackCrazyAnt)][uint(Species.CarpenterAnt)] = 20; // BlackCrazyAnt has a 20% advantage against CarpenterAnt\r\n    //     speciesAdvantages[uint(Species.CarpenterAnt)][uint(Species.FireAnt)] = 20; // CarpenterAnt has a 20% advantage against FireAnt \r\n    //     victoryToken = VictoryToken(_victoryTokenAddress); // Corrected assignment\r\n    // }\r\n\r\n    function randMod(uint _modulus) internal returns(uint) {\r\n        randNonce = randNonce + 1;\r\n        return uint(keccak256(abi.encodePacked(block.timestamp, msg.sender, randNonce))) % _modulus;\r\n    }\r\n\r\n    function getAntOwner(uint _antId) internal view returns (address) {\r\n        return antToOwner[_antId];\r\n    }\r\n\r\n    function getAntsByOwner(address _owner) external view returns(uint[] memory) {\r\n        uint[] memory result = new uint[](ownerAntCount[_owner]);\r\n        uint counter = 0;\r\n        for (uint i = 0; i < ants.length; i++) {\r\n            if (antToOwner[i] == _owner) {\r\n                result[counter] = i;\r\n                counter++;\r\n            }\r\n        }\r\n        return result;\r\n    }\r\n\r\n    function attack(uint _antId, uint _targetId) external {\r\n        require(msg.sender == antToOwner[_antId], \"You can only attack with your own ant\");\r\n\r\n        Ant storage myAnt = ants[_antId];\r\n        Ant storage enemyAnt = ants[_targetId];\r\n\r\n        uint rand = randMod(100);\r\n\r\n        Species myAntSpecies = myAnt.species;\r\n        Species enemyAntSpecies = enemyAnt.species;\r\n\r\n        // uint speciesAdvantage = speciesAdvantages[myAntSpecies][enemyAntSpecies];\r\n        uint speciesAdvantage = speciesAdvantages[uint(myAntSpecies)][uint(enemyAntSpecies)];\r\n\r\n        // Calculate final attack probability\r\n        uint finalAttackProbability = attackVictoryProbability;\r\n        \r\n        if (speciesAdvantage > 0) {\r\n            finalAttackProbability += uint(speciesAdvantage); // Apply species advantage directly\r\n        }\r\n\r\n        if (rand <= finalAttackProbability) {\r\n            myAnt.winCount++;\r\n            myAnt.dna += enemyAnt.dna / 10; // You can modify this logic as needed\r\n            enemyAnt.lossCount++;\r\n\r\n            //give victory tokens to the winner \r\n            victoryToken._mint(msg.sender, 1);\r\n        } else {\r\n            myAnt.lossCount++;\r\n            enemyAnt.winCount++;\r\n\r\n            //give victory tokens to the winner\r\n            address enemyAntOwner = getAntOwner(_targetId); // Corrected usage\r\n            victoryToken._mint(enemyAntOwner, 1);\r\n        }\r\n    }\r\n}",
  "sourcePath": "C:\\Users\\brand\\Desktop\\erasmus\\blockchain\\blockchain_home_assignment\\contracts\\antbattle.sol",
  "compiler": {
    "name": "solc",
    "version": "0.8.17+commit.8df45f5f.Emscripten.clang"
  },
  "schemaVersion": "3.4.16",
  "updatedAt": "2024-06-07T09:24:52.683Z",
  "devdoc": {
    "kind": "dev",
    "methods": {},
    "version": 1
  },
  "userdoc": {
    "kind": "user",
    "methods": {},
    "version": 1
  }
}