{
  "contractName": "AntFactory",
  "abi": [
    {
      "anonymous": false,
      "inputs": [
        {
          "indexed": false,
          "internalType": "uint256",
          "name": "antId",
          "type": "uint256"
        },
        {
          "indexed": false,
          "internalType": "string",
          "name": "name",
          "type": "string"
        },
        {
          "indexed": false,
          "internalType": "uint256",
          "name": "dna",
          "type": "uint256"
        },
        {
          "indexed": false,
          "internalType": "enum AntFactory.Species",
          "name": "species",
          "type": "uint8"
        },
        {
          "indexed": false,
          "internalType": "uint256",
          "name": "winCount",
          "type": "uint256"
        },
        {
          "indexed": false,
          "internalType": "uint256",
          "name": "lossCount",
          "type": "uint256"
        }
      ],
      "name": "NewAnt",
      "type": "event"
    },
    {
      "inputs": [
        {
          "internalType": "uint256",
          "name": "",
          "type": "uint256"
        }
      ],
      "name": "antToOwner",
      "outputs": [
        {
          "internalType": "address",
          "name": "",
          "type": "address"
        }
      ],
      "stateMutability": "view",
      "type": "function"
    },
    {
      "inputs": [
        {
          "internalType": "uint256",
          "name": "",
          "type": "uint256"
        }
      ],
      "name": "ants",
      "outputs": [
        {
          "internalType": "string",
          "name": "name",
          "type": "string"
        },
        {
          "internalType": "uint256",
          "name": "dna",
          "type": "uint256"
        },
        {
          "internalType": "enum AntFactory.Species",
          "name": "species",
          "type": "uint8"
        },
        {
          "internalType": "uint256",
          "name": "winCount",
          "type": "uint256"
        },
        {
          "internalType": "uint256",
          "name": "lossCount",
          "type": "uint256"
        }
      ],
      "stateMutability": "view",
      "type": "function"
    },
    {
      "inputs": [
        {
          "internalType": "string",
          "name": "_name",
          "type": "string"
        },
        {
          "internalType": "uint256",
          "name": "_dna",
          "type": "uint256"
        },
        {
          "internalType": "enum AntFactory.Species",
          "name": "_species",
          "type": "uint8"
        },
        {
          "internalType": "uint256",
          "name": "_winCount",
          "type": "uint256"
        },
        {
          "internalType": "uint256",
          "name": "_lossCount",
          "type": "uint256"
        }
      ],
      "name": "_createAnt",
      "outputs": [],
      "stateMutability": "nonpayable",
      "type": "function"
    },
    {
      "inputs": [
        {
          "internalType": "string",
          "name": "_str",
          "type": "string"
        }
      ],
      "name": "_generateRandomDna",
      "outputs": [
        {
          "internalType": "uint256",
          "name": "",
          "type": "uint256"
        }
      ],
      "stateMutability": "view",
      "type": "function"
    },
    {
      "inputs": [],
      "name": "_generateRandomSpecies",
      "outputs": [
        {
          "internalType": "enum AntFactory.Species",
          "name": "",
          "type": "uint8"
        }
      ],
      "stateMutability": "view",
      "type": "function"
    },
    {
      "inputs": [
        {
          "internalType": "string",
          "name": "_name",
          "type": "string"
        }
      ],
      "name": "createRandomAnt",
      "outputs": [],
      "stateMutability": "nonpayable",
      "type": "function"
    }
  ],
  "bytecode": "0x608060405260105f555f54600a620000189190620001b9565b60015560036002553480156200002c575f80fd5b5062000209565b7f4e487b71000000000000000000000000000000000000000000000000000000005f52601160045260245ffd5b5f8160011c9050919050565b5f808291508390505b6001851115620000bd5780860481111562000095576200009462000033565b5b6001851615620000a55780820291505b8081029050620000b58562000060565b945062000075565b94509492505050565b5f82620000d75760019050620001a9565b81620000e6575f9050620001a9565b8160018114620000ff57600281146200010a5762000140565b6001915050620001a9565b60ff8411156200011f576200011e62000033565b5b8360020a91508482111562000139576200013862000033565b5b50620001a9565b5060208310610133831016604e8410600b84101617156200017a5782820a90508381111562000174576200017362000033565b5b620001a9565b6200018984848460016200006c565b92509050818404811115620001a357620001a262000033565b5b81810290505b9392505050565b5f819050919050565b5f620001c582620001b0565b9150620001d283620001b0565b9250620002017fffffffffffffffffffffffffffffffffffffffffffffffffffffffffffffffff8484620000c6565b905092915050565b610fcb80620002175f395ff3fe608060405234801561000f575f80fd5b5060043610610060575f3560e01c806308e64aac14610064578063109dcfe6146100805780635bd49b2d146100b4578063df307754146100d2578063df57a6ec146100ee578063f770031c1461011e575b5f80fd5b61007e60048036038101906100799190610711565b61014e565b005b61009a600480360381019061009591906107a4565b610311565b6040516100ab9594939291906108cb565b60405180910390f35b6100bc6103e4565b6040516100c99190610923565b60405180910390f35b6100ec60048036038101906100e7919061093c565b610439565b005b6101086004803603810190610103919061093c565b6104fb565b6040516101159190610983565b60405180910390f35b610138600480360381019061013391906107a4565b61053e565b60405161014591906109db565b60405180910390f35b60036040518060a0016040528087815260200186815260200185600281111561017a57610179610858565b5b815260200184815260200183815250908060018154018082558091505060019003905f5260205f2090600502015f909190919091505f820151815f0190816101c29190610bee565b50602082015181600101556040820151816002015f6101000a81548160ff021916908360028111156101f7576101f6610858565b5b0217905550606082015181600301556080820151816004015550505f60016003805490506102259190610cea565b90503360045f8381526020019081526020015f205f6101000a81548173ffffffffffffffffffffffffffffffffffffffff021916908373ffffffffffffffffffffffffffffffffffffffff16021790555060055f3373ffffffffffffffffffffffffffffffffffffffff1673ffffffffffffffffffffffffffffffffffffffff1681526020019081526020015f205f8154809291906102c390610d1d565b91905055507f97b1514c5150294825105d3d34fda558beea8e579828e9a7d2f63b8259ff220181878787878760405161030196959493929190610d64565b60405180910390a1505050505050565b60038181548110610320575f80fd5b905f5260205f2090600502015f91509050805f01805461033f90610a21565b80601f016020809104026020016040519081016040528092919081815260200182805461036b90610a21565b80156103b65780601f1061038d576101008083540402835291602001916103b6565b820191905f5260205f20905b81548152906001019060200180831161039957829003601f168201915b505050505090806001015490806002015f9054906101000a900460ff16908060030154908060040154905085565b5f8060025442336040516020016103fc929190610e2f565b604051602081830303815290604052805190602001205f1c61041e9190610e87565b905080600281111561043357610432610858565b5b91505090565b5f60055f3373ffffffffffffffffffffffffffffffffffffffff1673ffffffffffffffffffffffffffffffffffffffff1681526020019081526020015f2054146104b8576040517f08c379a00000000000000000000000000000000000000000000000000000000081526004016104af90610f27565b60405180910390fd5b5f6104c2826104fb565b90506064816104d19190610e87565b816104dc9190610cea565b90505f6104e76103e4565b90506104f68383835f8061014e565b505050565b5f808260405160200161050e9190610f7f565b604051602081830303815290604052805190602001205f1c9050600154816105369190610e87565b915050919050565b6004602052805f5260405f205f915054906101000a900473ffffffffffffffffffffffffffffffffffffffff1681565b5f604051905090565b5f80fd5b5f80fd5b5f80fd5b5f80fd5b5f601f19601f8301169050919050565b7f4e487b71000000000000000000000000000000000000000000000000000000005f52604160045260245ffd5b6105cd82610587565b810181811067ffffffffffffffff821117156105ec576105eb610597565b5b80604052505050565b5f6105fe61056e565b905061060a82826105c4565b919050565b5f67ffffffffffffffff82111561062957610628610597565b5b61063282610587565b9050602081019050919050565b828183375f83830152505050565b5f61065f61065a8461060f565b6105f5565b90508281526020810184848401111561067b5761067a610583565b5b61068684828561063f565b509392505050565b5f82601f8301126106a2576106a161057f565b5b81356106b284826020860161064d565b91505092915050565b5f819050919050565b6106cd816106bb565b81146106d7575f80fd5b50565b5f813590506106e8816106c4565b92915050565b600381106106fa575f80fd5b50565b5f8135905061070b816106ee565b92915050565b5f805f805f60a0868803121561072a57610729610577565b5b5f86013567ffffffffffffffff8111156107475761074661057b565b5b6107538882890161068e565b9550506020610764888289016106da565b9450506040610775888289016106fd565b9350506060610786888289016106da565b9250506080610797888289016106da565b9150509295509295909350565b5f602082840312156107b9576107b8610577565b5b5f6107c6848285016106da565b91505092915050565b5f81519050919050565b5f82825260208201905092915050565b5f5b838110156108065780820151818401526020810190506107eb565b5f8484015250505050565b5f61081b826107cf565b61082581856107d9565b93506108358185602086016107e9565b61083e81610587565b840191505092915050565b610852816106bb565b82525050565b7f4e487b71000000000000000000000000000000000000000000000000000000005f52602160045260245ffd5b6003811061089657610895610858565b5b50565b5f8190506108a682610885565b919050565b5f6108b582610899565b9050919050565b6108c5816108ab565b82525050565b5f60a0820190508181035f8301526108e38188610811565b90506108f26020830187610849565b6108ff60408301866108bc565b61090c6060830185610849565b6109196080830184610849565b9695505050505050565b5f6020820190506109365f8301846108bc565b92915050565b5f6020828403121561095157610950610577565b5b5f82013567ffffffffffffffff81111561096e5761096d61057b565b5b61097a8482850161068e565b91505092915050565b5f6020820190506109965f830184610849565b92915050565b5f73ffffffffffffffffffffffffffffffffffffffff82169050919050565b5f6109c58261099c565b9050919050565b6109d5816109bb565b82525050565b5f6020820190506109ee5f8301846109cc565b92915050565b7f4e487b71000000000000000000000000000000000000000000000000000000005f52602260045260245ffd5b5f6002820490506001821680610a3857607f821691505b602082108103610a4b57610a4a6109f4565b5b50919050565b5f819050815f5260205f209050919050565b5f6020601f8301049050919050565b5f82821b905092915050565b5f60088302610aad7fffffffffffffffffffffffffffffffffffffffffffffffffffffffffffffffff82610a72565b610ab78683610a72565b95508019841693508086168417925050509392505050565b5f819050919050565b5f610af2610aed610ae8846106bb565b610acf565b6106bb565b9050919050565b5f819050919050565b610b0b83610ad8565b610b1f610b1782610af9565b848454610a7e565b825550505050565b5f90565b610b33610b27565b610b3e818484610b02565b505050565b5b81811015610b6157610b565f82610b2b565b600181019050610b44565b5050565b601f821115610ba657610b7781610a51565b610b8084610a63565b81016020851015610b8f578190505b610ba3610b9b85610a63565b830182610b43565b50505b505050565b5f82821c905092915050565b5f610bc65f1984600802610bab565b1980831691505092915050565b5f610bde8383610bb7565b9150826002028217905092915050565b610bf7826107cf565b67ffffffffffffffff811115610c1057610c0f610597565b5b610c1a8254610a21565b610c25828285610b65565b5f60209050601f831160018114610c56575f8415610c44578287015190505b610c4e8582610bd3565b865550610cb5565b601f198416610c6486610a51565b5f5b82811015610c8b57848901518255600182019150602085019450602081019050610c66565b86831015610ca85784890151610ca4601f891682610bb7565b8355505b6001600288020188555050505b505050505050565b7f4e487b71000000000000000000000000000000000000000000000000000000005f52601160045260245ffd5b5f610cf4826106bb565b9150610cff836106bb565b9250828203905081811115610d1757610d16610cbd565b5b92915050565b5f610d27826106bb565b91507fffffffffffffffffffffffffffffffffffffffffffffffffffffffffffffffff8203610d5957610d58610cbd565b5b600182019050919050565b5f60c082019050610d775f830189610849565b8181036020830152610d898188610811565b9050610d986040830187610849565b610da560608301866108bc565b610db26080830185610849565b610dbf60a0830184610849565b979650505050505050565b5f819050919050565b610de4610ddf826106bb565b610dca565b82525050565b5f8160601b9050919050565b5f610e0082610dea565b9050919050565b5f610e1182610df6565b9050919050565b610e29610e24826109bb565b610e07565b82525050565b5f610e3a8285610dd3565b602082019150610e4a8284610e18565b6014820191508190509392505050565b7f4e487b71000000000000000000000000000000000000000000000000000000005f52601260045260245ffd5b5f610e91826106bb565b9150610e9c836106bb565b925082610eac57610eab610e5a565b5b828206905092915050565b7f4561636820616464726573732063616e206f6e6c79206f776e206f6e6520616e5f8201527f7400000000000000000000000000000000000000000000000000000000000000602082015250565b5f610f116021836107d9565b9150610f1c82610eb7565b604082019050919050565b5f6020820190508181035f830152610f3e81610f05565b9050919050565b5f81905092915050565b5f610f59826107cf565b610f638185610f45565b9350610f738185602086016107e9565b80840191505092915050565b5f610f8a8284610f4f565b91508190509291505056fea26469706673582212202b4544247811dfba63402bbdc5eecce6145c0843567691cb1bee607bb7fa301f64736f6c63430008150033",
  "immutableReferences": {},
  "source": "// SPDX-License-Identifier: MIT\r\npragma solidity ^0.8.0;\r\n\r\ncontract AntFactory {\r\n    event NewAnt(uint antId, string name, uint dna, Species species, uint winCount, uint lossCount);\r\n\r\n    uint dnaDigits = 16;\r\n    uint dnaModulus = 10 ** dnaDigits;\r\n    uint speciesModulus = 3;\r\n\r\n    enum Species { FireAnt, BlackCrazyAnt, CarpenterAnt }\r\n\r\n    struct Ant {\r\n        string name;\r\n        uint dna;\r\n        Species species;\r\n        uint winCount;\r\n        uint lossCount;\r\n    }\r\n\r\n    Ant[] public ants;\r\n\r\n    mapping (uint => address) public antToOwner;\r\n    mapping (address => uint) ownerAntCount;\r\n\r\n    function _createAnt(string memory _name, uint _dna, Species _species, uint _winCount, uint _lossCount) public {\r\n        ants.push(Ant(_name, _dna, _species, _winCount, _lossCount));\r\n        uint id = ants.length - 1;\r\n        antToOwner[id] = msg.sender;\r\n        ownerAntCount[msg.sender]++;\r\n        emit NewAnt(id, _name, _dna, _species, _winCount, _lossCount);\r\n    }\r\n\r\n    function _generateRandomDna(string memory _str) public view returns (uint) {\r\n        uint rand = uint(keccak256(abi.encodePacked(_str)));\r\n        return rand % dnaModulus;\r\n    }\r\n\r\n    function _generateRandomSpecies() public view returns (Species) {\r\n        uint randSpecies = uint(keccak256(abi.encodePacked(block.timestamp, msg.sender))) % speciesModulus;\r\n        return Species(randSpecies);\r\n    }\r\n\r\n    function createRandomAnt(string memory _name) public {\r\n        require(ownerAntCount[msg.sender] == 0, \"Each address can only own one ant\");\r\n        uint randDna = _generateRandomDna(_name);\r\n        randDna = randDna - randDna % 100;\r\n        Species randSpecies = _generateRandomSpecies();\r\n        _createAnt(_name, randDna, randSpecies, 0, 0);\r\n    }\r\n}\r\n",
  "sourcePath": "C:\\Users\\brand\\Desktop\\erasmus\\blockchain\\blockchain_home_assignment\\contracts\\antfactory.sol",
  "compiler": {
    "name": "solc",
    "version": "0.8.21+commit.d9974bed.Emscripten.clang"
  },
  "schemaVersion": "3.4.16",
  "updatedAt": "2024-05-27T17:15:49.093Z",
  "devdoc": {
    "kind": "dev",
    "methods": {},
    "version": 1
  },
  "userdoc": {
    "kind": "user",
    "methods": {},
    "version": 1
  }
}