{
  "contractName": "AntFactory",
  "abi": [
    {
      "inputs": [
        {
          "internalType": "address",
          "name": "_victoryTokenAddress",
          "type": "address"
        }
      ],
      "stateMutability": "nonpayable",
      "type": "constructor"
    },
    {
      "anonymous": false,
      "inputs": [
        {
          "indexed": false,
          "internalType": "uint256",
          "name": "antId",
          "type": "uint256"
        },
        {
          "indexed": false,
          "internalType": "string",
          "name": "name",
          "type": "string"
        },
        {
          "indexed": false,
          "internalType": "uint256",
          "name": "dna",
          "type": "uint256"
        },
        {
          "indexed": false,
          "internalType": "enum AntFactory.Species",
          "name": "species",
          "type": "uint8"
        },
        {
          "indexed": false,
          "internalType": "uint256",
          "name": "winCount",
          "type": "uint256"
        },
        {
          "indexed": false,
          "internalType": "uint256",
          "name": "lossCount",
          "type": "uint256"
        }
      ],
      "name": "NewAnt",
      "type": "event"
    },
    {
      "inputs": [],
      "name": "antPrice",
      "outputs": [
        {
          "internalType": "uint256",
          "name": "",
          "type": "uint256"
        }
      ],
      "stateMutability": "view",
      "type": "function",
      "constant": true
    },
    {
      "inputs": [
        {
          "internalType": "uint256",
          "name": "",
          "type": "uint256"
        }
      ],
      "name": "antToOwner",
      "outputs": [
        {
          "internalType": "address",
          "name": "",
          "type": "address"
        }
      ],
      "stateMutability": "view",
      "type": "function",
      "constant": true
    },
    {
      "inputs": [
        {
          "internalType": "uint256",
          "name": "",
          "type": "uint256"
        }
      ],
      "name": "ants",
      "outputs": [
        {
          "internalType": "string",
          "name": "name",
          "type": "string"
        },
        {
          "internalType": "uint256",
          "name": "dna",
          "type": "uint256"
        },
        {
          "internalType": "enum AntFactory.Species",
          "name": "species",
          "type": "uint8"
        },
        {
          "internalType": "uint256",
          "name": "winCount",
          "type": "uint256"
        },
        {
          "internalType": "uint256",
          "name": "lossCount",
          "type": "uint256"
        }
      ],
      "stateMutability": "view",
      "type": "function",
      "constant": true
    },
    {
      "inputs": [
        {
          "internalType": "uint256",
          "name": "",
          "type": "uint256"
        }
      ],
      "name": "dnaToId",
      "outputs": [
        {
          "internalType": "uint256",
          "name": "",
          "type": "uint256"
        }
      ],
      "stateMutability": "view",
      "type": "function",
      "constant": true
    },
    {
      "inputs": [
        {
          "internalType": "address",
          "name": "",
          "type": "address"
        }
      ],
      "name": "ownerAntCount",
      "outputs": [
        {
          "internalType": "uint256",
          "name": "",
          "type": "uint256"
        }
      ],
      "stateMutability": "view",
      "type": "function",
      "constant": true
    },
    {
      "inputs": [],
      "name": "victoryToken",
      "outputs": [
        {
          "internalType": "contract VictoryToken",
          "name": "",
          "type": "address"
        }
      ],
      "stateMutability": "view",
      "type": "function",
      "constant": true
    },
    {
      "inputs": [],
      "name": "getAnts",
      "outputs": [
        {
          "components": [
            {
              "internalType": "string",
              "name": "name",
              "type": "string"
            },
            {
              "internalType": "uint256",
              "name": "dna",
              "type": "uint256"
            },
            {
              "internalType": "enum AntFactory.Species",
              "name": "species",
              "type": "uint8"
            },
            {
              "internalType": "uint256",
              "name": "winCount",
              "type": "uint256"
            },
            {
              "internalType": "uint256",
              "name": "lossCount",
              "type": "uint256"
            }
          ],
          "internalType": "struct AntFactory.Ant[]",
          "name": "",
          "type": "tuple[]"
        }
      ],
      "stateMutability": "view",
      "type": "function",
      "constant": true
    },
    {
      "inputs": [
        {
          "internalType": "string",
          "name": "_name",
          "type": "string"
        },
        {
          "internalType": "uint256",
          "name": "_dna",
          "type": "uint256"
        },
        {
          "internalType": "enum AntFactory.Species",
          "name": "_species",
          "type": "uint8"
        },
        {
          "internalType": "uint256",
          "name": "_winCount",
          "type": "uint256"
        },
        {
          "internalType": "uint256",
          "name": "_lossCount",
          "type": "uint256"
        }
      ],
      "name": "_createAnt",
      "outputs": [],
      "stateMutability": "nonpayable",
      "type": "function"
    },
    {
      "inputs": [
        {
          "internalType": "string",
          "name": "_str",
          "type": "string"
        }
      ],
      "name": "_generateRandomDna",
      "outputs": [
        {
          "internalType": "uint256",
          "name": "",
          "type": "uint256"
        }
      ],
      "stateMutability": "view",
      "type": "function",
      "constant": true
    },
    {
      "inputs": [],
      "name": "_generateRandomSpecies",
      "outputs": [
        {
          "internalType": "enum AntFactory.Species",
          "name": "",
          "type": "uint8"
        }
      ],
      "stateMutability": "view",
      "type": "function",
      "constant": true
    },
    {
      "inputs": [
        {
          "internalType": "string",
          "name": "_name",
          "type": "string"
        }
      ],
      "name": "createRandomAnt",
      "outputs": [],
      "stateMutability": "nonpayable",
      "type": "function"
    },
    {
      "inputs": [
        {
          "internalType": "uint256",
          "name": "_dna",
          "type": "uint256"
        }
      ],
      "name": "getAntId",
      "outputs": [
        {
          "internalType": "uint256",
          "name": "",
          "type": "uint256"
        }
      ],
      "stateMutability": "view",
      "type": "function",
      "constant": true
    },
    {
      "inputs": [
        {
          "internalType": "string",
          "name": "_name",
          "type": "string"
        },
        {
          "internalType": "enum AntFactory.Species",
          "name": "_species",
          "type": "uint8"
        }
      ],
      "name": "buyAntByChoice",
      "outputs": [],
      "stateMutability": "nonpayable",
      "type": "function"
    },
    {
      "inputs": [
        {
          "internalType": "uint256",
          "name": "_antId",
          "type": "uint256"
        }
      ],
      "name": "getAntOwner",
      "outputs": [
        {
          "internalType": "address",
          "name": "",
          "type": "address"
        }
      ],
      "stateMutability": "view",
      "type": "function",
      "constant": true
    },
    {
      "inputs": [
        {
          "internalType": "address",
          "name": "_owner",
          "type": "address"
        }
      ],
      "name": "getAntsByOwner",
      "outputs": [
        {
          "components": [
            {
              "internalType": "string",
              "name": "name",
              "type": "string"
            },
            {
              "internalType": "uint256",
              "name": "dna",
              "type": "uint256"
            },
            {
              "internalType": "enum AntFactory.Species",
              "name": "species",
              "type": "uint8"
            },
            {
              "internalType": "uint256",
              "name": "winCount",
              "type": "uint256"
            },
            {
              "internalType": "uint256",
              "name": "lossCount",
              "type": "uint256"
            }
          ],
          "internalType": "struct AntFactory.Ant[]",
          "name": "",
          "type": "tuple[]"
        }
      ],
      "stateMutability": "view",
      "type": "function",
      "constant": true
    }
  ],
  "bytecode": "0x60806040526010600055600054600a6200001a91906200022e565b6001556003600255600380553480156200003357600080fd5b5060405162001ea638038062001ea68339818101604052810190620000599190620002e9565b80600460006101000a81548173ffffffffffffffffffffffffffffffffffffffff021916908373ffffffffffffffffffffffffffffffffffffffff160217905550506200031b565b7f4e487b7100000000000000000000000000000000000000000000000000000000600052601160045260246000fd5b60008160011c9050919050565b6000808291508390505b60018511156200012f57808604811115620001075762000106620000a1565b5b6001851615620001175780820291505b80810290506200012785620000d0565b9450620000e7565b94509492505050565b6000826200014a57600190506200021d565b816200015a57600090506200021d565b81600181146200017357600281146200017e57620001b4565b60019150506200021d565b60ff841115620001935762000192620000a1565b5b8360020a915084821115620001ad57620001ac620000a1565b5b506200021d565b5060208310610133831016604e8410600b8410161715620001ee5782820a905083811115620001e857620001e7620000a1565b5b6200021d565b620001fd8484846001620000dd565b92509050818404811115620002175762000216620000a1565b5b81810290505b9392505050565b6000819050919050565b60006200023b8262000224565b9150620002488362000224565b9250620002777fffffffffffffffffffffffffffffffffffffffffffffffffffffffffffffffff848462000138565b905092915050565b600080fd5b600073ffffffffffffffffffffffffffffffffffffffff82169050919050565b6000620002b18262000284565b9050919050565b620002c381620002a4565b8114620002cf57600080fd5b50565b600081519050620002e381620002b8565b92915050565b6000602082840312156200030257620003016200027f565b5b60006200031284828501620002d2565b91505092915050565b611b7b806200032b6000396000f3fe608060405234801561001057600080fd5b50600436106100f55760003560e01c8063520f7c0e11610097578063a8847d9d11610066578063a8847d9d146102b0578063df307754146102ce578063df57a6ec146102ea578063f770031c1461031a576100f5565b8063520f7c0e146102145780635b5fce5d146102325780635bd49b2d14610262578063a294f4db14610280576100f5565b8063109dcfe6116100d3578063109dcfe614610150578063265f980a1461018457806341b4d82d146101b45780635126443b146101e4576100f5565b80630192e414146100fa57806308e64aac146101185780630e0fda4514610134575b600080fd5b61010261034a565b60405161010f9190610d9e565b60405180910390f35b610132600480360381019061012d9190610f6e565b610370565b005b61014e60048036038101906101499190611005565b610558565b005b61016a60048036038101906101659190611061565b610614565b60405161017b959493929190611193565b60405180910390f35b61019e6004803603810190610199919061122b565b6106ef565b6040516101ab91906113f8565b60405180910390f35b6101ce60048036038101906101c99190611061565b610968565b6040516101db9190611429565b60405180910390f35b6101fe60048036038101906101f9919061122b565b6109a5565b60405161020b9190611444565b60405180910390f35b61021c6109bd565b6040516102299190611444565b60405180910390f35b61024c60048036038101906102479190611061565b6109c3565b6040516102599190611444565b60405180910390f35b61026a6109e0565b604051610277919061145f565b60405180910390f35b61029a60048036038101906102959190611061565b610a37565b6040516102a79190611444565b60405180910390f35b6102b8610a4f565b6040516102c591906113f8565b60405180910390f35b6102e860048036038101906102e3919061147a565b610b99565b005b61030460048036038101906102ff919061147a565b610c66565b6040516103119190611444565b60405180910390f35b610334600480360381019061032f9190611061565b610cab565b6040516103419190611429565b60405180910390f35b600460009054906101000a900473ffffffffffffffffffffffffffffffffffffffff1681565b60056040518060a0016040528087815260200186815260200185600281111561039c5761039b61111c565b5b815260200184815260200183815250908060018154018082558091505060019003906000526020600020906005020160009091909190915060008201518160000190816103e991906116c5565b506020820151816001015560408201518160020160006101000a81548160ff0219169083600281111561041f5761041e61111c565b5b0217905550606082015181600301556080820151816004015550506000600160058054905061044e91906117c6565b9050336006600083815260200190815260200160002060006101000a81548173ffffffffffffffffffffffffffffffffffffffff021916908373ffffffffffffffffffffffffffffffffffffffff160217905550600760003373ffffffffffffffffffffffffffffffffffffffff1673ffffffffffffffffffffffffffffffffffffffff16815260200190815260200160002060008154809291906104f2906117fa565b91905055508060086000878152602001908152602001600020819055507f97b1514c5150294825105d3d34fda558beea8e579828e9a7d2f63b8259ff220181878787878760405161054896959493929190611842565b60405180910390a1505050505050565b6000600760003373ffffffffffffffffffffffffffffffffffffffff1673ffffffffffffffffffffffffffffffffffffffff16815260200190815260200160002054116105da576040517f08c379a00000000000000000000000000000000000000000000000000000000081526004016105d19061191c565b60405180910390fd5b60006105e583610c66565b90506064816105f4919061196b565b816105ff91906117c6565b905061060f838284600080610370565b505050565b6005818154811061062457600080fd5b9060005260206000209060050201600091509050806000018054610647906114f2565b80601f0160208091040260200160405190810160405280929190818152602001828054610673906114f2565b80156106c05780601f10610695576101008083540402835291602001916106c0565b820191906000526020600020905b8154815290600101906020018083116106a357829003601f168201915b5050505050908060010154908060020160009054906101000a900460ff16908060030154908060040154905085565b60606000600760008473ffffffffffffffffffffffffffffffffffffffff1673ffffffffffffffffffffffffffffffffffffffff16815260200190815260200160002054905060008167ffffffffffffffff81111561075157610750610de8565b5b60405190808252806020026020018201604052801561078a57816020015b610777610cde565b81526020019060019003908161076f5790505b5090506000805b60058054905081101561095c578573ffffffffffffffffffffffffffffffffffffffff166006600083815260200190815260200160002060009054906101000a900473ffffffffffffffffffffffffffffffffffffffff1673ffffffffffffffffffffffffffffffffffffffff160361094957600581815481106108185761081761199c565b5b90600052602060002090600502016040518060a0016040529081600082018054610841906114f2565b80601f016020809104026020016040519081016040528092919081815260200182805461086d906114f2565b80156108ba5780601f1061088f576101008083540402835291602001916108ba565b820191906000526020600020905b81548152906001019060200180831161089d57829003601f168201915b50505050508152602001600182015481526020016002820160009054906101000a900460ff1660028111156108f2576108f161111c565b5b60028111156109045761090361111c565b5b81526020016003820154815260200160048201548152505083838151811061092f5761092e61199c565b5b60200260200101819052508180610945906117fa565b9250505b8080610954906117fa565b915050610791565b50819350505050919050565b60006006600083815260200190815260200160002060009054906101000a900473ffffffffffffffffffffffffffffffffffffffff169050919050565b60076020528060005260406000206000915090505481565b60035481565b600060086000838152602001908152602001600020549050919050565b60008060025442336040516020016109f9929190611a34565b6040516020818303038152906040528051906020012060001c610a1c919061196b565b9050806002811115610a3157610a3061111c565b5b91505090565b60086020528060005260406000206000915090505481565b60606005805480602002602001604051908101604052809291908181526020016000905b82821015610b9057838290600052602060002090600502016040518060a0016040529081600082018054610aa6906114f2565b80601f0160208091040260200160405190810160405280929190818152602001828054610ad2906114f2565b8015610b1f5780601f10610af457610100808354040283529160200191610b1f565b820191906000526020600020905b815481529060010190602001808311610b0257829003601f168201915b50505050508152602001600182015481526020016002820160009054906101000a900460ff166002811115610b5757610b5661111c565b5b6002811115610b6957610b6861111c565b5b81526020016003820154815260200160048201548152505081526020019060010190610a73565b50505050905090565b6000600760003373ffffffffffffffffffffffffffffffffffffffff1673ffffffffffffffffffffffffffffffffffffffff1681526020019081526020016000205403610c28576000610beb82610c66565b9050606481610bfa919061196b565b81610c0591906117c6565b90506000610c116109e0565b9050610c21838383600080610370565b5050610c63565b6040517f08c379a0000000000000000000000000000000000000000000000000000000008152600401610c5a90611ad2565b60405180910390fd5b50565b60008082604051602001610c7a9190611b2e565b6040516020818303038152906040528051906020012060001c905060015481610ca3919061196b565b915050919050565b60066020528060005260406000206000915054906101000a900473ffffffffffffffffffffffffffffffffffffffff1681565b6040518060a00160405280606081526020016000815260200160006002811115610d0b57610d0a61111c565b5b815260200160008152602001600081525090565b600073ffffffffffffffffffffffffffffffffffffffff82169050919050565b6000819050919050565b6000610d64610d5f610d5a84610d1f565b610d3f565b610d1f565b9050919050565b6000610d7682610d49565b9050919050565b6000610d8882610d6b565b9050919050565b610d9881610d7d565b82525050565b6000602082019050610db36000830184610d8f565b92915050565b6000604051905090565b600080fd5b600080fd5b600080fd5b600080fd5b6000601f19601f8301169050919050565b7f4e487b7100000000000000000000000000000000000000000000000000000000600052604160045260246000fd5b610e2082610dd7565b810181811067ffffffffffffffff82111715610e3f57610e3e610de8565b5b80604052505050565b6000610e52610db9565b9050610e5e8282610e17565b919050565b600067ffffffffffffffff821115610e7e57610e7d610de8565b5b610e8782610dd7565b9050602081019050919050565b82818337600083830152505050565b6000610eb6610eb184610e63565b610e48565b905082815260208101848484011115610ed257610ed1610dd2565b5b610edd848285610e94565b509392505050565b600082601f830112610efa57610ef9610dcd565b5b8135610f0a848260208601610ea3565b91505092915050565b6000819050919050565b610f2681610f13565b8114610f3157600080fd5b50565b600081359050610f4381610f1d565b92915050565b60038110610f5657600080fd5b50565b600081359050610f6881610f49565b92915050565b600080600080600060a08688031215610f8a57610f89610dc3565b5b600086013567ffffffffffffffff811115610fa857610fa7610dc8565b5b610fb488828901610ee5565b9550506020610fc588828901610f34565b9450506040610fd688828901610f59565b9350506060610fe788828901610f34565b9250506080610ff888828901610f34565b9150509295509295909350565b6000806040838503121561101c5761101b610dc3565b5b600083013567ffffffffffffffff81111561103a57611039610dc8565b5b61104685828601610ee5565b925050602061105785828601610f59565b9150509250929050565b60006020828403121561107757611076610dc3565b5b600061108584828501610f34565b91505092915050565b600081519050919050565b600082825260208201905092915050565b60005b838110156110c85780820151818401526020810190506110ad565b60008484015250505050565b60006110df8261108e565b6110e98185611099565b93506110f98185602086016110aa565b61110281610dd7565b840191505092915050565b61111681610f13565b82525050565b7f4e487b7100000000000000000000000000000000000000000000000000000000600052602160045260246000fd5b6003811061115c5761115b61111c565b5b50565b600081905061116d8261114b565b919050565b600061117d8261115f565b9050919050565b61118d81611172565b82525050565b600060a08201905081810360008301526111ad81886110d4565b90506111bc602083018761110d565b6111c96040830186611184565b6111d6606083018561110d565b6111e3608083018461110d565b9695505050505050565b60006111f882610d1f565b9050919050565b611208816111ed565b811461121357600080fd5b50565b600081359050611225816111ff565b92915050565b60006020828403121561124157611240610dc3565b5b600061124f84828501611216565b91505092915050565b600081519050919050565b600082825260208201905092915050565b6000819050602082019050919050565b600082825260208201905092915050565b60006112a08261108e565b6112aa8185611284565b93506112ba8185602086016110aa565b6112c381610dd7565b840191505092915050565b6112d781610f13565b82525050565b6112e681611172565b82525050565b600060a08301600083015184820360008601526113098282611295565b915050602083015161131e60208601826112ce565b50604083015161133160408601826112dd565b50606083015161134460608601826112ce565b50608083015161135760808601826112ce565b508091505092915050565b600061136e83836112ec565b905092915050565b6000602082019050919050565b600061138e82611258565b6113988185611263565b9350836020820285016113aa85611274565b8060005b858110156113e657848403895281516113c78582611362565b94506113d283611376565b925060208a019950506001810190506113ae565b50829750879550505050505092915050565b600060208201905081810360008301526114128184611383565b905092915050565b611423816111ed565b82525050565b600060208201905061143e600083018461141a565b92915050565b6000602082019050611459600083018461110d565b92915050565b60006020820190506114746000830184611184565b92915050565b6000602082840312156114905761148f610dc3565b5b600082013567ffffffffffffffff8111156114ae576114ad610dc8565b5b6114ba84828501610ee5565b91505092915050565b7f4e487b7100000000000000000000000000000000000000000000000000000000600052602260045260246000fd5b6000600282049050600182168061150a57607f821691505b60208210810361151d5761151c6114c3565b5b50919050565b60008190508160005260206000209050919050565b60006020601f8301049050919050565b600082821b905092915050565b6000600883026115857fffffffffffffffffffffffffffffffffffffffffffffffffffffffffffffffff82611548565b61158f8683611548565b95508019841693508086168417925050509392505050565b60006115c26115bd6115b884610f13565b610d3f565b610f13565b9050919050565b6000819050919050565b6115dc836115a7565b6115f06115e8826115c9565b848454611555565b825550505050565b600090565b6116056115f8565b6116108184846115d3565b505050565b5b81811015611634576116296000826115fd565b600181019050611616565b5050565b601f8211156116795761164a81611523565b61165384611538565b81016020851015611662578190505b61167661166e85611538565b830182611615565b50505b505050565b600082821c905092915050565b600061169c6000198460080261167e565b1980831691505092915050565b60006116b5838361168b565b9150826002028217905092915050565b6116ce8261108e565b67ffffffffffffffff8111156116e7576116e6610de8565b5b6116f182546114f2565b6116fc828285611638565b600060209050601f83116001811461172f576000841561171d578287015190505b61172785826116a9565b86555061178f565b601f19841661173d86611523565b60005b8281101561176557848901518255600182019150602085019450602081019050611740565b86831015611782578489015161177e601f89168261168b565b8355505b6001600288020188555050505b505050505050565b7f4e487b7100000000000000000000000000000000000000000000000000000000600052601160045260246000fd5b60006117d182610f13565b91506117dc83610f13565b92508282039050818111156117f4576117f3611797565b5b92915050565b600061180582610f13565b91507fffffffffffffffffffffffffffffffffffffffffffffffffffffffffffffffff820361183757611836611797565b5b600182019050919050565b600060c082019050611857600083018961110d565b818103602083015261186981886110d4565b9050611878604083018761110d565b6118856060830186611184565b611892608083018561110d565b61189f60a083018461110d565b979650505050505050565b7f596f75206d757374206f776e206174206c65617374206f6e6520616e7420746f60008201527f20627579206d6f72652e00000000000000000000000000000000000000000000602082015250565b6000611906602a83611099565b9150611911826118aa565b604082019050919050565b60006020820190508181036000830152611935816118f9565b9050919050565b7f4e487b7100000000000000000000000000000000000000000000000000000000600052601260045260246000fd5b600061197682610f13565b915061198183610f13565b9250826119915761199061193c565b5b828206905092915050565b7f4e487b7100000000000000000000000000000000000000000000000000000000600052603260045260246000fd5b6000819050919050565b6119e66119e182610f13565b6119cb565b82525050565b60008160601b9050919050565b6000611a04826119ec565b9050919050565b6000611a16826119f9565b9050919050565b611a2e611a29826111ed565b611a0b565b82525050565b6000611a4082856119d5565b602082019150611a508284611a1d565b6014820191508190509392505050565b7f596f7520616c7265616479206f776e20616e20616e742e20557365206275794160008201527f6e74427943686f69636520746f20627579206d6f72652e000000000000000000602082015250565b6000611abc603783611099565b9150611ac782611a60565b604082019050919050565b60006020820190508181036000830152611aeb81611aaf565b9050919050565b600081905092915050565b6000611b088261108e565b611b128185611af2565b9350611b228185602086016110aa565b80840191505092915050565b6000611b3a8284611afd565b91508190509291505056fea2646970667358221220dc7c8e323a16cc4a8a05113924ef2d8f102d8cb3cdc8437c4192a633e8c62f3e64736f6c63430008110033",
  "immutableReferences": {},
  "source": "// SPDX-License-Identifier: MIT\r\npragma solidity ^0.8.0;\r\nimport \"./victoryToken.sol\";\r\n\r\ncontract AntFactory {\r\n    event NewAnt(uint antId, string name, uint dna, Species species, uint winCount, uint lossCount);\r\n\r\n    uint dnaDigits = 16;\r\n    uint dnaModulus = 10 ** dnaDigits;\r\n    uint speciesModulus = 3;\r\n    uint public antPrice = 3;\r\n\r\n    VictoryToken public victoryToken;\r\n\r\n    enum Species { FireAnt, BlackCrazyAnt, CarpenterAnt }\r\n\r\n    struct Ant {\r\n        string name;\r\n        uint dna;\r\n        Species species;\r\n        uint winCount;\r\n        uint lossCount;\r\n    }\r\n\r\n    Ant[] public ants;\r\n\r\n    function getAnts() public view returns (Ant[] memory) {\r\n        return ants;\r\n    }\r\n\r\n    mapping (uint => address) public antToOwner;\r\n    mapping (address => uint) public ownerAntCount;\r\n    mapping (uint => uint) public dnaToId;\r\n\r\n    constructor(address _victoryTokenAddress) {\r\n        victoryToken = VictoryToken(_victoryTokenAddress);\r\n    }\r\n\r\n    function _createAnt(string memory _name, uint _dna, Species _species, uint _winCount, uint _lossCount) public {\r\n        ants.push(Ant(_name, _dna, _species, _winCount, _lossCount));\r\n        uint id = ants.length - 1;\r\n        antToOwner[id] = msg.sender;\r\n        ownerAntCount[msg.sender]++;\r\n        dnaToId[_dna] = id;\r\n        emit NewAnt(id, _name, _dna, _species, _winCount, _lossCount);\r\n    }\r\n\r\n    function _generateRandomDna(string memory _str) public view returns (uint) {\r\n        uint rand = uint(keccak256(abi.encodePacked(_str)));\r\n        return rand % dnaModulus;\r\n    }\r\n\r\n    function _generateRandomSpecies() public view returns (Species) {\r\n        uint randSpecies = uint(keccak256(abi.encodePacked(block.timestamp, msg.sender))) % speciesModulus;\r\n        return Species(randSpecies);\r\n    }\r\n\r\n    function createRandomAnt(string memory _name) public {\r\n        if (ownerAntCount[msg.sender] == 0) {\r\n            uint randDna = _generateRandomDna(_name);\r\n            randDna = randDna - randDna % 100;\r\n            Species randSpecies = _generateRandomSpecies();\r\n            _createAnt(_name, randDna, randSpecies, 0, 0);\r\n        }else {\r\n            revert(\"You already own an ant. Use buyAntByChoice to buy more.\");\r\n        }\r\n    }\r\n\r\n    function getAntId(uint _dna) public view returns (uint) {\r\n        return dnaToId[_dna];\r\n    }\r\n\r\n    function buyAntByChoice(string memory _name, Species _species) public {\r\n        require(ownerAntCount[msg.sender] > 0, \"You must own at least one ant to buy more.\");\r\n        // require(victoryToken.getTokenCount(msg.sender) >= antPrice, \"Insufficient VictoryTokens.\");\r\n\r\n        // Transfer VictoryTokens from the buyer to this contract\r\n        // require(victoryToken.transfer(address(this), antPrice), \"Token transfer failed.\");\r\n\r\n        uint randDna = _generateRandomDna(_name);\r\n        randDna = randDna - randDna % 100;\r\n        _createAnt(_name, randDna, _species, 0, 0);\r\n    }\r\n\r\n    function getAntOwner(uint _antId) public view returns (address) {\r\n        return antToOwner[_antId];\r\n    }\r\n\r\n    function getAntsByOwner(address _owner) public view returns (Ant[] memory) {\r\n        uint ownerCount = ownerAntCount[_owner];\r\n        Ant[] memory result = new Ant[](ownerCount);\r\n        uint counter = 0;\r\n        for (uint i = 0; i < ants.length; i++) {\r\n            if (antToOwner[i] == _owner) {\r\n                result[counter] = ants[i];\r\n                counter++;\r\n            }\r\n        }\r\n        return result;\r\n    }\r\n}\r\n",
  "sourcePath": "C:\\Users\\brand\\Desktop\\erasmus\\blockchain\\blockchain_home_assignment\\contracts\\antfactory.sol",
  "compiler": {
    "name": "solc",
    "version": "0.8.17+commit.8df45f5f.Emscripten.clang"
  },
  "schemaVersion": "3.4.16",
  "updatedAt": "2024-06-07T13:57:32.885Z",
  "networkType": "ethereum",
  "devdoc": {
    "kind": "dev",
    "methods": {},
    "version": 1
  },
  "userdoc": {
    "kind": "user",
    "methods": {},
    "version": 1
  }
}