{
  "contractName": "AntFactory",
  "abi": [
    {
      "inputs": [
        {
          "internalType": "address",
          "name": "_victoryTokenAddress",
          "type": "address"
        }
      ],
      "stateMutability": "nonpayable",
      "type": "constructor"
    },
    {
      "anonymous": false,
      "inputs": [
        {
          "indexed": false,
          "internalType": "uint256",
          "name": "antId",
          "type": "uint256"
        },
        {
          "indexed": false,
          "internalType": "string",
          "name": "name",
          "type": "string"
        },
        {
          "indexed": false,
          "internalType": "uint256",
          "name": "dna",
          "type": "uint256"
        },
        {
          "indexed": false,
          "internalType": "enum AntFactory.Species",
          "name": "species",
          "type": "uint8"
        },
        {
          "indexed": false,
          "internalType": "uint256",
          "name": "winCount",
          "type": "uint256"
        },
        {
          "indexed": false,
          "internalType": "uint256",
          "name": "lossCount",
          "type": "uint256"
        }
      ],
      "name": "NewAnt",
      "type": "event"
    },
    {
      "inputs": [],
      "name": "antPrice",
      "outputs": [
        {
          "internalType": "uint256",
          "name": "",
          "type": "uint256"
        }
      ],
      "stateMutability": "view",
      "type": "function",
      "constant": true
    },
    {
      "inputs": [
        {
          "internalType": "uint256",
          "name": "",
          "type": "uint256"
        }
      ],
      "name": "antToOwner",
      "outputs": [
        {
          "internalType": "address",
          "name": "",
          "type": "address"
        }
      ],
      "stateMutability": "view",
      "type": "function",
      "constant": true
    },
    {
      "inputs": [
        {
          "internalType": "uint256",
          "name": "",
          "type": "uint256"
        }
      ],
      "name": "ants",
      "outputs": [
        {
          "internalType": "string",
          "name": "name",
          "type": "string"
        },
        {
          "internalType": "uint256",
          "name": "dna",
          "type": "uint256"
        },
        {
          "internalType": "enum AntFactory.Species",
          "name": "species",
          "type": "uint8"
        },
        {
          "internalType": "uint256",
          "name": "winCount",
          "type": "uint256"
        },
        {
          "internalType": "uint256",
          "name": "lossCount",
          "type": "uint256"
        }
      ],
      "stateMutability": "view",
      "type": "function",
      "constant": true
    },
    {
      "inputs": [
        {
          "internalType": "address",
          "name": "",
          "type": "address"
        }
      ],
      "name": "ownerAntCount",
      "outputs": [
        {
          "internalType": "uint256",
          "name": "",
          "type": "uint256"
        }
      ],
      "stateMutability": "view",
      "type": "function",
      "constant": true
    },
    {
      "inputs": [],
      "name": "victoryToken",
      "outputs": [
        {
          "internalType": "contract VictoryToken",
          "name": "",
          "type": "address"
        }
      ],
      "stateMutability": "view",
      "type": "function",
      "constant": true
    },
    {
      "inputs": [],
      "name": "getAnts",
      "outputs": [
        {
          "components": [
            {
              "internalType": "string",
              "name": "name",
              "type": "string"
            },
            {
              "internalType": "uint256",
              "name": "dna",
              "type": "uint256"
            },
            {
              "internalType": "enum AntFactory.Species",
              "name": "species",
              "type": "uint8"
            },
            {
              "internalType": "uint256",
              "name": "winCount",
              "type": "uint256"
            },
            {
              "internalType": "uint256",
              "name": "lossCount",
              "type": "uint256"
            }
          ],
          "internalType": "struct AntFactory.Ant[]",
          "name": "",
          "type": "tuple[]"
        }
      ],
      "stateMutability": "view",
      "type": "function",
      "constant": true
    },
    {
      "inputs": [
        {
          "internalType": "string",
          "name": "_name",
          "type": "string"
        },
        {
          "internalType": "uint256",
          "name": "_dna",
          "type": "uint256"
        },
        {
          "internalType": "enum AntFactory.Species",
          "name": "_species",
          "type": "uint8"
        },
        {
          "internalType": "uint256",
          "name": "_winCount",
          "type": "uint256"
        },
        {
          "internalType": "uint256",
          "name": "_lossCount",
          "type": "uint256"
        }
      ],
      "name": "_createAnt",
      "outputs": [],
      "stateMutability": "nonpayable",
      "type": "function"
    },
    {
      "inputs": [
        {
          "internalType": "string",
          "name": "_str",
          "type": "string"
        }
      ],
      "name": "_generateRandomDna",
      "outputs": [
        {
          "internalType": "uint256",
          "name": "",
          "type": "uint256"
        }
      ],
      "stateMutability": "view",
      "type": "function",
      "constant": true
    },
    {
      "inputs": [],
      "name": "_generateRandomSpecies",
      "outputs": [
        {
          "internalType": "enum AntFactory.Species",
          "name": "",
          "type": "uint8"
        }
      ],
      "stateMutability": "view",
      "type": "function",
      "constant": true
    },
    {
      "inputs": [
        {
          "internalType": "string",
          "name": "_name",
          "type": "string"
        }
      ],
      "name": "createRandomAnt",
      "outputs": [],
      "stateMutability": "nonpayable",
      "type": "function"
    },
    {
      "inputs": [
        {
          "internalType": "string",
          "name": "_name",
          "type": "string"
        },
        {
          "internalType": "enum AntFactory.Species",
          "name": "_species",
          "type": "uint8"
        }
      ],
      "name": "buyAntByChoice",
      "outputs": [],
      "stateMutability": "nonpayable",
      "type": "function"
    }
  ],
  "bytecode": "0x60806040526010600055600054600a6200001a919062000236565b6001556003600255678ac7230489e800006003553480156200003b57600080fd5b5060405162001da838038062001da88339818101604052810190620000619190620002f1565b80600460006101000a81548173ffffffffffffffffffffffffffffffffffffffff021916908373ffffffffffffffffffffffffffffffffffffffff1602179055505062000323565b7f4e487b7100000000000000000000000000000000000000000000000000000000600052601160045260246000fd5b60008160011c9050919050565b6000808291508390505b600185111562000137578086048111156200010f576200010e620000a9565b5b60018516156200011f5780820291505b80810290506200012f85620000d8565b9450620000ef565b94509492505050565b60008262000152576001905062000225565b8162000162576000905062000225565b81600181146200017b57600281146200018657620001bc565b600191505062000225565b60ff8411156200019b576200019a620000a9565b5b8360020a915084821115620001b557620001b4620000a9565b5b5062000225565b5060208310610133831016604e8410600b8410161715620001f65782820a905083811115620001f057620001ef620000a9565b5b62000225565b620002058484846001620000e5565b925090508184048111156200021f576200021e620000a9565b5b81810290505b9392505050565b6000819050919050565b600062000243826200022c565b915062000250836200022c565b92506200027f7fffffffffffffffffffffffffffffffffffffffffffffffffffffffffffffffff848462000140565b905092915050565b600080fd5b600073ffffffffffffffffffffffffffffffffffffffff82169050919050565b6000620002b9826200028c565b9050919050565b620002cb81620002ac565b8114620002d757600080fd5b50565b600081519050620002eb81620002c0565b92915050565b6000602082840312156200030a576200030962000287565b5b60006200031a84828501620002da565b91505092915050565b611a7580620003336000396000f3fe608060405234801561001057600080fd5b50600436106100a95760003560e01c8063520f7c0e11610071578063520f7c0e146101685780635bd49b2d14610186578063a8847d9d146101a4578063df307754146101c2578063df57a6ec146101de578063f770031c1461020e576100a9565b80630192e414146100ae57806308e64aac146100cc5780630e0fda45146100e8578063109dcfe6146101045780635126443b14610138575b600080fd5b6100b661023e565b6040516100c39190610b11565b60405180910390f35b6100e660048036038101906100e19190610ce1565b610264565b005b61010260048036038101906100fd9190610d78565b610434565b005b61011e60048036038101906101199190610dd4565b6106b3565b60405161012f959493929190610f06565b60405180910390f35b610152600480360381019061014d9190610f9e565b61078e565b60405161015f9190610fcb565b60405180910390f35b6101706107a6565b60405161017d9190610fcb565b60405180910390f35b61018e6107ac565b60405161019b9190610fe6565b60405180910390f35b6101ac610803565b6040516101b991906111a1565b60405180910390f35b6101dc60048036038101906101d791906111c3565b61094d565b005b6101f860048036038101906101f391906111c3565b610a1a565b6040516102059190610fcb565b60405180910390f35b61022860048036038101906102239190610dd4565b610a5f565b604051610235919061121b565b60405180910390f35b600460009054906101000a900473ffffffffffffffffffffffffffffffffffffffff1681565b60056040518060a001604052808781526020018681526020018560028111156102905761028f610e8f565b5b815260200184815260200183815250908060018154018082558091505060019003906000526020600020906005020160009091909190915060008201518160000190816102dd9190611438565b506020820151816001015560408201518160020160006101000a81548160ff0219169083600281111561031357610312610e8f565b5b021790555060608201518160030155608082015181600401555050600060016005805490506103429190611539565b9050336006600083815260200190815260200160002060006101000a81548173ffffffffffffffffffffffffffffffffffffffff021916908373ffffffffffffffffffffffffffffffffffffffff160217905550600760003373ffffffffffffffffffffffffffffffffffffffff1673ffffffffffffffffffffffffffffffffffffffff16815260200190815260200160002060008154809291906103e69061156d565b91905055507f97b1514c5150294825105d3d34fda558beea8e579828e9a7d2f63b8259ff2201818787878787604051610424969594939291906115b5565b60405180910390a1505050505050565b6000600760003373ffffffffffffffffffffffffffffffffffffffff1673ffffffffffffffffffffffffffffffffffffffff16815260200190815260200160002054116104b6576040517f08c379a00000000000000000000000000000000000000000000000000000000081526004016104ad9061168f565b60405180910390fd5b600354600460009054906101000a900473ffffffffffffffffffffffffffffffffffffffff1673ffffffffffffffffffffffffffffffffffffffff166370a08231336040518263ffffffff1660e01b8152600401610514919061121b565b602060405180830381865afa158015610531573d6000803e3d6000fd5b505050506040513d601f19601f8201168201806040525081019061055591906116c4565b1015610596576040517f08c379a000000000000000000000000000000000000000000000000000000000815260040161058d9061173d565b60405180910390fd5b600460009054906101000a900473ffffffffffffffffffffffffffffffffffffffff1673ffffffffffffffffffffffffffffffffffffffff166323b872dd33306003546040518463ffffffff1660e01b81526004016105f79392919061175d565b6020604051808303816000875af1158015610616573d6000803e3d6000fd5b505050506040513d601f19601f8201168201806040525081019061063a91906117cc565b610679576040517f08c379a000000000000000000000000000000000000000000000000000000000815260040161067090611845565b60405180910390fd5b600061068483610a1a565b90506064816106939190611894565b8161069e9190611539565b90506106ae838284600080610264565b505050565b600581815481106106c357600080fd5b90600052602060002090600502016000915090508060000180546106e690611265565b80601f016020809104026020016040519081016040528092919081815260200182805461071290611265565b801561075f5780601f106107345761010080835404028352916020019161075f565b820191906000526020600020905b81548152906001019060200180831161074257829003601f168201915b5050505050908060010154908060020160009054906101000a900460ff16908060030154908060040154905085565b60076020528060005260406000206000915090505481565b60035481565b60008060025442336040516020016107c592919061192e565b6040516020818303038152906040528051906020012060001c6107e89190611894565b90508060028111156107fd576107fc610e8f565b5b91505090565b60606005805480602002602001604051908101604052809291908181526020016000905b8282101561094457838290600052602060002090600502016040518060a001604052908160008201805461085a90611265565b80601f016020809104026020016040519081016040528092919081815260200182805461088690611265565b80156108d35780601f106108a8576101008083540402835291602001916108d3565b820191906000526020600020905b8154815290600101906020018083116108b657829003601f168201915b50505050508152602001600182015481526020016002820160009054906101000a900460ff16600281111561090b5761090a610e8f565b5b600281111561091d5761091c610e8f565b5b81526020016003820154815260200160048201548152505081526020019060010190610827565b50505050905090565b6000600760003373ffffffffffffffffffffffffffffffffffffffff1673ffffffffffffffffffffffffffffffffffffffff16815260200190815260200160002054036109dc57600061099f82610a1a565b90506064816109ae9190611894565b816109b99190611539565b905060006109c56107ac565b90506109d5838383600080610264565b5050610a17565b6040517f08c379a0000000000000000000000000000000000000000000000000000000008152600401610a0e906119cc565b60405180910390fd5b50565b60008082604051602001610a2e9190611a28565b6040516020818303038152906040528051906020012060001c905060015481610a579190611894565b915050919050565b60066020528060005260406000206000915054906101000a900473ffffffffffffffffffffffffffffffffffffffff1681565b600073ffffffffffffffffffffffffffffffffffffffff82169050919050565b6000819050919050565b6000610ad7610ad2610acd84610a92565b610ab2565b610a92565b9050919050565b6000610ae982610abc565b9050919050565b6000610afb82610ade565b9050919050565b610b0b81610af0565b82525050565b6000602082019050610b266000830184610b02565b92915050565b6000604051905090565b600080fd5b600080fd5b600080fd5b600080fd5b6000601f19601f8301169050919050565b7f4e487b7100000000000000000000000000000000000000000000000000000000600052604160045260246000fd5b610b9382610b4a565b810181811067ffffffffffffffff82111715610bb257610bb1610b5b565b5b80604052505050565b6000610bc5610b2c565b9050610bd18282610b8a565b919050565b600067ffffffffffffffff821115610bf157610bf0610b5b565b5b610bfa82610b4a565b9050602081019050919050565b82818337600083830152505050565b6000610c29610c2484610bd6565b610bbb565b905082815260208101848484011115610c4557610c44610b45565b5b610c50848285610c07565b509392505050565b600082601f830112610c6d57610c6c610b40565b5b8135610c7d848260208601610c16565b91505092915050565b6000819050919050565b610c9981610c86565b8114610ca457600080fd5b50565b600081359050610cb681610c90565b92915050565b60038110610cc957600080fd5b50565b600081359050610cdb81610cbc565b92915050565b600080600080600060a08688031215610cfd57610cfc610b36565b5b600086013567ffffffffffffffff811115610d1b57610d1a610b3b565b5b610d2788828901610c58565b9550506020610d3888828901610ca7565b9450506040610d4988828901610ccc565b9350506060610d5a88828901610ca7565b9250506080610d6b88828901610ca7565b9150509295509295909350565b60008060408385031215610d8f57610d8e610b36565b5b600083013567ffffffffffffffff811115610dad57610dac610b3b565b5b610db985828601610c58565b9250506020610dca85828601610ccc565b9150509250929050565b600060208284031215610dea57610de9610b36565b5b6000610df884828501610ca7565b91505092915050565b600081519050919050565b600082825260208201905092915050565b60005b83811015610e3b578082015181840152602081019050610e20565b60008484015250505050565b6000610e5282610e01565b610e5c8185610e0c565b9350610e6c818560208601610e1d565b610e7581610b4a565b840191505092915050565b610e8981610c86565b82525050565b7f4e487b7100000000000000000000000000000000000000000000000000000000600052602160045260246000fd5b60038110610ecf57610ece610e8f565b5b50565b6000819050610ee082610ebe565b919050565b6000610ef082610ed2565b9050919050565b610f0081610ee5565b82525050565b600060a0820190508181036000830152610f208188610e47565b9050610f2f6020830187610e80565b610f3c6040830186610ef7565b610f496060830185610e80565b610f566080830184610e80565b9695505050505050565b6000610f6b82610a92565b9050919050565b610f7b81610f60565b8114610f8657600080fd5b50565b600081359050610f9881610f72565b92915050565b600060208284031215610fb457610fb3610b36565b5b6000610fc284828501610f89565b91505092915050565b6000602082019050610fe06000830184610e80565b92915050565b6000602082019050610ffb6000830184610ef7565b92915050565b600081519050919050565b600082825260208201905092915050565b6000819050602082019050919050565b600082825260208201905092915050565b600061104982610e01565b611053818561102d565b9350611063818560208601610e1d565b61106c81610b4a565b840191505092915050565b61108081610c86565b82525050565b61108f81610ee5565b82525050565b600060a08301600083015184820360008601526110b2828261103e565b91505060208301516110c76020860182611077565b5060408301516110da6040860182611086565b5060608301516110ed6060860182611077565b5060808301516111006080860182611077565b508091505092915050565b60006111178383611095565b905092915050565b6000602082019050919050565b600061113782611001565b611141818561100c565b9350836020820285016111538561101d565b8060005b8581101561118f5784840389528151611170858261110b565b945061117b8361111f565b925060208a01995050600181019050611157565b50829750879550505050505092915050565b600060208201905081810360008301526111bb818461112c565b905092915050565b6000602082840312156111d9576111d8610b36565b5b600082013567ffffffffffffffff8111156111f7576111f6610b3b565b5b61120384828501610c58565b91505092915050565b61121581610f60565b82525050565b6000602082019050611230600083018461120c565b92915050565b7f4e487b7100000000000000000000000000000000000000000000000000000000600052602260045260246000fd5b6000600282049050600182168061127d57607f821691505b6020821081036112905761128f611236565b5b50919050565b60008190508160005260206000209050919050565b60006020601f8301049050919050565b600082821b905092915050565b6000600883026112f87fffffffffffffffffffffffffffffffffffffffffffffffffffffffffffffffff826112bb565b61130286836112bb565b95508019841693508086168417925050509392505050565b600061133561133061132b84610c86565b610ab2565b610c86565b9050919050565b6000819050919050565b61134f8361131a565b61136361135b8261133c565b8484546112c8565b825550505050565b600090565b61137861136b565b611383818484611346565b505050565b5b818110156113a75761139c600082611370565b600181019050611389565b5050565b601f8211156113ec576113bd81611296565b6113c6846112ab565b810160208510156113d5578190505b6113e96113e1856112ab565b830182611388565b50505b505050565b600082821c905092915050565b600061140f600019846008026113f1565b1980831691505092915050565b600061142883836113fe565b9150826002028217905092915050565b61144182610e01565b67ffffffffffffffff81111561145a57611459610b5b565b5b6114648254611265565b61146f8282856113ab565b600060209050601f8311600181146114a25760008415611490578287015190505b61149a858261141c565b865550611502565b601f1984166114b086611296565b60005b828110156114d8578489015182556001820191506020850194506020810190506114b3565b868310156114f557848901516114f1601f8916826113fe565b8355505b6001600288020188555050505b505050505050565b7f4e487b7100000000000000000000000000000000000000000000000000000000600052601160045260246000fd5b600061154482610c86565b915061154f83610c86565b92508282039050818111156115675761156661150a565b5b92915050565b600061157882610c86565b91507fffffffffffffffffffffffffffffffffffffffffffffffffffffffffffffffff82036115aa576115a961150a565b5b600182019050919050565b600060c0820190506115ca6000830189610e80565b81810360208301526115dc8188610e47565b90506115eb6040830187610e80565b6115f86060830186610ef7565b6116056080830185610e80565b61161260a0830184610e80565b979650505050505050565b7f596f75206d757374206f776e206174206c65617374206f6e6520616e7420746f60008201527f20627579206d6f72652e00000000000000000000000000000000000000000000602082015250565b6000611679602a83610e0c565b91506116848261161d565b604082019050919050565b600060208201905081810360008301526116a88161166c565b9050919050565b6000815190506116be81610c90565b92915050565b6000602082840312156116da576116d9610b36565b5b60006116e8848285016116af565b91505092915050565b7f496e73756666696369656e7420566963746f7279546f6b656e732e0000000000600082015250565b6000611727601b83610e0c565b9150611732826116f1565b602082019050919050565b600060208201905081810360008301526117568161171a565b9050919050565b6000606082019050611772600083018661120c565b61177f602083018561120c565b61178c6040830184610e80565b949350505050565b60008115159050919050565b6117a981611794565b81146117b457600080fd5b50565b6000815190506117c6816117a0565b92915050565b6000602082840312156117e2576117e1610b36565b5b60006117f0848285016117b7565b91505092915050565b7f546f6b656e207472616e73666572206661696c65642e00000000000000000000600082015250565b600061182f601683610e0c565b915061183a826117f9565b602082019050919050565b6000602082019050818103600083015261185e81611822565b9050919050565b7f4e487b7100000000000000000000000000000000000000000000000000000000600052601260045260246000fd5b600061189f82610c86565b91506118aa83610c86565b9250826118ba576118b9611865565b5b828206905092915050565b6000819050919050565b6118e06118db82610c86565b6118c5565b82525050565b60008160601b9050919050565b60006118fe826118e6565b9050919050565b6000611910826118f3565b9050919050565b61192861192382610f60565b611905565b82525050565b600061193a82856118cf565b60208201915061194a8284611917565b6014820191508190509392505050565b7f596f7520616c7265616479206f776e20616e20616e742e20557365206275794160008201527f6e74427943686f69636520746f20627579206d6f72652e000000000000000000602082015250565b60006119b6603783610e0c565b91506119c18261195a565b604082019050919050565b600060208201905081810360008301526119e5816119a9565b9050919050565b600081905092915050565b6000611a0282610e01565b611a0c81856119ec565b9350611a1c818560208601610e1d565b80840191505092915050565b6000611a3482846119f7565b91508190509291505056fea2646970667358221220c9b475e101e9409546ef5a92fe08aa00a356f6551e02da7520929e1de003017f64736f6c63430008110033",
  "immutableReferences": {},
  "source": "// SPDX-License-Identifier: MIT\r\npragma solidity ^0.8.0;\r\nimport \"./victoryToken.sol\";\r\n\r\ncontract AntFactory {\r\n    event NewAnt(uint antId, string name, uint dna, Species species, uint winCount, uint lossCount);\r\n\r\n    uint dnaDigits = 16;\r\n    uint dnaModulus = 10 ** dnaDigits;\r\n    uint speciesModulus = 3;\r\n    uint public antPrice = 10 * 10 ** 18;\r\n\r\n    VictoryToken public victoryToken;\r\n\r\n    enum Species { FireAnt, BlackCrazyAnt, CarpenterAnt }\r\n\r\n    struct Ant {\r\n        string name;\r\n        uint dna;\r\n        Species species;\r\n        uint winCount;\r\n        uint lossCount;\r\n    }\r\n\r\n    Ant[] public ants;\r\n\r\n    function getAnts() public view returns (Ant[] memory) {\r\n        return ants;\r\n    }\r\n\r\n    mapping (uint => address) public antToOwner;\r\n    mapping (address => uint) public ownerAntCount;\r\n\r\n    constructor(address _victoryTokenAddress) {\r\n        victoryToken = VictoryToken(_victoryTokenAddress);\r\n    }\r\n\r\n    // function _createAnt(string memory _name, uint _dna, Species _species, uint _winCount, uint _lossCount) public {\r\n    //     ants.push(Ant(_name, _dna, _species, _winCount, _lossCount));\r\n    //     uint id = ants.length - 1;\r\n    //     antToOwner[id] = msg.sender;\r\n    //     ownerAntCount[msg.sender]++;\r\n    //     emit NewAnt(id, _name, _dna, _species, _winCount, _lossCount);\r\n    // }\r\n\r\n    function _createAnt(string memory _name, uint _dna, Species _species, uint _winCount, uint _lossCount) public {\r\n        ants.push(Ant(_name, _dna, _species, _winCount, _lossCount));\r\n        uint id = ants.length - 1;\r\n        antToOwner[id] = msg.sender;\r\n        \r\n        // Increment ant count for the owner\r\n        ownerAntCount[msg.sender]++;\r\n        \r\n        emit NewAnt(id, _name, _dna, _species, _winCount, _lossCount);\r\n    }\r\n\r\n    function _generateRandomDna(string memory _str) public view returns (uint) {\r\n        uint rand = uint(keccak256(abi.encodePacked(_str)));\r\n        return rand % dnaModulus;\r\n    }\r\n\r\n    function _generateRandomSpecies() public view returns (Species) {\r\n        uint randSpecies = uint(keccak256(abi.encodePacked(block.timestamp, msg.sender))) % speciesModulus;\r\n        return Species(randSpecies);\r\n    }\r\n\r\n    function createRandomAnt(string memory _name) public {\r\n        if (ownerAntCount[msg.sender] == 0) {\r\n            uint randDna = _generateRandomDna(_name);\r\n            randDna = randDna - randDna % 100;\r\n            Species randSpecies = _generateRandomSpecies();\r\n            _createAnt(_name, randDna, randSpecies, 0, 0);\r\n        }else {\r\n            revert(\"You already own an ant. Use buyAntByChoice to buy more.\");\r\n        }\r\n    }\r\n\r\n    function buyAntByChoice(string memory _name, Species _species) public {\r\n        require(ownerAntCount[msg.sender] > 0, \"You must own at least one ant to buy more.\");\r\n        require(victoryToken.balanceOf(msg.sender) >= antPrice, \"Insufficient VictoryTokens.\");\r\n\r\n        // Transfer VictoryTokens from the buyer to this contract\r\n        require(victoryToken.transferFrom(msg.sender, address(this), antPrice), \"Token transfer failed.\");\r\n\r\n        uint randDna = _generateRandomDna(_name);\r\n        randDna = randDna - randDna % 100;\r\n        _createAnt(_name, randDna, _species, 0, 0);\r\n    }\r\n}\r\n",
  "sourcePath": "C:\\Users\\brand\\Desktop\\erasmus\\blockchain\\blockchain_home_assignment\\contracts\\antfactory.sol",
  "compiler": {
    "name": "solc",
    "version": "0.8.17+commit.8df45f5f.Emscripten.clang"
  },
  "schemaVersion": "3.4.16",
  "updatedAt": "2024-06-06T17:24:50.108Z",
  "networkType": "ethereum",
  "devdoc": {
    "kind": "dev",
    "methods": {},
    "version": 1
  },
  "userdoc": {
    "kind": "user",
    "methods": {},
    "version": 1
  }
}