{
  "contractName": "AntFactory",
  "abi": [
    {
      "inputs": [
        {
          "internalType": "address",
          "name": "_victoryTokenAddress",
          "type": "address"
        }
      ],
      "stateMutability": "nonpayable",
      "type": "constructor"
    },
    {
      "anonymous": false,
      "inputs": [
        {
          "indexed": false,
          "internalType": "uint256",
          "name": "antId",
          "type": "uint256"
        },
        {
          "indexed": false,
          "internalType": "string",
          "name": "name",
          "type": "string"
        },
        {
          "indexed": false,
          "internalType": "uint256",
          "name": "dna",
          "type": "uint256"
        },
        {
          "indexed": false,
          "internalType": "enum AntFactory.Species",
          "name": "species",
          "type": "uint8"
        },
        {
          "indexed": false,
          "internalType": "uint256",
          "name": "winCount",
          "type": "uint256"
        },
        {
          "indexed": false,
          "internalType": "uint256",
          "name": "lossCount",
          "type": "uint256"
        }
      ],
      "name": "NewAnt",
      "type": "event"
    },
    {
      "inputs": [],
      "name": "antPrice",
      "outputs": [
        {
          "internalType": "uint256",
          "name": "",
          "type": "uint256"
        }
      ],
      "stateMutability": "view",
      "type": "function"
    },
    {
      "inputs": [
        {
          "internalType": "uint256",
          "name": "",
          "type": "uint256"
        }
      ],
      "name": "antToOwner",
      "outputs": [
        {
          "internalType": "address",
          "name": "",
          "type": "address"
        }
      ],
      "stateMutability": "view",
      "type": "function"
    },
    {
      "inputs": [
        {
          "internalType": "uint256",
          "name": "",
          "type": "uint256"
        }
      ],
      "name": "ants",
      "outputs": [
        {
          "internalType": "string",
          "name": "name",
          "type": "string"
        },
        {
          "internalType": "uint256",
          "name": "dna",
          "type": "uint256"
        },
        {
          "internalType": "enum AntFactory.Species",
          "name": "species",
          "type": "uint8"
        },
        {
          "internalType": "uint256",
          "name": "winCount",
          "type": "uint256"
        },
        {
          "internalType": "uint256",
          "name": "lossCount",
          "type": "uint256"
        }
      ],
      "stateMutability": "view",
      "type": "function"
    },
    {
      "inputs": [
        {
          "internalType": "address",
          "name": "",
          "type": "address"
        }
      ],
      "name": "ownerAntCount",
      "outputs": [
        {
          "internalType": "uint256",
          "name": "",
          "type": "uint256"
        }
      ],
      "stateMutability": "view",
      "type": "function"
    },
    {
      "inputs": [],
      "name": "victoryToken",
      "outputs": [
        {
          "internalType": "contract VictoryToken",
          "name": "",
          "type": "address"
        }
      ],
      "stateMutability": "view",
      "type": "function"
    },
    {
      "inputs": [],
      "name": "getAnts",
      "outputs": [
        {
          "components": [
            {
              "internalType": "string",
              "name": "name",
              "type": "string"
            },
            {
              "internalType": "uint256",
              "name": "dna",
              "type": "uint256"
            },
            {
              "internalType": "enum AntFactory.Species",
              "name": "species",
              "type": "uint8"
            },
            {
              "internalType": "uint256",
              "name": "winCount",
              "type": "uint256"
            },
            {
              "internalType": "uint256",
              "name": "lossCount",
              "type": "uint256"
            }
          ],
          "internalType": "struct AntFactory.Ant[]",
          "name": "",
          "type": "tuple[]"
        }
      ],
      "stateMutability": "view",
      "type": "function"
    },
    {
      "inputs": [
        {
          "internalType": "string",
          "name": "_name",
          "type": "string"
        },
        {
          "internalType": "uint256",
          "name": "_dna",
          "type": "uint256"
        },
        {
          "internalType": "enum AntFactory.Species",
          "name": "_species",
          "type": "uint8"
        },
        {
          "internalType": "uint256",
          "name": "_winCount",
          "type": "uint256"
        },
        {
          "internalType": "uint256",
          "name": "_lossCount",
          "type": "uint256"
        }
      ],
      "name": "_createAnt",
      "outputs": [],
      "stateMutability": "nonpayable",
      "type": "function"
    },
    {
      "inputs": [
        {
          "internalType": "string",
          "name": "_str",
          "type": "string"
        }
      ],
      "name": "_generateRandomDna",
      "outputs": [
        {
          "internalType": "uint256",
          "name": "",
          "type": "uint256"
        }
      ],
      "stateMutability": "view",
      "type": "function"
    },
    {
      "inputs": [],
      "name": "_generateRandomSpecies",
      "outputs": [
        {
          "internalType": "enum AntFactory.Species",
          "name": "",
          "type": "uint8"
        }
      ],
      "stateMutability": "view",
      "type": "function"
    },
    {
      "inputs": [
        {
          "internalType": "string",
          "name": "_name",
          "type": "string"
        }
      ],
      "name": "createRandomAnt",
      "outputs": [],
      "stateMutability": "nonpayable",
      "type": "function"
    },
    {
      "inputs": [
        {
          "internalType": "string",
          "name": "_name",
          "type": "string"
        },
        {
          "internalType": "enum AntFactory.Species",
          "name": "_species",
          "type": "uint8"
        }
      ],
      "name": "buyAntByChoice",
      "outputs": [],
      "stateMutability": "nonpayable",
      "type": "function"
    }
  ],
  "bytecode": "0x60806040526010600055600054600a6200001a91906200022e565b6001556003600255600380553480156200003357600080fd5b5060405162001d9038038062001d908339818101604052810190620000599190620002e9565b80600460006101000a81548173ffffffffffffffffffffffffffffffffffffffff021916908373ffffffffffffffffffffffffffffffffffffffff160217905550506200031b565b7f4e487b7100000000000000000000000000000000000000000000000000000000600052601160045260246000fd5b60008160011c9050919050565b6000808291508390505b60018511156200012f57808604811115620001075762000106620000a1565b5b6001851615620001175780820291505b80810290506200012785620000d0565b9450620000e7565b94509492505050565b6000826200014a57600190506200021d565b816200015a57600090506200021d565b81600181146200017357600281146200017e57620001b4565b60019150506200021d565b60ff841115620001935762000192620000a1565b5b8360020a915084821115620001ad57620001ac620000a1565b5b506200021d565b5060208310610133831016604e8410600b8410161715620001ee5782820a905083811115620001e857620001e7620000a1565b5b6200021d565b620001fd8484846001620000dd565b92509050818404811115620002175762000216620000a1565b5b81810290505b9392505050565b6000819050919050565b60006200023b8262000224565b9150620002488362000224565b9250620002777fffffffffffffffffffffffffffffffffffffffffffffffffffffffffffffffff848462000138565b905092915050565b600080fd5b600073ffffffffffffffffffffffffffffffffffffffff82169050919050565b6000620002b18262000284565b9050919050565b620002c381620002a4565b8114620002cf57600080fd5b50565b600081519050620002e381620002b8565b92915050565b6000602082840312156200030257620003016200027f565b5b60006200031284828501620002d2565b91505092915050565b611a65806200032b6000396000f3fe608060405234801561001057600080fd5b50600436106100a95760003560e01c8063520f7c0e11610071578063520f7c0e146101685780635bd49b2d14610186578063a8847d9d146101a4578063df307754146101c2578063df57a6ec146101de578063f770031c1461020e576100a9565b80630192e414146100ae57806308e64aac146100cc5780630e0fda45146100e8578063109dcfe6146101045780635126443b14610138575b600080fd5b6100b661023e565b6040516100c39190610b0f565b60405180910390f35b6100e660048036038101906100e19190610cdf565b610264565b005b61010260048036038101906100fd9190610d76565b610434565b005b61011e60048036038101906101199190610dd2565b6106b1565b60405161012f959493929190610f04565b60405180910390f35b610152600480360381019061014d9190610f9c565b61078c565b60405161015f9190610fc9565b60405180910390f35b6101706107a4565b60405161017d9190610fc9565b60405180910390f35b61018e6107aa565b60405161019b9190610fe4565b60405180910390f35b6101ac610801565b6040516101b9919061119f565b60405180910390f35b6101dc60048036038101906101d791906111c1565b61094b565b005b6101f860048036038101906101f391906111c1565b610a18565b6040516102059190610fc9565b60405180910390f35b61022860048036038101906102239190610dd2565b610a5d565b6040516102359190611219565b60405180910390f35b600460009054906101000a900473ffffffffffffffffffffffffffffffffffffffff1681565b60056040518060a001604052808781526020018681526020018560028111156102905761028f610e8d565b5b815260200184815260200183815250908060018154018082558091505060019003906000526020600020906005020160009091909190915060008201518160000190816102dd9190611436565b506020820151816001015560408201518160020160006101000a81548160ff0219169083600281111561031357610312610e8d565b5b021790555060608201518160030155608082015181600401555050600060016005805490506103429190611537565b9050336006600083815260200190815260200160002060006101000a81548173ffffffffffffffffffffffffffffffffffffffff021916908373ffffffffffffffffffffffffffffffffffffffff160217905550600760003373ffffffffffffffffffffffffffffffffffffffff1673ffffffffffffffffffffffffffffffffffffffff16815260200190815260200160002060008154809291906103e69061156b565b91905055507f97b1514c5150294825105d3d34fda558beea8e579828e9a7d2f63b8259ff2201818787878787604051610424969594939291906115b3565b60405180910390a1505050505050565b6000600760003373ffffffffffffffffffffffffffffffffffffffff1673ffffffffffffffffffffffffffffffffffffffff16815260200190815260200160002054116104b6576040517f08c379a00000000000000000000000000000000000000000000000000000000081526004016104ad9061168d565b60405180910390fd5b600354600460009054906101000a900473ffffffffffffffffffffffffffffffffffffffff1673ffffffffffffffffffffffffffffffffffffffff166370a08231336040518263ffffffff1660e01b81526004016105149190611219565b602060405180830381865afa158015610531573d6000803e3d6000fd5b505050506040513d601f19601f8201168201806040525081019061055591906116c2565b1015610596576040517f08c379a000000000000000000000000000000000000000000000000000000000815260040161058d9061173b565b60405180910390fd5b600460009054906101000a900473ffffffffffffffffffffffffffffffffffffffff1673ffffffffffffffffffffffffffffffffffffffff1663a9059cbb306003546040518363ffffffff1660e01b81526004016105f592919061175b565b6020604051808303816000875af1158015610614573d6000803e3d6000fd5b505050506040513d601f19601f8201168201806040525081019061063891906117bc565b610677576040517f08c379a000000000000000000000000000000000000000000000000000000000815260040161066e90611835565b60405180910390fd5b600061068283610a18565b90506064816106919190611884565b8161069c9190611537565b90506106ac838284600080610264565b505050565b600581815481106106c157600080fd5b90600052602060002090600502016000915090508060000180546106e490611263565b80601f016020809104026020016040519081016040528092919081815260200182805461071090611263565b801561075d5780601f106107325761010080835404028352916020019161075d565b820191906000526020600020905b81548152906001019060200180831161074057829003601f168201915b5050505050908060010154908060020160009054906101000a900460ff16908060030154908060040154905085565b60076020528060005260406000206000915090505481565b60035481565b60008060025442336040516020016107c392919061191e565b6040516020818303038152906040528051906020012060001c6107e69190611884565b90508060028111156107fb576107fa610e8d565b5b91505090565b60606005805480602002602001604051908101604052809291908181526020016000905b8282101561094257838290600052602060002090600502016040518060a001604052908160008201805461085890611263565b80601f016020809104026020016040519081016040528092919081815260200182805461088490611263565b80156108d15780601f106108a6576101008083540402835291602001916108d1565b820191906000526020600020905b8154815290600101906020018083116108b457829003601f168201915b50505050508152602001600182015481526020016002820160009054906101000a900460ff16600281111561090957610908610e8d565b5b600281111561091b5761091a610e8d565b5b81526020016003820154815260200160048201548152505081526020019060010190610825565b50505050905090565b6000600760003373ffffffffffffffffffffffffffffffffffffffff1673ffffffffffffffffffffffffffffffffffffffff16815260200190815260200160002054036109da57600061099d82610a18565b90506064816109ac9190611884565b816109b79190611537565b905060006109c36107aa565b90506109d3838383600080610264565b5050610a15565b6040517f08c379a0000000000000000000000000000000000000000000000000000000008152600401610a0c906119bc565b60405180910390fd5b50565b60008082604051602001610a2c9190611a18565b6040516020818303038152906040528051906020012060001c905060015481610a559190611884565b915050919050565b60066020528060005260406000206000915054906101000a900473ffffffffffffffffffffffffffffffffffffffff1681565b600073ffffffffffffffffffffffffffffffffffffffff82169050919050565b6000819050919050565b6000610ad5610ad0610acb84610a90565b610ab0565b610a90565b9050919050565b6000610ae782610aba565b9050919050565b6000610af982610adc565b9050919050565b610b0981610aee565b82525050565b6000602082019050610b246000830184610b00565b92915050565b6000604051905090565b600080fd5b600080fd5b600080fd5b600080fd5b6000601f19601f8301169050919050565b7f4e487b7100000000000000000000000000000000000000000000000000000000600052604160045260246000fd5b610b9182610b48565b810181811067ffffffffffffffff82111715610bb057610baf610b59565b5b80604052505050565b6000610bc3610b2a565b9050610bcf8282610b88565b919050565b600067ffffffffffffffff821115610bef57610bee610b59565b5b610bf882610b48565b9050602081019050919050565b82818337600083830152505050565b6000610c27610c2284610bd4565b610bb9565b905082815260208101848484011115610c4357610c42610b43565b5b610c4e848285610c05565b509392505050565b600082601f830112610c6b57610c6a610b3e565b5b8135610c7b848260208601610c14565b91505092915050565b6000819050919050565b610c9781610c84565b8114610ca257600080fd5b50565b600081359050610cb481610c8e565b92915050565b60038110610cc757600080fd5b50565b600081359050610cd981610cba565b92915050565b600080600080600060a08688031215610cfb57610cfa610b34565b5b600086013567ffffffffffffffff811115610d1957610d18610b39565b5b610d2588828901610c56565b9550506020610d3688828901610ca5565b9450506040610d4788828901610cca565b9350506060610d5888828901610ca5565b9250506080610d6988828901610ca5565b9150509295509295909350565b60008060408385031215610d8d57610d8c610b34565b5b600083013567ffffffffffffffff811115610dab57610daa610b39565b5b610db785828601610c56565b9250506020610dc885828601610cca565b9150509250929050565b600060208284031215610de857610de7610b34565b5b6000610df684828501610ca5565b91505092915050565b600081519050919050565b600082825260208201905092915050565b60005b83811015610e39578082015181840152602081019050610e1e565b60008484015250505050565b6000610e5082610dff565b610e5a8185610e0a565b9350610e6a818560208601610e1b565b610e7381610b48565b840191505092915050565b610e8781610c84565b82525050565b7f4e487b7100000000000000000000000000000000000000000000000000000000600052602160045260246000fd5b60038110610ecd57610ecc610e8d565b5b50565b6000819050610ede82610ebc565b919050565b6000610eee82610ed0565b9050919050565b610efe81610ee3565b82525050565b600060a0820190508181036000830152610f1e8188610e45565b9050610f2d6020830187610e7e565b610f3a6040830186610ef5565b610f476060830185610e7e565b610f546080830184610e7e565b9695505050505050565b6000610f6982610a90565b9050919050565b610f7981610f5e565b8114610f8457600080fd5b50565b600081359050610f9681610f70565b92915050565b600060208284031215610fb257610fb1610b34565b5b6000610fc084828501610f87565b91505092915050565b6000602082019050610fde6000830184610e7e565b92915050565b6000602082019050610ff96000830184610ef5565b92915050565b600081519050919050565b600082825260208201905092915050565b6000819050602082019050919050565b600082825260208201905092915050565b600061104782610dff565b611051818561102b565b9350611061818560208601610e1b565b61106a81610b48565b840191505092915050565b61107e81610c84565b82525050565b61108d81610ee3565b82525050565b600060a08301600083015184820360008601526110b0828261103c565b91505060208301516110c56020860182611075565b5060408301516110d86040860182611084565b5060608301516110eb6060860182611075565b5060808301516110fe6080860182611075565b508091505092915050565b60006111158383611093565b905092915050565b6000602082019050919050565b600061113582610fff565b61113f818561100a565b9350836020820285016111518561101b565b8060005b8581101561118d578484038952815161116e8582611109565b94506111798361111d565b925060208a01995050600181019050611155565b50829750879550505050505092915050565b600060208201905081810360008301526111b9818461112a565b905092915050565b6000602082840312156111d7576111d6610b34565b5b600082013567ffffffffffffffff8111156111f5576111f4610b39565b5b61120184828501610c56565b91505092915050565b61121381610f5e565b82525050565b600060208201905061122e600083018461120a565b92915050565b7f4e487b7100000000000000000000000000000000000000000000000000000000600052602260045260246000fd5b6000600282049050600182168061127b57607f821691505b60208210810361128e5761128d611234565b5b50919050565b60008190508160005260206000209050919050565b60006020601f8301049050919050565b600082821b905092915050565b6000600883026112f67fffffffffffffffffffffffffffffffffffffffffffffffffffffffffffffffff826112b9565b61130086836112b9565b95508019841693508086168417925050509392505050565b600061133361132e61132984610c84565b610ab0565b610c84565b9050919050565b6000819050919050565b61134d83611318565b6113616113598261133a565b8484546112c6565b825550505050565b600090565b611376611369565b611381818484611344565b505050565b5b818110156113a55761139a60008261136e565b600181019050611387565b5050565b601f8211156113ea576113bb81611294565b6113c4846112a9565b810160208510156113d3578190505b6113e76113df856112a9565b830182611386565b50505b505050565b600082821c905092915050565b600061140d600019846008026113ef565b1980831691505092915050565b600061142683836113fc565b9150826002028217905092915050565b61143f82610dff565b67ffffffffffffffff81111561145857611457610b59565b5b6114628254611263565b61146d8282856113a9565b600060209050601f8311600181146114a0576000841561148e578287015190505b611498858261141a565b865550611500565b601f1984166114ae86611294565b60005b828110156114d6578489015182556001820191506020850194506020810190506114b1565b868310156114f357848901516114ef601f8916826113fc565b8355505b6001600288020188555050505b505050505050565b7f4e487b7100000000000000000000000000000000000000000000000000000000600052601160045260246000fd5b600061154282610c84565b915061154d83610c84565b925082820390508181111561156557611564611508565b5b92915050565b600061157682610c84565b91507fffffffffffffffffffffffffffffffffffffffffffffffffffffffffffffffff82036115a8576115a7611508565b5b600182019050919050565b600060c0820190506115c86000830189610e7e565b81810360208301526115da8188610e45565b90506115e96040830187610e7e565b6115f66060830186610ef5565b6116036080830185610e7e565b61161060a0830184610e7e565b979650505050505050565b7f596f75206d757374206f776e206174206c65617374206f6e6520616e7420746f60008201527f20627579206d6f72652e00000000000000000000000000000000000000000000602082015250565b6000611677602a83610e0a565b91506116828261161b565b604082019050919050565b600060208201905081810360008301526116a68161166a565b9050919050565b6000815190506116bc81610c8e565b92915050565b6000602082840312156116d8576116d7610b34565b5b60006116e6848285016116ad565b91505092915050565b7f496e73756666696369656e7420566963746f7279546f6b656e732e0000000000600082015250565b6000611725601b83610e0a565b9150611730826116ef565b602082019050919050565b6000602082019050818103600083015261175481611718565b9050919050565b6000604082019050611770600083018561120a565b61177d6020830184610e7e565b9392505050565b60008115159050919050565b61179981611784565b81146117a457600080fd5b50565b6000815190506117b681611790565b92915050565b6000602082840312156117d2576117d1610b34565b5b60006117e0848285016117a7565b91505092915050565b7f546f6b656e207472616e73666572206661696c65642e00000000000000000000600082015250565b600061181f601683610e0a565b915061182a826117e9565b602082019050919050565b6000602082019050818103600083015261184e81611812565b9050919050565b7f4e487b7100000000000000000000000000000000000000000000000000000000600052601260045260246000fd5b600061188f82610c84565b915061189a83610c84565b9250826118aa576118a9611855565b5b828206905092915050565b6000819050919050565b6118d06118cb82610c84565b6118b5565b82525050565b60008160601b9050919050565b60006118ee826118d6565b9050919050565b6000611900826118e3565b9050919050565b61191861191382610f5e565b6118f5565b82525050565b600061192a82856118bf565b60208201915061193a8284611907565b6014820191508190509392505050565b7f596f7520616c7265616479206f776e20616e20616e742e20557365206275794160008201527f6e74427943686f69636520746f20627579206d6f72652e000000000000000000602082015250565b60006119a6603783610e0a565b91506119b18261194a565b604082019050919050565b600060208201905081810360008301526119d581611999565b9050919050565b600081905092915050565b60006119f282610dff565b6119fc81856119dc565b9350611a0c818560208601610e1b565b80840191505092915050565b6000611a2482846119e7565b91508190509291505056fea2646970667358221220514d2f21432459f98083fa8ec1cfb3938338e5b617b652c81206499adc7067d664736f6c63430008110033",
  "immutableReferences": {},
  "source": "// SPDX-License-Identifier: MIT\r\npragma solidity ^0.8.0;\r\nimport \"./victoryToken.sol\";\r\n\r\ncontract AntFactory {\r\n    event NewAnt(uint antId, string name, uint dna, Species species, uint winCount, uint lossCount);\r\n\r\n    uint dnaDigits = 16;\r\n    uint dnaModulus = 10 ** dnaDigits;\r\n    uint speciesModulus = 3;\r\n    uint public antPrice = 3;\r\n\r\n    VictoryToken public victoryToken;\r\n\r\n    enum Species { FireAnt, BlackCrazyAnt, CarpenterAnt }\r\n\r\n    struct Ant {\r\n        string name;\r\n        uint dna;\r\n        Species species;\r\n        uint winCount;\r\n        uint lossCount;\r\n    }\r\n\r\n    Ant[] public ants;\r\n\r\n    function getAnts() public view returns (Ant[] memory) {\r\n        return ants;\r\n    }\r\n\r\n    mapping (uint => address) public antToOwner;\r\n    mapping (address => uint) public ownerAntCount;\r\n\r\n    constructor(address _victoryTokenAddress) {\r\n        victoryToken = VictoryToken(_victoryTokenAddress);\r\n    }\r\n\r\n    function _createAnt(string memory _name, uint _dna, Species _species, uint _winCount, uint _lossCount) public {\r\n        ants.push(Ant(_name, _dna, _species, _winCount, _lossCount));\r\n        uint id = ants.length - 1;\r\n        antToOwner[id] = msg.sender;\r\n        ownerAntCount[msg.sender]++;\r\n        emit NewAnt(id, _name, _dna, _species, _winCount, _lossCount);\r\n    }\r\n\r\n    function _generateRandomDna(string memory _str) public view returns (uint) {\r\n        uint rand = uint(keccak256(abi.encodePacked(_str)));\r\n        return rand % dnaModulus;\r\n    }\r\n\r\n    function _generateRandomSpecies() public view returns (Species) {\r\n        uint randSpecies = uint(keccak256(abi.encodePacked(block.timestamp, msg.sender))) % speciesModulus;\r\n        return Species(randSpecies);\r\n    }\r\n\r\n    function createRandomAnt(string memory _name) public {\r\n        if (ownerAntCount[msg.sender] == 0) {\r\n            uint randDna = _generateRandomDna(_name);\r\n            randDna = randDna - randDna % 100;\r\n            Species randSpecies = _generateRandomSpecies();\r\n            _createAnt(_name, randDna, randSpecies, 0, 0);\r\n        }else {\r\n            revert(\"You already own an ant. Use buyAntByChoice to buy more.\");\r\n        }\r\n    }\r\n\r\n    function buyAntByChoice(string memory _name, Species _species) public {\r\n        require(ownerAntCount[msg.sender] > 0, \"You must own at least one ant to buy more.\");\r\n        require(victoryToken.balanceOf(msg.sender) >= antPrice, \"Insufficient VictoryTokens.\");\r\n\r\n        // Transfer VictoryTokens from the buyer to this contract\r\n        require(victoryToken.transfer(address(this), antPrice), \"Token transfer failed.\");\r\n\r\n        uint randDna = _generateRandomDna(_name);\r\n        randDna = randDna - randDna % 100;\r\n        _createAnt(_name, randDna, _species, 0, 0);\r\n    }\r\n}\r\n",
  "sourcePath": "C:\\Users\\brand\\Desktop\\erasmus\\blockchain\\blockchain_home_assignment\\contracts\\antfactory.sol",
  "compiler": {
    "name": "solc",
    "version": "0.8.17+commit.8df45f5f.Emscripten.clang"
  },
  "schemaVersion": "3.4.16",
  "updatedAt": "2024-06-07T09:24:52.694Z",
  "devdoc": {
    "kind": "dev",
    "methods": {},
    "version": 1
  },
  "userdoc": {
    "kind": "user",
    "methods": {},
    "version": 1
  }
}