{
  "contractName": "AntToken",
  "abi": [
    {
      "inputs": [
        {
          "internalType": "address",
          "name": "antFactoryAddress",
          "type": "address"
        },
        {
          "internalType": "address",
          "name": "initialOwner",
          "type": "address"
        }
      ],
      "stateMutability": "nonpayable",
      "type": "constructor"
    },
    {
      "inputs": [
        {
          "internalType": "address",
          "name": "sender",
          "type": "address"
        },
        {
          "internalType": "uint256",
          "name": "tokenId",
          "type": "uint256"
        },
        {
          "internalType": "address",
          "name": "owner",
          "type": "address"
        }
      ],
      "name": "ERC721IncorrectOwner",
      "type": "error"
    },
    {
      "inputs": [
        {
          "internalType": "address",
          "name": "operator",
          "type": "address"
        },
        {
          "internalType": "uint256",
          "name": "tokenId",
          "type": "uint256"
        }
      ],
      "name": "ERC721InsufficientApproval",
      "type": "error"
    },
    {
      "inputs": [
        {
          "internalType": "address",
          "name": "approver",
          "type": "address"
        }
      ],
      "name": "ERC721InvalidApprover",
      "type": "error"
    },
    {
      "inputs": [
        {
          "internalType": "address",
          "name": "operator",
          "type": "address"
        }
      ],
      "name": "ERC721InvalidOperator",
      "type": "error"
    },
    {
      "inputs": [
        {
          "internalType": "address",
          "name": "owner",
          "type": "address"
        }
      ],
      "name": "ERC721InvalidOwner",
      "type": "error"
    },
    {
      "inputs": [
        {
          "internalType": "address",
          "name": "receiver",
          "type": "address"
        }
      ],
      "name": "ERC721InvalidReceiver",
      "type": "error"
    },
    {
      "inputs": [
        {
          "internalType": "address",
          "name": "sender",
          "type": "address"
        }
      ],
      "name": "ERC721InvalidSender",
      "type": "error"
    },
    {
      "inputs": [
        {
          "internalType": "uint256",
          "name": "tokenId",
          "type": "uint256"
        }
      ],
      "name": "ERC721NonexistentToken",
      "type": "error"
    },
    {
      "inputs": [
        {
          "internalType": "address",
          "name": "owner",
          "type": "address"
        }
      ],
      "name": "OwnableInvalidOwner",
      "type": "error"
    },
    {
      "inputs": [
        {
          "internalType": "address",
          "name": "account",
          "type": "address"
        }
      ],
      "name": "OwnableUnauthorizedAccount",
      "type": "error"
    },
    {
      "anonymous": false,
      "inputs": [
        {
          "indexed": true,
          "internalType": "address",
          "name": "owner",
          "type": "address"
        },
        {
          "indexed": true,
          "internalType": "address",
          "name": "approved",
          "type": "address"
        },
        {
          "indexed": true,
          "internalType": "uint256",
          "name": "tokenId",
          "type": "uint256"
        }
      ],
      "name": "Approval",
      "type": "event"
    },
    {
      "anonymous": false,
      "inputs": [
        {
          "indexed": true,
          "internalType": "address",
          "name": "owner",
          "type": "address"
        },
        {
          "indexed": true,
          "internalType": "address",
          "name": "operator",
          "type": "address"
        },
        {
          "indexed": false,
          "internalType": "bool",
          "name": "approved",
          "type": "bool"
        }
      ],
      "name": "ApprovalForAll",
      "type": "event"
    },
    {
      "anonymous": false,
      "inputs": [
        {
          "indexed": false,
          "internalType": "uint256",
          "name": "_fromTokenId",
          "type": "uint256"
        },
        {
          "indexed": false,
          "internalType": "uint256",
          "name": "_toTokenId",
          "type": "uint256"
        }
      ],
      "name": "BatchMetadataUpdate",
      "type": "event"
    },
    {
      "anonymous": false,
      "inputs": [
        {
          "indexed": false,
          "internalType": "uint256",
          "name": "_tokenId",
          "type": "uint256"
        }
      ],
      "name": "MetadataUpdate",
      "type": "event"
    },
    {
      "anonymous": false,
      "inputs": [
        {
          "indexed": true,
          "internalType": "address",
          "name": "previousOwner",
          "type": "address"
        },
        {
          "indexed": true,
          "internalType": "address",
          "name": "newOwner",
          "type": "address"
        }
      ],
      "name": "OwnershipTransferred",
      "type": "event"
    },
    {
      "anonymous": false,
      "inputs": [
        {
          "indexed": true,
          "internalType": "address",
          "name": "from",
          "type": "address"
        },
        {
          "indexed": true,
          "internalType": "address",
          "name": "to",
          "type": "address"
        },
        {
          "indexed": true,
          "internalType": "uint256",
          "name": "tokenId",
          "type": "uint256"
        }
      ],
      "name": "Transfer",
      "type": "event"
    },
    {
      "inputs": [
        {
          "internalType": "address",
          "name": "to",
          "type": "address"
        },
        {
          "internalType": "uint256",
          "name": "tokenId",
          "type": "uint256"
        }
      ],
      "name": "approve",
      "outputs": [],
      "stateMutability": "nonpayable",
      "type": "function"
    },
    {
      "inputs": [
        {
          "internalType": "address",
          "name": "owner",
          "type": "address"
        }
      ],
      "name": "balanceOf",
      "outputs": [
        {
          "internalType": "uint256",
          "name": "",
          "type": "uint256"
        }
      ],
      "stateMutability": "view",
      "type": "function"
    },
    {
      "inputs": [
        {
          "internalType": "uint256",
          "name": "tokenId",
          "type": "uint256"
        }
      ],
      "name": "getApproved",
      "outputs": [
        {
          "internalType": "address",
          "name": "",
          "type": "address"
        }
      ],
      "stateMutability": "view",
      "type": "function"
    },
    {
      "inputs": [
        {
          "internalType": "address",
          "name": "owner",
          "type": "address"
        },
        {
          "internalType": "address",
          "name": "operator",
          "type": "address"
        }
      ],
      "name": "isApprovedForAll",
      "outputs": [
        {
          "internalType": "bool",
          "name": "",
          "type": "bool"
        }
      ],
      "stateMutability": "view",
      "type": "function"
    },
    {
      "inputs": [],
      "name": "name",
      "outputs": [
        {
          "internalType": "string",
          "name": "",
          "type": "string"
        }
      ],
      "stateMutability": "view",
      "type": "function"
    },
    {
      "inputs": [],
      "name": "owner",
      "outputs": [
        {
          "internalType": "address",
          "name": "",
          "type": "address"
        }
      ],
      "stateMutability": "view",
      "type": "function"
    },
    {
      "inputs": [
        {
          "internalType": "uint256",
          "name": "tokenId",
          "type": "uint256"
        }
      ],
      "name": "ownerOf",
      "outputs": [
        {
          "internalType": "address",
          "name": "",
          "type": "address"
        }
      ],
      "stateMutability": "view",
      "type": "function"
    },
    {
      "inputs": [],
      "name": "renounceOwnership",
      "outputs": [],
      "stateMutability": "nonpayable",
      "type": "function"
    },
    {
      "inputs": [
        {
          "internalType": "address",
          "name": "from",
          "type": "address"
        },
        {
          "internalType": "address",
          "name": "to",
          "type": "address"
        },
        {
          "internalType": "uint256",
          "name": "tokenId",
          "type": "uint256"
        }
      ],
      "name": "safeTransferFrom",
      "outputs": [],
      "stateMutability": "nonpayable",
      "type": "function"
    },
    {
      "inputs": [
        {
          "internalType": "address",
          "name": "from",
          "type": "address"
        },
        {
          "internalType": "address",
          "name": "to",
          "type": "address"
        },
        {
          "internalType": "uint256",
          "name": "tokenId",
          "type": "uint256"
        },
        {
          "internalType": "bytes",
          "name": "data",
          "type": "bytes"
        }
      ],
      "name": "safeTransferFrom",
      "outputs": [],
      "stateMutability": "nonpayable",
      "type": "function"
    },
    {
      "inputs": [
        {
          "internalType": "address",
          "name": "operator",
          "type": "address"
        },
        {
          "internalType": "bool",
          "name": "approved",
          "type": "bool"
        }
      ],
      "name": "setApprovalForAll",
      "outputs": [],
      "stateMutability": "nonpayable",
      "type": "function"
    },
    {
      "inputs": [
        {
          "internalType": "bytes4",
          "name": "interfaceId",
          "type": "bytes4"
        }
      ],
      "name": "supportsInterface",
      "outputs": [
        {
          "internalType": "bool",
          "name": "",
          "type": "bool"
        }
      ],
      "stateMutability": "view",
      "type": "function"
    },
    {
      "inputs": [],
      "name": "symbol",
      "outputs": [
        {
          "internalType": "string",
          "name": "",
          "type": "string"
        }
      ],
      "stateMutability": "view",
      "type": "function"
    },
    {
      "inputs": [
        {
          "internalType": "uint256",
          "name": "tokenId",
          "type": "uint256"
        }
      ],
      "name": "tokenURI",
      "outputs": [
        {
          "internalType": "string",
          "name": "",
          "type": "string"
        }
      ],
      "stateMutability": "view",
      "type": "function"
    },
    {
      "inputs": [
        {
          "internalType": "address",
          "name": "from",
          "type": "address"
        },
        {
          "internalType": "address",
          "name": "to",
          "type": "address"
        },
        {
          "internalType": "uint256",
          "name": "tokenId",
          "type": "uint256"
        }
      ],
      "name": "transferFrom",
      "outputs": [],
      "stateMutability": "nonpayable",
      "type": "function"
    },
    {
      "inputs": [
        {
          "internalType": "address",
          "name": "newOwner",
          "type": "address"
        }
      ],
      "name": "transferOwnership",
      "outputs": [],
      "stateMutability": "nonpayable",
      "type": "function"
    },
    {
      "inputs": [
        {
          "internalType": "address",
          "name": "recipient",
          "type": "address"
        },
        {
          "internalType": "string",
          "name": "tokenURI",
          "type": "string"
        }
      ],
      "name": "mintItem",
      "outputs": [
        {
          "internalType": "uint256",
          "name": "",
          "type": "uint256"
        }
      ],
      "stateMutability": "nonpayable",
      "type": "function"
    },
    {
      "inputs": [
        {
          "internalType": "string",
          "name": "_name",
          "type": "string"
        },
        {
          "internalType": "string",
          "name": "tokenURI",
          "type": "string"
        }
      ],
      "name": "createRandomAnt",
      "outputs": [],
      "stateMutability": "nonpayable",
      "type": "function"
    }
  ],
  "bytecode": "0x608060405234801562000010575f80fd5b5060405162003092380380620030928339818101604052810190620000369190620002bd565b806040518060400160405280600981526020017f416e7420546f6b656e00000000000000000000000000000000000000000000008152506040518060400160405280600381526020017f414e540000000000000000000000000000000000000000000000000000000000815250815f9081620000b3919062000566565b508060019081620000c5919062000566565b5050505f73ffffffffffffffffffffffffffffffffffffffff168173ffffffffffffffffffffffffffffffffffffffff16036200013b575f6040517f1e4fbdf70000000000000000000000000000000000000000000000000000000081526004016200013291906200065b565b60405180910390fd5b6200014c816200019560201b60201c565b508160085f6101000a81548173ffffffffffffffffffffffffffffffffffffffff021916908373ffffffffffffffffffffffffffffffffffffffff160217905550505062000676565b5f60075f9054906101000a900473ffffffffffffffffffffffffffffffffffffffff1690508160075f6101000a81548173ffffffffffffffffffffffffffffffffffffffff021916908373ffffffffffffffffffffffffffffffffffffffff1602179055508173ffffffffffffffffffffffffffffffffffffffff168173ffffffffffffffffffffffffffffffffffffffff167f8be0079c531659141344cd1fd0a4f28419497f9722a3daafe3b4186f6b6457e060405160405180910390a35050565b5f80fd5b5f73ffffffffffffffffffffffffffffffffffffffff82169050919050565b5f62000287826200025c565b9050919050565b62000299816200027b565b8114620002a4575f80fd5b50565b5f81519050620002b7816200028e565b92915050565b5f8060408385031215620002d657620002d562000258565b5b5f620002e585828601620002a7565b9250506020620002f885828601620002a7565b9150509250929050565b5f81519050919050565b7f4e487b71000000000000000000000000000000000000000000000000000000005f52604160045260245ffd5b7f4e487b71000000000000000000000000000000000000000000000000000000005f52602260045260245ffd5b5f60028204905060018216806200037e57607f821691505b60208210810362000394576200039362000339565b5b50919050565b5f819050815f5260205f209050919050565b5f6020601f8301049050919050565b5f82821b905092915050565b5f60088302620003f87fffffffffffffffffffffffffffffffffffffffffffffffffffffffffffffffff82620003bb565b620004048683620003bb565b95508019841693508086168417925050509392505050565b5f819050919050565b5f819050919050565b5f6200044e6200044862000442846200041c565b62000425565b6200041c565b9050919050565b5f819050919050565b62000469836200042e565b62000481620004788262000455565b848454620003c7565b825550505050565b5f90565b6200049762000489565b620004a48184846200045e565b505050565b5b81811015620004cb57620004bf5f826200048d565b600181019050620004aa565b5050565b601f8211156200051a57620004e4816200039a565b620004ef84620003ac565b81016020851015620004ff578190505b620005176200050e85620003ac565b830182620004a9565b50505b505050565b5f82821c905092915050565b5f6200053c5f19846008026200051f565b1980831691505092915050565b5f6200055683836200052b565b9150826002028217905092915050565b620005718262000302565b67ffffffffffffffff8111156200058d576200058c6200030c565b5b62000599825462000366565b620005a6828285620004cf565b5f60209050601f831160018114620005dc575f8415620005c7578287015190505b620005d3858262000549565b86555062000642565b601f198416620005ec866200039a565b5f5b828110156200061557848901518255600182019150602085019450602081019050620005ee565b8683101562000635578489015162000631601f8916826200052b565b8355505b6001600288020188555050505b505050505050565b62000655816200027b565b82525050565b5f602082019050620006705f8301846200064a565b92915050565b612a0e80620006845f395ff3fe608060405234801561000f575f80fd5b5060043610610114575f3560e01c8063715018a6116100a0578063a433c43c1161006f578063a433c43c146102dc578063b88d4fde146102f8578063c87b56dd14610314578063e985e9c514610344578063f2fde38b1461037457610114565b8063715018a61461027a5780638da5cb5b1461028457806395d89b41146102a2578063a22cb465146102c057610114565b8063110bcd45116100e7578063110bcd45146101b257806323b872dd146101e257806342842e0e146101fe5780636352211e1461021a57806370a082311461024a57610114565b806301ffc9a71461011857806306fdde0314610148578063081812fc14610166578063095ea7b314610196575b5f80fd5b610132600480360381019061012d9190611c5d565b610390565b60405161013f9190611ca2565b60405180910390f35b6101506103f0565b60405161015d9190611d45565b60405180910390f35b610180600480360381019061017b9190611d98565b61047f565b60405161018d9190611e02565b60405180910390f35b6101b060048036038101906101ab9190611e45565b61049a565b005b6101cc60048036038101906101c79190611faf565b6104b0565b6040516101d99190612018565b60405180910390f35b6101fc60048036038101906101f79190612031565b6104e2565b005b61021860048036038101906102139190612031565b6105e1565b005b610234600480360381019061022f9190611d98565b610600565b6040516102419190611e02565b60405180910390f35b610264600480360381019061025f9190612081565b610611565b6040516102719190612018565b60405180910390f35b6102826106c7565b005b61028c6106da565b6040516102999190611e02565b60405180910390f35b6102aa610702565b6040516102b79190611d45565b60405180910390f35b6102da60048036038101906102d591906120d6565b610792565b005b6102f660048036038101906102f19190612114565b6107a8565b005b610312600480360381019061030d9190612228565b6109ac565b005b61032e60048036038101906103299190611d98565b6109c9565b60405161033b9190611d45565b60405180910390f35b61035e600480360381019061035991906122a8565b610ad4565b60405161036b9190611ca2565b60405180910390f35b61038e60048036038101906103899190612081565b610b62565b005b5f634906490660e01b7bffffffffffffffffffffffffffffffffffffffffffffffffffffffff1916827bffffffffffffffffffffffffffffffffffffffffffffffffffffffff191614806103e957506103e882610be6565b5b9050919050565b60605f80546103fe90612313565b80601f016020809104026020016040519081016040528092919081815260200182805461042a90612313565b80156104755780601f1061044c57610100808354040283529160200191610475565b820191905f5260205f20905b81548152906001019060200180831161045857829003601f168201915b5050505050905090565b5f61048982610cc7565b5061049382610d4d565b9050919050565b6104ac82826104a7610d86565b610d8d565b5050565b5f6104b9610d9f565b5f6104c2610e26565b90506104ce8482610e46565b6104d88184610f39565b8091505092915050565b5f73ffffffffffffffffffffffffffffffffffffffff168273ffffffffffffffffffffffffffffffffffffffff1603610552575f6040517f64a0ae920000000000000000000000000000000000000000000000000000000081526004016105499190611e02565b60405180910390fd5b5f6105658383610560610d86565b610f93565b90508373ffffffffffffffffffffffffffffffffffffffff168173ffffffffffffffffffffffffffffffffffffffff16146105db578382826040517f64283d7b0000000000000000000000000000000000000000000000000000000081526004016105d293929190612343565b60405180910390fd5b50505050565b6105fb83838360405180602001604052805f8152506109ac565b505050565b5f61060a82610cc7565b9050919050565b5f8073ffffffffffffffffffffffffffffffffffffffff168273ffffffffffffffffffffffffffffffffffffffff1603610682575f6040517f89c62b640000000000000000000000000000000000000000000000000000000081526004016106799190611e02565b60405180910390fd5b60035f8373ffffffffffffffffffffffffffffffffffffffff1673ffffffffffffffffffffffffffffffffffffffff1681526020019081526020015f20549050919050565b6106cf610d9f565b6106d85f61119e565b565b5f60075f9054906101000a900473ffffffffffffffffffffffffffffffffffffffff16905090565b60606001805461071190612313565b80601f016020809104026020016040519081016040528092919081815260200182805461073d90612313565b80156107885780601f1061075f57610100808354040283529160200191610788565b820191905f5260205f20905b81548152906001019060200180831161076b57829003601f168201915b5050505050905090565b6107a461079d610d86565b8383611261565b5050565b6107b0610d9f565b5f60085f9054906101000a900473ffffffffffffffffffffffffffffffffffffffff1673ffffffffffffffffffffffffffffffffffffffff1663df57a6ec846040518263ffffffff1660e01b815260040161080b9190611d45565b602060405180830381865afa158015610826573d5f803e3d5ffd5b505050506040513d601f19601f8201168201806040525081019061084a919061238c565b905060648161085991906123e4565b816108649190612441565b90505f60085f9054906101000a900473ffffffffffffffffffffffffffffffffffffffff1673ffffffffffffffffffffffffffffffffffffffff16635bd49b2d6040518163ffffffff1660e01b8152600401602060405180830381865afa1580156108d1573d5f803e3d5ffd5b505050506040513d601f19601f820116820180604052508101906108f59190612497565b905060085f9054906101000a900473ffffffffffffffffffffffffffffffffffffffff1673ffffffffffffffffffffffffffffffffffffffff166308e64aac8584845f806040518663ffffffff1660e01b8152600401610959959493929190612577565b5f604051808303815f87803b158015610970575f80fd5b505af1158015610982573d5f803e3d5ffd5b505050505f61098f610e26565b905061099b3382610e46565b6109a58185610f39565b5050505050565b6109b78484846104e2565b6109c3848484846113ca565b50505050565b60606109d482610cc7565b505f60065f8481526020019081526020015f2080546109f290612313565b80601f0160208091040260200160405190810160405280929190818152602001828054610a1e90612313565b8015610a695780601f10610a4057610100808354040283529160200191610a69565b820191905f5260205f20905b815481529060010190602001808311610a4c57829003601f168201915b505050505090505f610a7961157c565b90505f815103610a8d578192505050610acf565b5f82511115610ac1578082604051602001610aa9929190612609565b60405160208183030381529060405292505050610acf565b610aca84611592565b925050505b919050565b5f60055f8473ffffffffffffffffffffffffffffffffffffffff1673ffffffffffffffffffffffffffffffffffffffff1681526020019081526020015f205f8373ffffffffffffffffffffffffffffffffffffffff1673ffffffffffffffffffffffffffffffffffffffff1681526020019081526020015f205f9054906101000a900460ff16905092915050565b610b6a610d9f565b5f73ffffffffffffffffffffffffffffffffffffffff168173ffffffffffffffffffffffffffffffffffffffff1603610bda575f6040517f1e4fbdf7000000000000000000000000000000000000000000000000000000008152600401610bd19190611e02565b60405180910390fd5b610be38161119e565b50565b5f7f80ac58cd000000000000000000000000000000000000000000000000000000007bffffffffffffffffffffffffffffffffffffffffffffffffffffffff1916827bffffffffffffffffffffffffffffffffffffffffffffffffffffffff19161480610cb057507f5b5e139f000000000000000000000000000000000000000000000000000000007bffffffffffffffffffffffffffffffffffffffffffffffffffffffff1916827bffffffffffffffffffffffffffffffffffffffffffffffffffffffff1916145b80610cc05750610cbf826115f8565b5b9050919050565b5f80610cd283611661565b90505f73ffffffffffffffffffffffffffffffffffffffff168173ffffffffffffffffffffffffffffffffffffffff1603610d4457826040517f7e273289000000000000000000000000000000000000000000000000000000008152600401610d3b9190612018565b60405180910390fd5b80915050919050565b5f60045f8381526020019081526020015f205f9054906101000a900473ffffffffffffffffffffffffffffffffffffffff169050919050565b5f33905090565b610d9a838383600161169a565b505050565b610da7610d86565b73ffffffffffffffffffffffffffffffffffffffff16610dc56106da565b73ffffffffffffffffffffffffffffffffffffffff1614610e2457610de8610d86565b6040517f118cdaa7000000000000000000000000000000000000000000000000000000008152600401610e1b9190611e02565b60405180910390fd5b565b5f60095f815480929190610e399061262c565b9190505550600954905090565b5f73ffffffffffffffffffffffffffffffffffffffff168273ffffffffffffffffffffffffffffffffffffffff1603610eb6575f6040517f64a0ae92000000000000000000000000000000000000000000000000000000008152600401610ead9190611e02565b60405180910390fd5b5f610ec283835f610f93565b90505f73ffffffffffffffffffffffffffffffffffffffff168173ffffffffffffffffffffffffffffffffffffffff1614610f34575f6040517f73c6ac6e000000000000000000000000000000000000000000000000000000008152600401610f2b9190611e02565b60405180910390fd5b505050565b8060065f8481526020019081526020015f209081610f579190612807565b507ff8e1a15aba9398e019f0b49df1a4fde98ee17ae345cb5f6b5e2c27f5033e8ce782604051610f879190612018565b60405180910390a15050565b5f80610f9e84611661565b90505f73ffffffffffffffffffffffffffffffffffffffff168373ffffffffffffffffffffffffffffffffffffffff1614610fdf57610fde818486611859565b5b5f73ffffffffffffffffffffffffffffffffffffffff168173ffffffffffffffffffffffffffffffffffffffff161461106a5761101e5f855f8061169a565b600160035f8373ffffffffffffffffffffffffffffffffffffffff1673ffffffffffffffffffffffffffffffffffffffff1681526020019081526020015f205f82825403925050819055505b5f73ffffffffffffffffffffffffffffffffffffffff168573ffffffffffffffffffffffffffffffffffffffff16146110e957600160035f8773ffffffffffffffffffffffffffffffffffffffff1673ffffffffffffffffffffffffffffffffffffffff1681526020019081526020015f205f82825401925050819055505b8460025f8681526020019081526020015f205f6101000a81548173ffffffffffffffffffffffffffffffffffffffff021916908373ffffffffffffffffffffffffffffffffffffffff160217905550838573ffffffffffffffffffffffffffffffffffffffff168273ffffffffffffffffffffffffffffffffffffffff167fddf252ad1be2c89b69c2b068fc378daa952ba7f163c4a11628f55a4df523b3ef60405160405180910390a4809150509392505050565b5f60075f9054906101000a900473ffffffffffffffffffffffffffffffffffffffff1690508160075f6101000a81548173ffffffffffffffffffffffffffffffffffffffff021916908373ffffffffffffffffffffffffffffffffffffffff1602179055508173ffffffffffffffffffffffffffffffffffffffff168173ffffffffffffffffffffffffffffffffffffffff167f8be0079c531659141344cd1fd0a4f28419497f9722a3daafe3b4186f6b6457e060405160405180910390a35050565b5f73ffffffffffffffffffffffffffffffffffffffff168273ffffffffffffffffffffffffffffffffffffffff16036112d157816040517f5b08ba180000000000000000000000000000000000000000000000000000000081526004016112c89190611e02565b60405180910390fd5b8060055f8573ffffffffffffffffffffffffffffffffffffffff1673ffffffffffffffffffffffffffffffffffffffff1681526020019081526020015f205f8473ffffffffffffffffffffffffffffffffffffffff1673ffffffffffffffffffffffffffffffffffffffff1681526020019081526020015f205f6101000a81548160ff0219169083151502179055508173ffffffffffffffffffffffffffffffffffffffff168373ffffffffffffffffffffffffffffffffffffffff167f17307eab39ab6107e8899845ad3d59bd9653f200f220920489ca2b5937696c31836040516113bd9190611ca2565b60405180910390a3505050565b5f8373ffffffffffffffffffffffffffffffffffffffff163b1115611576578273ffffffffffffffffffffffffffffffffffffffff1663150b7a0261140d610d86565b8685856040518563ffffffff1660e01b815260040161142f9493929190612928565b6020604051808303815f875af192505050801561146a57506040513d601f19601f820116820180604052508101906114679190612986565b60015b6114eb573d805f8114611498576040519150601f19603f3d011682016040523d82523d5f602084013e61149d565b606091505b505f8151036114e357836040517f64a0ae920000000000000000000000000000000000000000000000000000000081526004016114da9190611e02565b60405180910390fd5b805181602001fd5b63150b7a0260e01b7bffffffffffffffffffffffffffffffffffffffffffffffffffffffff1916817bffffffffffffffffffffffffffffffffffffffffffffffffffffffff19161461157457836040517f64a0ae9200000000000000000000000000000000000000000000000000000000815260040161156b9190611e02565b60405180910390fd5b505b50505050565b606060405180602001604052805f815250905090565b606061159d82610cc7565b505f6115a761157c565b90505f8151116115c55760405180602001604052805f8152506115f0565b806115cf8461191c565b6040516020016115e0929190612609565b6040516020818303038152906040525b915050919050565b5f7f01ffc9a7000000000000000000000000000000000000000000000000000000007bffffffffffffffffffffffffffffffffffffffffffffffffffffffff1916827bffffffffffffffffffffffffffffffffffffffffffffffffffffffff1916149050919050565b5f60025f8381526020019081526020015f205f9054906101000a900473ffffffffffffffffffffffffffffffffffffffff169050919050565b80806116d257505f73ffffffffffffffffffffffffffffffffffffffff168273ffffffffffffffffffffffffffffffffffffffff1614155b15611804575f6116e184610cc7565b90505f73ffffffffffffffffffffffffffffffffffffffff168373ffffffffffffffffffffffffffffffffffffffff161415801561174b57508273ffffffffffffffffffffffffffffffffffffffff168173ffffffffffffffffffffffffffffffffffffffff1614155b801561175e575061175c8184610ad4565b155b156117a057826040517fa9fbf51f0000000000000000000000000000000000000000000000000000000081526004016117979190611e02565b60405180910390fd5b811561180257838573ffffffffffffffffffffffffffffffffffffffff168273ffffffffffffffffffffffffffffffffffffffff167f8c5be1e5ebec7d5bd14f71427d1e84f3dd0314c0f7b2291e5b200ac8c7c3b92560405160405180910390a45b505b8360045f8581526020019081526020015f205f6101000a81548173ffffffffffffffffffffffffffffffffffffffff021916908373ffffffffffffffffffffffffffffffffffffffff16021790555050505050565b6118648383836119e6565b611917575f73ffffffffffffffffffffffffffffffffffffffff168373ffffffffffffffffffffffffffffffffffffffff16036118d857806040517f7e2732890000000000000000000000000000000000000000000000000000000081526004016118cf9190612018565b60405180910390fd5b81816040517f177e802f00000000000000000000000000000000000000000000000000000000815260040161190e9291906129b1565b60405180910390fd5b505050565b60605f600161192a84611aa6565b0190505f8167ffffffffffffffff81111561194857611947611e8b565b5b6040519080825280601f01601f19166020018201604052801561197a5781602001600182028036833780820191505090505b5090505f82602001820190505b6001156119db578080600190039150507f3031323334353637383961626364656600000000000000000000000000000000600a86061a8153600a85816119d0576119cf6123b7565b5b0494505f8503611987575b819350505050919050565b5f8073ffffffffffffffffffffffffffffffffffffffff168373ffffffffffffffffffffffffffffffffffffffff1614158015611a9d57508273ffffffffffffffffffffffffffffffffffffffff168473ffffffffffffffffffffffffffffffffffffffff161480611a5e5750611a5d8484610ad4565b5b80611a9c57508273ffffffffffffffffffffffffffffffffffffffff16611a8483610d4d565b73ffffffffffffffffffffffffffffffffffffffff16145b5b90509392505050565b5f805f90507a184f03e93ff9f4daa797ed6e38ed64bf6a1f0100000000000000008310611b02577a184f03e93ff9f4daa797ed6e38ed64bf6a1f0100000000000000008381611af857611af76123b7565b5b0492506040810190505b6d04ee2d6d415b85acef81000000008310611b3f576d04ee2d6d415b85acef81000000008381611b3557611b346123b7565b5b0492506020810190505b662386f26fc100008310611b6e57662386f26fc100008381611b6457611b636123b7565b5b0492506010810190505b6305f5e1008310611b97576305f5e1008381611b8d57611b8c6123b7565b5b0492506008810190505b6127108310611bbc576127108381611bb257611bb16123b7565b5b0492506004810190505b60648310611bdf5760648381611bd557611bd46123b7565b5b0492506002810190505b600a8310611bee576001810190505b80915050919050565b5f604051905090565b5f80fd5b5f80fd5b5f7fffffffff0000000000000000000000000000000000000000000000000000000082169050919050565b611c3c81611c08565b8114611c46575f80fd5b50565b5f81359050611c5781611c33565b92915050565b5f60208284031215611c7257611c71611c00565b5b5f611c7f84828501611c49565b91505092915050565b5f8115159050919050565b611c9c81611c88565b82525050565b5f602082019050611cb55f830184611c93565b92915050565b5f81519050919050565b5f82825260208201905092915050565b5f5b83811015611cf2578082015181840152602081019050611cd7565b5f8484015250505050565b5f601f19601f8301169050919050565b5f611d1782611cbb565b611d218185611cc5565b9350611d31818560208601611cd5565b611d3a81611cfd565b840191505092915050565b5f6020820190508181035f830152611d5d8184611d0d565b905092915050565b5f819050919050565b611d7781611d65565b8114611d81575f80fd5b50565b5f81359050611d9281611d6e565b92915050565b5f60208284031215611dad57611dac611c00565b5b5f611dba84828501611d84565b91505092915050565b5f73ffffffffffffffffffffffffffffffffffffffff82169050919050565b5f611dec82611dc3565b9050919050565b611dfc81611de2565b82525050565b5f602082019050611e155f830184611df3565b92915050565b611e2481611de2565b8114611e2e575f80fd5b50565b5f81359050611e3f81611e1b565b92915050565b5f8060408385031215611e5b57611e5a611c00565b5b5f611e6885828601611e31565b9250506020611e7985828601611d84565b9150509250929050565b5f80fd5b5f80fd5b7f4e487b71000000000000000000000000000000000000000000000000000000005f52604160045260245ffd5b611ec182611cfd565b810181811067ffffffffffffffff82111715611ee057611edf611e8b565b5b80604052505050565b5f611ef2611bf7565b9050611efe8282611eb8565b919050565b5f67ffffffffffffffff821115611f1d57611f1c611e8b565b5b611f2682611cfd565b9050602081019050919050565b828183375f83830152505050565b5f611f53611f4e84611f03565b611ee9565b905082815260208101848484011115611f6f57611f6e611e87565b5b611f7a848285611f33565b509392505050565b5f82601f830112611f9657611f95611e83565b5b8135611fa6848260208601611f41565b91505092915050565b5f8060408385031215611fc557611fc4611c00565b5b5f611fd285828601611e31565b925050602083013567ffffffffffffffff811115611ff357611ff2611c04565b5b611fff85828601611f82565b9150509250929050565b61201281611d65565b82525050565b5f60208201905061202b5f830184612009565b92915050565b5f805f6060848603121561204857612047611c00565b5b5f61205586828701611e31565b935050602061206686828701611e31565b925050604061207786828701611d84565b9150509250925092565b5f6020828403121561209657612095611c00565b5b5f6120a384828501611e31565b91505092915050565b6120b581611c88565b81146120bf575f80fd5b50565b5f813590506120d0816120ac565b92915050565b5f80604083850312156120ec576120eb611c00565b5b5f6120f985828601611e31565b925050602061210a858286016120c2565b9150509250929050565b5f806040838503121561212a57612129611c00565b5b5f83013567ffffffffffffffff81111561214757612146611c04565b5b61215385828601611f82565b925050602083013567ffffffffffffffff81111561217457612173611c04565b5b61218085828601611f82565b9150509250929050565b5f67ffffffffffffffff8211156121a4576121a3611e8b565b5b6121ad82611cfd565b9050602081019050919050565b5f6121cc6121c78461218a565b611ee9565b9050828152602081018484840111156121e8576121e7611e87565b5b6121f3848285611f33565b509392505050565b5f82601f83011261220f5761220e611e83565b5b813561221f8482602086016121ba565b91505092915050565b5f805f80608085870312156122405761223f611c00565b5b5f61224d87828801611e31565b945050602061225e87828801611e31565b935050604061226f87828801611d84565b925050606085013567ffffffffffffffff8111156122905761228f611c04565b5b61229c878288016121fb565b91505092959194509250565b5f80604083850312156122be576122bd611c00565b5b5f6122cb85828601611e31565b92505060206122dc85828601611e31565b9150509250929050565b7f4e487b71000000000000000000000000000000000000000000000000000000005f52602260045260245ffd5b5f600282049050600182168061232a57607f821691505b60208210810361233d5761233c6122e6565b5b50919050565b5f6060820190506123565f830186611df3565b6123636020830185612009565b6123706040830184611df3565b949350505050565b5f8151905061238681611d6e565b92915050565b5f602082840312156123a1576123a0611c00565b5b5f6123ae84828501612378565b91505092915050565b7f4e487b71000000000000000000000000000000000000000000000000000000005f52601260045260245ffd5b5f6123ee82611d65565b91506123f983611d65565b925082612409576124086123b7565b5b828206905092915050565b7f4e487b71000000000000000000000000000000000000000000000000000000005f52601160045260245ffd5b5f61244b82611d65565b915061245683611d65565b925082820390508181111561246e5761246d612414565b5b92915050565b60038110612480575f80fd5b50565b5f8151905061249181612474565b92915050565b5f602082840312156124ac576124ab611c00565b5b5f6124b984828501612483565b91505092915050565b7f4e487b71000000000000000000000000000000000000000000000000000000005f52602160045260245ffd5b60038110612500576124ff6124c2565b5b50565b5f819050612510826124ef565b919050565b5f61251f82612503565b9050919050565b61252f81612515565b82525050565b5f819050919050565b5f819050919050565b5f61256161255c61255784612535565b61253e565b611d65565b9050919050565b61257181612547565b82525050565b5f60a0820190508181035f83015261258f8188611d0d565b905061259e6020830187612009565b6125ab6040830186612526565b6125b86060830185612568565b6125c56080830184612568565b9695505050505050565b5f81905092915050565b5f6125e382611cbb565b6125ed81856125cf565b93506125fd818560208601611cd5565b80840191505092915050565b5f61261482856125d9565b915061262082846125d9565b91508190509392505050565b5f61263682611d65565b91507fffffffffffffffffffffffffffffffffffffffffffffffffffffffffffffffff820361266857612667612414565b5b600182019050919050565b5f819050815f5260205f209050919050565b5f6020601f8301049050919050565b5f82821b905092915050565b5f600883026126cf7fffffffffffffffffffffffffffffffffffffffffffffffffffffffffffffffff82612694565b6126d98683612694565b95508019841693508086168417925050509392505050565b5f61270b61270661270184611d65565b61253e565b611d65565b9050919050565b5f819050919050565b612724836126f1565b61273861273082612712565b8484546126a0565b825550505050565b5f90565b61274c612740565b61275781848461271b565b505050565b5b8181101561277a5761276f5f82612744565b60018101905061275d565b5050565b601f8211156127bf5761279081612673565b61279984612685565b810160208510156127a8578190505b6127bc6127b485612685565b83018261275c565b50505b505050565b5f82821c905092915050565b5f6127df5f19846008026127c4565b1980831691505092915050565b5f6127f783836127d0565b9150826002028217905092915050565b61281082611cbb565b67ffffffffffffffff81111561282957612828611e8b565b5b6128338254612313565b61283e82828561277e565b5f60209050601f83116001811461286f575f841561285d578287015190505b61286785826127ec565b8655506128ce565b601f19841661287d86612673565b5f5b828110156128a45784890151825560018201915060208501945060208101905061287f565b868310156128c157848901516128bd601f8916826127d0565b8355505b6001600288020188555050505b505050505050565b5f81519050919050565b5f82825260208201905092915050565b5f6128fa826128d6565b61290481856128e0565b9350612914818560208601611cd5565b61291d81611cfd565b840191505092915050565b5f60808201905061293b5f830187611df3565b6129486020830186611df3565b6129556040830185612009565b818103606083015261296781846128f0565b905095945050505050565b5f8151905061298081611c33565b92915050565b5f6020828403121561299b5761299a611c00565b5b5f6129a884828501612972565b91505092915050565b5f6040820190506129c45f830185611df3565b6129d16020830184612009565b939250505056fea26469706673582212202580031001b13381cd23553db1f8236deb44c649efe98ef3438eb18c8cfb1d1764736f6c63430008150033",
  "immutableReferences": {},
  "source": "// SPDX-License-Identifier: MIT\r\npragma solidity ^0.8.0;\r\n\r\nimport \"@openzeppelin/contracts/token/ERC721/extensions/ERC721URIStorage.sol\";\r\nimport \"@openzeppelin/contracts/access/Ownable.sol\";\r\nimport \"./antfactory.sol\";\r\n\r\ncontract AntToken is ERC721URIStorage, Ownable {\r\n    AntFactory private antFactory; // Instance of AntFactory contract\r\n    uint256 private _tokenIdTracker;\r\n\r\n    constructor(address antFactoryAddress, address initialOwner) ERC721(\"Ant Token\", \"ANT\") Ownable(initialOwner) {\r\n        antFactory = AntFactory(antFactoryAddress); // Initialize AntFactory contract instance\r\n    }\r\n\r\n    function mintItem(address recipient, string memory tokenURI) public onlyOwner returns (uint256) {\r\n        uint256 newItemId = _getNextTokenId();\r\n        _mint(recipient, newItemId);\r\n        _setTokenURI(newItemId, tokenURI);\r\n        return newItemId;\r\n    }\r\n\r\n    function createRandomAnt(string memory _name, string memory tokenURI) public onlyOwner {\r\n        uint randDna = antFactory._generateRandomDna(_name); // Call function from AntFactory contract\r\n        randDna = randDna - randDna % 100;\r\n        AntFactory.Species randSpecies = antFactory._generateRandomSpecies(); // Call function from AntFactory contract\r\n        antFactory._createAnt(_name, randDna, randSpecies, 0, 0); // Call function from AntFactory contract\r\n\r\n        uint256 newItemId = _getNextTokenId();\r\n        _mint(msg.sender, newItemId);\r\n        _setTokenURI(newItemId, tokenURI);\r\n    }\r\n\r\n    function _getNextTokenId() private returns (uint256) {\r\n        _tokenIdTracker++;\r\n        return _tokenIdTracker;\r\n    }\r\n}\r\n",
  "sourcePath": "C:\\Users\\brand\\Desktop\\erasmus\\blockchain\\blockchain_home_assignment\\contracts\\antToken.sol",
  "compiler": {
    "name": "solc",
    "version": "0.8.21+commit.d9974bed.Emscripten.clang"
  },
  "schemaVersion": "3.4.16",
  "updatedAt": "2024-05-27T17:15:49.102Z",
  "devdoc": {
    "errors": {
      "ERC721IncorrectOwner(address,uint256,address)": [
        {
          "details": "Indicates an error related to the ownership over a particular token. Used in transfers.",
          "params": {
            "owner": "Address of the current owner of a token.",
            "sender": "Address whose tokens are being transferred.",
            "tokenId": "Identifier number of a token."
          }
        }
      ],
      "ERC721InsufficientApproval(address,uint256)": [
        {
          "details": "Indicates a failure with the `operator`s approval. Used in transfers.",
          "params": {
            "operator": "Address that may be allowed to operate on tokens without being their owner.",
            "tokenId": "Identifier number of a token."
          }
        }
      ],
      "ERC721InvalidApprover(address)": [
        {
          "details": "Indicates a failure with the `approver` of a token to be approved. Used in approvals.",
          "params": {
            "approver": "Address initiating an approval operation."
          }
        }
      ],
      "ERC721InvalidOperator(address)": [
        {
          "details": "Indicates a failure with the `operator` to be approved. Used in approvals.",
          "params": {
            "operator": "Address that may be allowed to operate on tokens without being their owner."
          }
        }
      ],
      "ERC721InvalidOwner(address)": [
        {
          "details": "Indicates that an address can't be an owner. For example, `address(0)` is a forbidden owner in EIP-20. Used in balance queries.",
          "params": {
            "owner": "Address of the current owner of a token."
          }
        }
      ],
      "ERC721InvalidReceiver(address)": [
        {
          "details": "Indicates a failure with the token `receiver`. Used in transfers.",
          "params": {
            "receiver": "Address to which tokens are being transferred."
          }
        }
      ],
      "ERC721InvalidSender(address)": [
        {
          "details": "Indicates a failure with the token `sender`. Used in transfers.",
          "params": {
            "sender": "Address whose tokens are being transferred."
          }
        }
      ],
      "ERC721NonexistentToken(uint256)": [
        {
          "details": "Indicates a `tokenId` whose `owner` is the zero address.",
          "params": {
            "tokenId": "Identifier number of a token."
          }
        }
      ],
      "OwnableInvalidOwner(address)": [
        {
          "details": "The owner is not a valid owner account. (eg. `address(0)`)"
        }
      ],
      "OwnableUnauthorizedAccount(address)": [
        {
          "details": "The caller account is not authorized to perform an operation."
        }
      ]
    },
    "events": {
      "Approval(address,address,uint256)": {
        "details": "Emitted when `owner` enables `approved` to manage the `tokenId` token."
      },
      "ApprovalForAll(address,address,bool)": {
        "details": "Emitted when `owner` enables or disables (`approved`) `operator` to manage all of its assets."
      },
      "BatchMetadataUpdate(uint256,uint256)": {
        "details": "This event emits when the metadata of a range of tokens is changed. So that the third-party platforms such as NFT market could timely update the images and related attributes of the NFTs."
      },
      "MetadataUpdate(uint256)": {
        "details": "This event emits when the metadata of a token is changed. So that the third-party platforms such as NFT market could timely update the images and related attributes of the NFT."
      },
      "Transfer(address,address,uint256)": {
        "details": "Emitted when `tokenId` token is transferred from `from` to `to`."
      }
    },
    "kind": "dev",
    "methods": {
      "approve(address,uint256)": {
        "details": "See {IERC721-approve}."
      },
      "balanceOf(address)": {
        "details": "See {IERC721-balanceOf}."
      },
      "getApproved(uint256)": {
        "details": "See {IERC721-getApproved}."
      },
      "isApprovedForAll(address,address)": {
        "details": "See {IERC721-isApprovedForAll}."
      },
      "name()": {
        "details": "See {IERC721Metadata-name}."
      },
      "owner()": {
        "details": "Returns the address of the current owner."
      },
      "ownerOf(uint256)": {
        "details": "See {IERC721-ownerOf}."
      },
      "renounceOwnership()": {
        "details": "Leaves the contract without owner. It will not be possible to call `onlyOwner` functions. Can only be called by the current owner. NOTE: Renouncing ownership will leave the contract without an owner, thereby disabling any functionality that is only available to the owner."
      },
      "safeTransferFrom(address,address,uint256)": {
        "details": "See {IERC721-safeTransferFrom}."
      },
      "safeTransferFrom(address,address,uint256,bytes)": {
        "details": "See {IERC721-safeTransferFrom}."
      },
      "setApprovalForAll(address,bool)": {
        "details": "See {IERC721-setApprovalForAll}."
      },
      "supportsInterface(bytes4)": {
        "details": "See {IERC165-supportsInterface}"
      },
      "symbol()": {
        "details": "See {IERC721Metadata-symbol}."
      },
      "tokenURI(uint256)": {
        "details": "See {IERC721Metadata-tokenURI}."
      },
      "transferFrom(address,address,uint256)": {
        "details": "See {IERC721-transferFrom}."
      },
      "transferOwnership(address)": {
        "details": "Transfers ownership of the contract to a new account (`newOwner`). Can only be called by the current owner."
      }
    },
    "version": 1
  },
  "userdoc": {
    "kind": "user",
    "methods": {},
    "version": 1
  }
}