{
  "contractName": "AntToken",
  "abi": [
    {
      "inputs": [
        {
          "internalType": "address",
          "name": "_victoryTokenAddress",
          "type": "address"
        }
      ],
      "stateMutability": "nonpayable",
      "type": "constructor"
    },
    {
      "anonymous": false,
      "inputs": [
        {
          "indexed": false,
          "internalType": "uint256",
          "name": "antId",
          "type": "uint256"
        },
        {
          "indexed": false,
          "internalType": "string",
          "name": "name",
          "type": "string"
        },
        {
          "indexed": false,
          "internalType": "uint256",
          "name": "dna",
          "type": "uint256"
        },
        {
          "indexed": false,
          "internalType": "enum AntFactory.Species",
          "name": "species",
          "type": "uint8"
        },
        {
          "indexed": false,
          "internalType": "uint256",
          "name": "winCount",
          "type": "uint256"
        },
        {
          "indexed": false,
          "internalType": "uint256",
          "name": "lossCount",
          "type": "uint256"
        }
      ],
      "name": "NewAnt",
      "type": "event"
    },
    {
      "anonymous": false,
      "inputs": [
        {
          "indexed": true,
          "internalType": "address",
          "name": "_from",
          "type": "address"
        },
        {
          "indexed": true,
          "internalType": "address",
          "name": "_to",
          "type": "address"
        },
        {
          "indexed": true,
          "internalType": "uint256",
          "name": "_tokenId",
          "type": "uint256"
        }
      ],
      "name": "Transfer",
      "type": "event"
    },
    {
      "inputs": [
        {
          "internalType": "string",
          "name": "_name",
          "type": "string"
        },
        {
          "internalType": "uint256",
          "name": "_dna",
          "type": "uint256"
        },
        {
          "internalType": "enum AntFactory.Species",
          "name": "_species",
          "type": "uint8"
        },
        {
          "internalType": "uint256",
          "name": "_winCount",
          "type": "uint256"
        },
        {
          "internalType": "uint256",
          "name": "_lossCount",
          "type": "uint256"
        }
      ],
      "name": "_createAnt",
      "outputs": [],
      "stateMutability": "nonpayable",
      "type": "function"
    },
    {
      "inputs": [
        {
          "internalType": "string",
          "name": "_str",
          "type": "string"
        }
      ],
      "name": "_generateRandomDna",
      "outputs": [
        {
          "internalType": "uint256",
          "name": "",
          "type": "uint256"
        }
      ],
      "stateMutability": "view",
      "type": "function",
      "constant": true
    },
    {
      "inputs": [],
      "name": "_generateRandomSpecies",
      "outputs": [
        {
          "internalType": "enum AntFactory.Species",
          "name": "",
          "type": "uint8"
        }
      ],
      "stateMutability": "view",
      "type": "function",
      "constant": true
    },
    {
      "inputs": [],
      "name": "antPrice",
      "outputs": [
        {
          "internalType": "uint256",
          "name": "",
          "type": "uint256"
        }
      ],
      "stateMutability": "view",
      "type": "function",
      "constant": true
    },
    {
      "inputs": [
        {
          "internalType": "uint256",
          "name": "",
          "type": "uint256"
        }
      ],
      "name": "antToOwner",
      "outputs": [
        {
          "internalType": "address",
          "name": "",
          "type": "address"
        }
      ],
      "stateMutability": "view",
      "type": "function",
      "constant": true
    },
    {
      "inputs": [
        {
          "internalType": "uint256",
          "name": "",
          "type": "uint256"
        }
      ],
      "name": "ants",
      "outputs": [
        {
          "internalType": "string",
          "name": "name",
          "type": "string"
        },
        {
          "internalType": "uint256",
          "name": "dna",
          "type": "uint256"
        },
        {
          "internalType": "enum AntFactory.Species",
          "name": "species",
          "type": "uint8"
        },
        {
          "internalType": "uint256",
          "name": "winCount",
          "type": "uint256"
        },
        {
          "internalType": "uint256",
          "name": "lossCount",
          "type": "uint256"
        }
      ],
      "stateMutability": "view",
      "type": "function",
      "constant": true
    },
    {
      "inputs": [
        {
          "internalType": "uint256",
          "name": "_antId",
          "type": "uint256"
        },
        {
          "internalType": "uint256",
          "name": "_targetId",
          "type": "uint256"
        }
      ],
      "name": "attack",
      "outputs": [],
      "stateMutability": "nonpayable",
      "type": "function"
    },
    {
      "inputs": [
        {
          "internalType": "string",
          "name": "_name",
          "type": "string"
        },
        {
          "internalType": "enum AntFactory.Species",
          "name": "_species",
          "type": "uint8"
        }
      ],
      "name": "buyAntByChoice",
      "outputs": [],
      "stateMutability": "nonpayable",
      "type": "function"
    },
    {
      "inputs": [
        {
          "internalType": "string",
          "name": "_name",
          "type": "string"
        }
      ],
      "name": "createRandomAnt",
      "outputs": [],
      "stateMutability": "nonpayable",
      "type": "function"
    },
    {
      "inputs": [],
      "name": "getAnts",
      "outputs": [
        {
          "components": [
            {
              "internalType": "string",
              "name": "name",
              "type": "string"
            },
            {
              "internalType": "uint256",
              "name": "dna",
              "type": "uint256"
            },
            {
              "internalType": "enum AntFactory.Species",
              "name": "species",
              "type": "uint8"
            },
            {
              "internalType": "uint256",
              "name": "winCount",
              "type": "uint256"
            },
            {
              "internalType": "uint256",
              "name": "lossCount",
              "type": "uint256"
            }
          ],
          "internalType": "struct AntFactory.Ant[]",
          "name": "",
          "type": "tuple[]"
        }
      ],
      "stateMutability": "view",
      "type": "function",
      "constant": true
    },
    {
      "inputs": [
        {
          "internalType": "address",
          "name": "_owner",
          "type": "address"
        }
      ],
      "name": "getAntsByOwner",
      "outputs": [
        {
          "internalType": "uint256[]",
          "name": "",
          "type": "uint256[]"
        }
      ],
      "stateMutability": "view",
      "type": "function",
      "constant": true
    },
    {
      "inputs": [
        {
          "internalType": "address",
          "name": "",
          "type": "address"
        }
      ],
      "name": "ownerAntCount",
      "outputs": [
        {
          "internalType": "uint256",
          "name": "",
          "type": "uint256"
        }
      ],
      "stateMutability": "view",
      "type": "function",
      "constant": true
    },
    {
      "inputs": [],
      "name": "victoryToken",
      "outputs": [
        {
          "internalType": "contract VictoryToken",
          "name": "",
          "type": "address"
        }
      ],
      "stateMutability": "view",
      "type": "function",
      "constant": true
    },
    {
      "inputs": [
        {
          "internalType": "address",
          "name": "_owner",
          "type": "address"
        }
      ],
      "name": "balanceOf",
      "outputs": [
        {
          "internalType": "uint256",
          "name": "",
          "type": "uint256"
        }
      ],
      "stateMutability": "view",
      "type": "function",
      "constant": true
    },
    {
      "inputs": [
        {
          "internalType": "uint256",
          "name": "_tokenId",
          "type": "uint256"
        }
      ],
      "name": "ownerOf",
      "outputs": [
        {
          "internalType": "address",
          "name": "",
          "type": "address"
        }
      ],
      "stateMutability": "view",
      "type": "function",
      "constant": true
    },
    {
      "inputs": [
        {
          "internalType": "address",
          "name": "_from",
          "type": "address"
        },
        {
          "internalType": "address",
          "name": "_to",
          "type": "address"
        },
        {
          "internalType": "uint256",
          "name": "_tokenId",
          "type": "uint256"
        }
      ],
      "name": "transferFrom",
      "outputs": [],
      "stateMutability": "payable",
      "type": "function",
      "payable": true
    }
  ],
  "bytecode": "0x60806040526010600055600054600a6200001a919062000383565b6001556003600255678ac7230489e80000600355600060085560326009553480156200004557600080fd5b5060405162002fa638038062002fa683398181016040528101906200006b91906200043e565b808080600460006101000a81548173ffffffffffffffffffffffffffffffffffffffff021916908373ffffffffffffffffffffffffffffffffffffffff160217905550506014600a6000806002811115620000cb57620000ca62000470565b5b8152602001908152602001600020600060016002811115620000f257620000f162000470565b5b8152602001908152602001600020819055506014600a60006001600281111562000121576200012062000470565b5b8152602001908152602001600020600060028081111562000147576200014662000470565b5b8152602001908152602001600020819055506014600a600060028081111562000175576200017462000470565b5b815260200190815260200160002060008060028111156200019b576200019a62000470565b5b81526020019081526020016000208190555080600460006101000a81548173ffffffffffffffffffffffffffffffffffffffff021916908373ffffffffffffffffffffffffffffffffffffffff16021790555050506200049f565b7f4e487b7100000000000000000000000000000000000000000000000000000000600052601160045260246000fd5b60008160011c9050919050565b6000808291508390505b600185111562000284578086048111156200025c576200025b620001f6565b5b60018516156200026c5780820291505b80810290506200027c8562000225565b94506200023c565b94509492505050565b6000826200029f576001905062000372565b81620002af576000905062000372565b8160018114620002c85760028114620002d35762000309565b600191505062000372565b60ff841115620002e857620002e7620001f6565b5b8360020a915084821115620003025762000301620001f6565b5b5062000372565b5060208310610133831016604e8410600b8410161715620003435782820a9050838111156200033d576200033c620001f6565b5b62000372565b62000352848484600162000232565b925090508184048111156200036c576200036b620001f6565b5b81810290505b9392505050565b6000819050919050565b6000620003908262000379565b91506200039d8362000379565b9250620003cc7fffffffffffffffffffffffffffffffffffffffffffffffffffffffffffffffff84846200028d565b905092915050565b600080fd5b600073ffffffffffffffffffffffffffffffffffffffff82169050919050565b60006200040682620003d9565b9050919050565b6200041881620003f9565b81146200042457600080fd5b50565b60008151905062000438816200040d565b92915050565b600060208284031215620004575762000456620003d4565b5b6000620004678482850162000427565b91505092915050565b7f4e487b7100000000000000000000000000000000000000000000000000000000600052602160045260246000fd5b612af780620004af6000396000f3fe6080604052600436106100f35760003560e01c80635bd49b2d1161008a578063df30775411610059578063df30775414610347578063df57a6ec14610370578063e1fa7638146103ad578063f770031c146103d6576100f3565b80635bd49b2d146102775780636352211e146102a257806370a08231146102df578063a8847d9d1461031c576100f3565b806323b872dd116100c657806323b872dd146101b6578063265f980a146101d25780635126443b1461020f578063520f7c0e1461024c576100f3565b80630192e414146100f857806308e64aac146101235780630e0fda451461014c578063109dcfe614610175575b600080fd5b34801561010457600080fd5b5061010d610413565b60405161011a9190611654565b60405180910390f35b34801561012f57600080fd5b5061014a60048036038101906101459190611824565b610439565b005b34801561015857600080fd5b50610173600480360381019061016e91906118bb565b610609565b005b34801561018157600080fd5b5061019c60048036038101906101979190611917565b610888565b6040516101ad959493929190611a49565b60405180910390f35b6101d060048036038101906101cb9190611ae1565b610963565b005b3480156101de57600080fd5b506101f960048036038101906101f49190611b34565b610a47565b6040516102069190611c1f565b60405180910390f35b34801561021b57600080fd5b5061023660048036038101906102319190611b34565b610b99565b6040516102439190611c41565b60405180910390f35b34801561025857600080fd5b50610261610bb1565b60405161026e9190611c41565b60405180910390f35b34801561028357600080fd5b5061028c610bb7565b6040516102999190611c5c565b60405180910390f35b3480156102ae57600080fd5b506102c960048036038101906102c49190611917565b610c0e565b6040516102d69190611c86565b60405180910390f35b3480156102eb57600080fd5b5061030660048036038101906103019190611b34565b610c4b565b6040516103139190611c41565b60405180910390f35b34801561032857600080fd5b50610331610c94565b60405161033e9190611e32565b60405180910390f35b34801561035357600080fd5b5061036e60048036038101906103699190611e54565b610dde565b005b34801561037c57600080fd5b5061039760048036038101906103929190611e54565b610eab565b6040516103a49190611c41565b60405180910390f35b3480156103b957600080fd5b506103d460048036038101906103cf9190611e9d565b610ef0565b005b3480156103e257600080fd5b506103fd60048036038101906103f89190611917565b6113b0565b60405161040a9190611c86565b60405180910390f35b600460009054906101000a900473ffffffffffffffffffffffffffffffffffffffff1681565b60056040518060a00160405280878152602001868152602001856002811115610465576104646119d2565b5b815260200184815260200183815250908060018154018082558091505060019003906000526020600020906005020160009091909190915060008201518160000190816104b291906120df565b506020820151816001015560408201518160020160006101000a81548160ff021916908360028111156104e8576104e76119d2565b5b0217905550606082015181600301556080820151816004015550506000600160058054905061051791906121e0565b9050336006600083815260200190815260200160002060006101000a81548173ffffffffffffffffffffffffffffffffffffffff021916908373ffffffffffffffffffffffffffffffffffffffff160217905550600760003373ffffffffffffffffffffffffffffffffffffffff1673ffffffffffffffffffffffffffffffffffffffff16815260200190815260200160002060008154809291906105bb90612214565b91905055507f97b1514c5150294825105d3d34fda558beea8e579828e9a7d2f63b8259ff22018187878787876040516105f99695949392919061225c565b60405180910390a1505050505050565b6000600760003373ffffffffffffffffffffffffffffffffffffffff1673ffffffffffffffffffffffffffffffffffffffff168152602001908152602001600020541161068b576040517f08c379a000000000000000000000000000000000000000000000000000000000815260040161068290612336565b60405180910390fd5b600354600460009054906101000a900473ffffffffffffffffffffffffffffffffffffffff1673ffffffffffffffffffffffffffffffffffffffff166370a08231336040518263ffffffff1660e01b81526004016106e99190611c86565b602060405180830381865afa158015610706573d6000803e3d6000fd5b505050506040513d601f19601f8201168201806040525081019061072a919061236b565b101561076b576040517f08c379a0000000000000000000000000000000000000000000000000000000008152600401610762906123e4565b60405180910390fd5b600460009054906101000a900473ffffffffffffffffffffffffffffffffffffffff1673ffffffffffffffffffffffffffffffffffffffff166323b872dd33306003546040518463ffffffff1660e01b81526004016107cc93929190612404565b6020604051808303816000875af11580156107eb573d6000803e3d6000fd5b505050506040513d601f19601f8201168201806040525081019061080f9190612473565b61084e576040517f08c379a0000000000000000000000000000000000000000000000000000000008152600401610845906124ec565b60405180910390fd5b600061085983610eab565b9050606481610868919061253b565b8161087391906121e0565b9050610883838284600080610439565b505050565b6005818154811061089857600080fd5b90600052602060002090600502016000915090508060000180546108bb90611f0c565b80601f01602080910402602001604051908101604052809291908181526020018280546108e790611f0c565b80156109345780601f1061090957610100808354040283529160200191610934565b820191906000526020600020905b81548152906001019060200180831161091757829003601f168201915b5050505050908060010154908060020160009054906101000a900460ff16908060030154908060040154905085565b3373ffffffffffffffffffffffffffffffffffffffff166006600083815260200190815260200160002060009054906101000a900473ffffffffffffffffffffffffffffffffffffffff1673ffffffffffffffffffffffffffffffffffffffff161480610a2e57503373ffffffffffffffffffffffffffffffffffffffff16600b600083815260200190815260200160002060009054906101000a900473ffffffffffffffffffffffffffffffffffffffff1673ffffffffffffffffffffffffffffffffffffffff16145b610a3757600080fd5b610a428383836113e3565b505050565b60606000600760008473ffffffffffffffffffffffffffffffffffffffff1673ffffffffffffffffffffffffffffffffffffffff1681526020019081526020016000205467ffffffffffffffff811115610aa457610aa361169e565b5b604051908082528060200260200182016040528015610ad25781602001602082028036833780820191505090505b5090506000805b600580549050811015610b8e578473ffffffffffffffffffffffffffffffffffffffff166006600083815260200190815260200160002060009054906101000a900473ffffffffffffffffffffffffffffffffffffffff1673ffffffffffffffffffffffffffffffffffffffff1603610b7b5780838381518110610b6057610b5f61256c565b5b6020026020010181815250508180610b7790612214565b9250505b8080610b8690612214565b915050610ad9565b508192505050919050565b60076020528060005260406000206000915090505481565b60035481565b6000806002544233604051602001610bd0929190612604565b6040516020818303038152906040528051906020012060001c610bf3919061253b565b9050806002811115610c0857610c076119d2565b5b91505090565b60006006600083815260200190815260200160002060009054906101000a900473ffffffffffffffffffffffffffffffffffffffff169050919050565b6000600760008373ffffffffffffffffffffffffffffffffffffffff1673ffffffffffffffffffffffffffffffffffffffff168152602001908152602001600020549050919050565b60606005805480602002602001604051908101604052809291908181526020016000905b82821015610dd557838290600052602060002090600502016040518060a0016040529081600082018054610ceb90611f0c565b80601f0160208091040260200160405190810160405280929190818152602001828054610d1790611f0c565b8015610d645780601f10610d3957610100808354040283529160200191610d64565b820191906000526020600020905b815481529060010190602001808311610d4757829003601f168201915b50505050508152602001600182015481526020016002820160009054906101000a900460ff166002811115610d9c57610d9b6119d2565b5b6002811115610dae57610dad6119d2565b5b81526020016003820154815260200160048201548152505081526020019060010190610cb8565b50505050905090565b6000600760003373ffffffffffffffffffffffffffffffffffffffff1673ffffffffffffffffffffffffffffffffffffffff1681526020019081526020016000205403610e6d576000610e3082610eab565b9050606481610e3f919061253b565b81610e4a91906121e0565b90506000610e56610bb7565b9050610e66838383600080610439565b5050610ea8565b6040517f08c379a0000000000000000000000000000000000000000000000000000000008152600401610e9f906126a2565b60405180910390fd5b50565b60008082604051602001610ebf91906126fe565b6040516020818303038152906040528051906020012060001c905060015481610ee8919061253b565b915050919050565b6006600083815260200190815260200160002060009054906101000a900473ffffffffffffffffffffffffffffffffffffffff1673ffffffffffffffffffffffffffffffffffffffff163373ffffffffffffffffffffffffffffffffffffffff1614610f91576040517f08c379a0000000000000000000000000000000000000000000000000000000008152600401610f8890612787565b60405180910390fd5b600060058381548110610fa757610fa661256c565b5b90600052602060002090600502019050600060058381548110610fcd57610fcc61256c565b5b906000526020600020906005020190506000610fe9606461153f565b905060008360020160009054906101000a900460ff16905060008360020160009054906101000a900460ff1690506000600a60008460028111156110305761102f6119d2565b5b81526020019081526020016000206000836002811115611053576110526119d2565b5b815260200190815260200160002054905060006009549050600082111561108357818161108091906127a7565b90505b8085116112285786600301600081548092919061109f90612214565b9190505550600a86600101546110b591906127db565b8760010160008282546110c891906127a7565b925050819055508560040160008154809291906110e490612214565b9190505550600460009054906101000a900473ffffffffffffffffffffffffffffffffffffffff1673ffffffffffffffffffffffffffffffffffffffff16634e6ec24733600460009054906101000a900473ffffffffffffffffffffffffffffffffffffffff1673ffffffffffffffffffffffffffffffffffffffff1663313ce5676040518163ffffffff1660e01b8152600401602060405180830381865afa158015611195573d6000803e3d6000fd5b505050506040513d601f19601f820116820180604052508101906111b99190612845565b60ff16600a6111c891906129a5565b600a6111d491906129f0565b6040518363ffffffff1660e01b81526004016111f1929190612a32565b600060405180830381600087803b15801561120b57600080fd5b505af115801561121f573d6000803e3d6000fd5b505050506113a5565b86600401600081548092919061123d90612214565b919050555085600301600081548092919061125790612214565b9190505550600061126789611598565b9050600460009054906101000a900473ffffffffffffffffffffffffffffffffffffffff1673ffffffffffffffffffffffffffffffffffffffff16634e6ec24782600460009054906101000a900473ffffffffffffffffffffffffffffffffffffffff1673ffffffffffffffffffffffffffffffffffffffff1663313ce5676040518163ffffffff1660e01b8152600401602060405180830381865afa158015611315573d6000803e3d6000fd5b505050506040513d601f19601f820116820180604052508101906113399190612845565b60ff16600a61134891906129a5565b600a61135491906129f0565b6040518363ffffffff1660e01b8152600401611371929190612a32565b600060405180830381600087803b15801561138b57600080fd5b505af115801561139f573d6000803e3d6000fd5b50505050505b505050505050505050565b60066020528060005260406000206000915054906101000a900473ffffffffffffffffffffffffffffffffffffffff1681565b600760008373ffffffffffffffffffffffffffffffffffffffff1673ffffffffffffffffffffffffffffffffffffffff168152602001908152602001600020600081548092919061143390612214565b9190505550600760008473ffffffffffffffffffffffffffffffffffffffff1673ffffffffffffffffffffffffffffffffffffffff168152602001908152602001600020600081548092919061148890612a5b565b9190505550816006600083815260200190815260200160002060006101000a81548173ffffffffffffffffffffffffffffffffffffffff021916908373ffffffffffffffffffffffffffffffffffffffff160217905550808273ffffffffffffffffffffffffffffffffffffffff168473ffffffffffffffffffffffffffffffffffffffff167fddf252ad1be2c89b69c2b068fc378daa952ba7f163c4a11628f55a4df523b3ef60405160405180910390a4505050565b6000600160085461155091906127a7565b60088190555081423360085460405160200161156e93929190612a84565b6040516020818303038152906040528051906020012060001c611591919061253b565b9050919050565b60006006600083815260200190815260200160002060009054906101000a900473ffffffffffffffffffffffffffffffffffffffff169050919050565b600073ffffffffffffffffffffffffffffffffffffffff82169050919050565b6000819050919050565b600061161a611615611610846115d5565b6115f5565b6115d5565b9050919050565b600061162c826115ff565b9050919050565b600061163e82611621565b9050919050565b61164e81611633565b82525050565b60006020820190506116696000830184611645565b92915050565b6000604051905090565b600080fd5b600080fd5b600080fd5b600080fd5b6000601f19601f8301169050919050565b7f4e487b7100000000000000000000000000000000000000000000000000000000600052604160045260246000fd5b6116d68261168d565b810181811067ffffffffffffffff821117156116f5576116f461169e565b5b80604052505050565b600061170861166f565b905061171482826116cd565b919050565b600067ffffffffffffffff8211156117345761173361169e565b5b61173d8261168d565b9050602081019050919050565b82818337600083830152505050565b600061176c61176784611719565b6116fe565b90508281526020810184848401111561178857611787611688565b5b61179384828561174a565b509392505050565b600082601f8301126117b0576117af611683565b5b81356117c0848260208601611759565b91505092915050565b6000819050919050565b6117dc816117c9565b81146117e757600080fd5b50565b6000813590506117f9816117d3565b92915050565b6003811061180c57600080fd5b50565b60008135905061181e816117ff565b92915050565b600080600080600060a086880312156118405761183f611679565b5b600086013567ffffffffffffffff81111561185e5761185d61167e565b5b61186a8882890161179b565b955050602061187b888289016117ea565b945050604061188c8882890161180f565b935050606061189d888289016117ea565b92505060806118ae888289016117ea565b9150509295509295909350565b600080604083850312156118d2576118d1611679565b5b600083013567ffffffffffffffff8111156118f0576118ef61167e565b5b6118fc8582860161179b565b925050602061190d8582860161180f565b9150509250929050565b60006020828403121561192d5761192c611679565b5b600061193b848285016117ea565b91505092915050565b600081519050919050565b600082825260208201905092915050565b60005b8381101561197e578082015181840152602081019050611963565b60008484015250505050565b600061199582611944565b61199f818561194f565b93506119af818560208601611960565b6119b88161168d565b840191505092915050565b6119cc816117c9565b82525050565b7f4e487b7100000000000000000000000000000000000000000000000000000000600052602160045260246000fd5b60038110611a1257611a116119d2565b5b50565b6000819050611a2382611a01565b919050565b6000611a3382611a15565b9050919050565b611a4381611a28565b82525050565b600060a0820190508181036000830152611a63818861198a565b9050611a7260208301876119c3565b611a7f6040830186611a3a565b611a8c60608301856119c3565b611a9960808301846119c3565b9695505050505050565b6000611aae826115d5565b9050919050565b611abe81611aa3565b8114611ac957600080fd5b50565b600081359050611adb81611ab5565b92915050565b600080600060608486031215611afa57611af9611679565b5b6000611b0886828701611acc565b9350506020611b1986828701611acc565b9250506040611b2a868287016117ea565b9150509250925092565b600060208284031215611b4a57611b49611679565b5b6000611b5884828501611acc565b91505092915050565b600081519050919050565b600082825260208201905092915050565b6000819050602082019050919050565b611b96816117c9565b82525050565b6000611ba88383611b8d565b60208301905092915050565b6000602082019050919050565b6000611bcc82611b61565b611bd68185611b6c565b9350611be183611b7d565b8060005b83811015611c12578151611bf98882611b9c565b9750611c0483611bb4565b925050600181019050611be5565b5085935050505092915050565b60006020820190508181036000830152611c398184611bc1565b905092915050565b6000602082019050611c5660008301846119c3565b92915050565b6000602082019050611c716000830184611a3a565b92915050565b611c8081611aa3565b82525050565b6000602082019050611c9b6000830184611c77565b92915050565b600081519050919050565b600082825260208201905092915050565b6000819050602082019050919050565b600082825260208201905092915050565b6000611ce982611944565b611cf38185611ccd565b9350611d03818560208601611960565b611d0c8161168d565b840191505092915050565b611d2081611a28565b82525050565b600060a0830160008301518482036000860152611d438282611cde565b9150506020830151611d586020860182611b8d565b506040830151611d6b6040860182611d17565b506060830151611d7e6060860182611b8d565b506080830151611d916080860182611b8d565b508091505092915050565b6000611da88383611d26565b905092915050565b6000602082019050919050565b6000611dc882611ca1565b611dd28185611cac565b935083602082028501611de485611cbd565b8060005b85811015611e205784840389528151611e018582611d9c565b9450611e0c83611db0565b925060208a01995050600181019050611de8565b50829750879550505050505092915050565b60006020820190508181036000830152611e4c8184611dbd565b905092915050565b600060208284031215611e6a57611e69611679565b5b600082013567ffffffffffffffff811115611e8857611e8761167e565b5b611e948482850161179b565b91505092915050565b60008060408385031215611eb457611eb3611679565b5b6000611ec2858286016117ea565b9250506020611ed3858286016117ea565b9150509250929050565b7f4e487b7100000000000000000000000000000000000000000000000000000000600052602260045260246000fd5b60006002820490506001821680611f2457607f821691505b602082108103611f3757611f36611edd565b5b50919050565b60008190508160005260206000209050919050565b60006020601f8301049050919050565b600082821b905092915050565b600060088302611f9f7fffffffffffffffffffffffffffffffffffffffffffffffffffffffffffffffff82611f62565b611fa98683611f62565b95508019841693508086168417925050509392505050565b6000611fdc611fd7611fd2846117c9565b6115f5565b6117c9565b9050919050565b6000819050919050565b611ff683611fc1565b61200a61200282611fe3565b848454611f6f565b825550505050565b600090565b61201f612012565b61202a818484611fed565b505050565b5b8181101561204e57612043600082612017565b600181019050612030565b5050565b601f8211156120935761206481611f3d565b61206d84611f52565b8101602085101561207c578190505b61209061208885611f52565b83018261202f565b50505b505050565b600082821c905092915050565b60006120b660001984600802612098565b1980831691505092915050565b60006120cf83836120a5565b9150826002028217905092915050565b6120e882611944565b67ffffffffffffffff8111156121015761210061169e565b5b61210b8254611f0c565b612116828285612052565b600060209050601f8311600181146121495760008415612137578287015190505b61214185826120c3565b8655506121a9565b601f19841661215786611f3d565b60005b8281101561217f5784890151825560018201915060208501945060208101905061215a565b8683101561219c5784890151612198601f8916826120a5565b8355505b6001600288020188555050505b505050505050565b7f4e487b7100000000000000000000000000000000000000000000000000000000600052601160045260246000fd5b60006121eb826117c9565b91506121f6836117c9565b925082820390508181111561220e5761220d6121b1565b5b92915050565b600061221f826117c9565b91507fffffffffffffffffffffffffffffffffffffffffffffffffffffffffffffffff8203612251576122506121b1565b5b600182019050919050565b600060c08201905061227160008301896119c3565b8181036020830152612283818861198a565b905061229260408301876119c3565b61229f6060830186611a3a565b6122ac60808301856119c3565b6122b960a08301846119c3565b979650505050505050565b7f596f75206d757374206f776e206174206c65617374206f6e6520616e7420746f60008201527f20627579206d6f72652e00000000000000000000000000000000000000000000602082015250565b6000612320602a8361194f565b915061232b826122c4565b604082019050919050565b6000602082019050818103600083015261234f81612313565b9050919050565b600081519050612365816117d3565b92915050565b60006020828403121561238157612380611679565b5b600061238f84828501612356565b91505092915050565b7f496e73756666696369656e7420566963746f7279546f6b656e732e0000000000600082015250565b60006123ce601b8361194f565b91506123d982612398565b602082019050919050565b600060208201905081810360008301526123fd816123c1565b9050919050565b60006060820190506124196000830186611c77565b6124266020830185611c77565b61243360408301846119c3565b949350505050565b60008115159050919050565b6124508161243b565b811461245b57600080fd5b50565b60008151905061246d81612447565b92915050565b60006020828403121561248957612488611679565b5b60006124978482850161245e565b91505092915050565b7f546f6b656e207472616e73666572206661696c65642e00000000000000000000600082015250565b60006124d660168361194f565b91506124e1826124a0565b602082019050919050565b60006020820190508181036000830152612505816124c9565b9050919050565b7f4e487b7100000000000000000000000000000000000000000000000000000000600052601260045260246000fd5b6000612546826117c9565b9150612551836117c9565b9250826125615761256061250c565b5b828206905092915050565b7f4e487b7100000000000000000000000000000000000000000000000000000000600052603260045260246000fd5b6000819050919050565b6125b66125b1826117c9565b61259b565b82525050565b60008160601b9050919050565b60006125d4826125bc565b9050919050565b60006125e6826125c9565b9050919050565b6125fe6125f982611aa3565b6125db565b82525050565b600061261082856125a5565b60208201915061262082846125ed565b6014820191508190509392505050565b7f596f7520616c7265616479206f776e20616e20616e742e20557365206275794160008201527f6e74427943686f69636520746f20627579206d6f72652e000000000000000000602082015250565b600061268c60378361194f565b915061269782612630565b604082019050919050565b600060208201905081810360008301526126bb8161267f565b9050919050565b600081905092915050565b60006126d882611944565b6126e281856126c2565b93506126f2818560208601611960565b80840191505092915050565b600061270a82846126cd565b915081905092915050565b7f596f752063616e206f6e6c792061747461636b207769746820796f7572206f7760008201527f6e20616e74000000000000000000000000000000000000000000000000000000602082015250565b600061277160258361194f565b915061277c82612715565b604082019050919050565b600060208201905081810360008301526127a081612764565b9050919050565b60006127b2826117c9565b91506127bd836117c9565b92508282019050808211156127d5576127d46121b1565b5b92915050565b60006127e6826117c9565b91506127f1836117c9565b9250826128015761280061250c565b5b828204905092915050565b600060ff82169050919050565b6128228161280c565b811461282d57600080fd5b50565b60008151905061283f81612819565b92915050565b60006020828403121561285b5761285a611679565b5b600061286984828501612830565b91505092915050565b60008160011c9050919050565b6000808291508390505b60018511156128c9578086048111156128a5576128a46121b1565b5b60018516156128b45780820291505b80810290506128c285612872565b9450612889565b94509492505050565b6000826128e2576001905061299e565b816128f0576000905061299e565b816001811461290657600281146129105761293f565b600191505061299e565b60ff841115612922576129216121b1565b5b8360020a915084821115612939576129386121b1565b5b5061299e565b5060208310610133831016604e8410600b84101617156129745782820a90508381111561296f5761296e6121b1565b5b61299e565b612981848484600161287f565b92509050818404811115612998576129976121b1565b5b81810290505b9392505050565b60006129b0826117c9565b91506129bb836117c9565b92506129e87fffffffffffffffffffffffffffffffffffffffffffffffffffffffffffffffff84846128d2565b905092915050565b60006129fb826117c9565b9150612a06836117c9565b9250828202612a14816117c9565b91508282048414831517612a2b57612a2a6121b1565b5b5092915050565b6000604082019050612a476000830185611c77565b612a5460208301846119c3565b9392505050565b6000612a66826117c9565b915060008203612a7957612a786121b1565b5b600182039050919050565b6000612a9082866125a5565b602082019150612aa082856125ed565b601482019150612ab082846125a5565b60208201915081905094935050505056fea264697066735822122043086a900351dab41d9949fcd05a98287a86d034f34529617e67b71ce14fd15264736f6c63430008110033",
  "immutableReferences": {},
  "source": "// SPDX-License-Identifier: MIT\r\npragma solidity ^0.8.0;\r\n\r\nimport \"./ownable.sol\";\r\nimport \"./antbattle.sol\";\r\n\r\ncontract AntToken is AntBattle {\r\n  constructor(address _victoryTokenAddress) AntBattle(_victoryTokenAddress) {\r\n  }\r\n\r\n  event Transfer(address indexed _from, address indexed _to, uint256 indexed _tokenId);\r\n  // event Approval(address indexed _owner, address indexed _approved, uint256 indexed _tokenId);\r\n\r\n  // function balanceOf(address _owner) external view virtual returns (uint256);\r\n  // function ownerOf(uint256 _tokenId) external view virtual returns (address);\r\n  // function transferFrom(address _from, address _to, uint256 _tokenId) external payable virtual;\r\n  // function approve(address _approved, uint256 _tokenId) external payable virtual;\r\n\r\n  mapping (uint => address) antApprovals;\r\n\r\n  function balanceOf(address _owner) external view returns (uint256) {\r\n    return ownerAntCount[_owner];\r\n  }\r\n\r\n  function ownerOf(uint256 _tokenId) external view returns (address) {\r\n    return antToOwner[_tokenId];\r\n  }\r\n\r\n  // function _transfer(address _from, address _to, uint256 _tokenId) private {\r\n  //   ownerAntCount[_to] = ownerAntCount[_to]++;\r\n  //   ownerAntCount[msg.sender] = ownerAntCount[msg.sender]--;\r\n  //   antToOwner[_tokenId] = _to;\r\n  //   emit Transfer(_from, _to, _tokenId);\r\n  // }\r\n  function _transfer(address _from, address _to, uint256 _tokenId) private {\r\n    // Increase ant count for the new owner and decrease for the previous owner\r\n    ownerAntCount[_to]++;\r\n    ownerAntCount[_from]--;\r\n\r\n    antToOwner[_tokenId] = _to;\r\n    emit Transfer(_from, _to, _tokenId);\r\n  }\r\n\r\n  function transferFrom(address _from, address _to, uint256 _tokenId) external payable {\r\n    require (antToOwner[_tokenId] == msg.sender || antApprovals[_tokenId] == msg.sender);\r\n    _transfer(_from, _to, _tokenId);\r\n  }\r\n\r\n  // function approve(address _approved, uint256 _tokenId) external payable override onlyOwnerOf(_tokenId) {\r\n  //   antApprovals[_tokenId] = _approved;\r\n  //   emit Approval(msg.sender, _approved, _tokenId);\r\n  // }\r\n}\r\n",
  "sourcePath": "C:\\Users\\brand\\Desktop\\erasmus\\blockchain\\blockchain_home_assignment\\contracts\\antToken.sol",
  "compiler": {
    "name": "solc",
    "version": "0.8.17+commit.8df45f5f.Emscripten.clang"
  },
  "schemaVersion": "3.4.16",
  "updatedAt": "2024-06-06T17:24:50.152Z",
  "networkType": "ethereum",
  "devdoc": {
    "kind": "dev",
    "methods": {},
    "version": 1
  },
  "userdoc": {
    "kind": "user",
    "methods": {},
    "version": 1
  }
}