{
  "contractName": "AntToken",
  "abi": [
    {
      "inputs": [
        {
          "internalType": "address",
          "name": "_victoryTokenAddress",
          "type": "address"
        }
      ],
      "stateMutability": "nonpayable",
      "type": "constructor"
    },
    {
      "anonymous": false,
      "inputs": [
        {
          "indexed": false,
          "internalType": "uint256",
          "name": "antId",
          "type": "uint256"
        },
        {
          "indexed": false,
          "internalType": "string",
          "name": "name",
          "type": "string"
        },
        {
          "indexed": false,
          "internalType": "uint256",
          "name": "dna",
          "type": "uint256"
        },
        {
          "indexed": false,
          "internalType": "enum AntFactory.Species",
          "name": "species",
          "type": "uint8"
        },
        {
          "indexed": false,
          "internalType": "uint256",
          "name": "winCount",
          "type": "uint256"
        },
        {
          "indexed": false,
          "internalType": "uint256",
          "name": "lossCount",
          "type": "uint256"
        }
      ],
      "name": "NewAnt",
      "type": "event"
    },
    {
      "anonymous": false,
      "inputs": [
        {
          "indexed": true,
          "internalType": "address",
          "name": "_from",
          "type": "address"
        },
        {
          "indexed": true,
          "internalType": "address",
          "name": "_to",
          "type": "address"
        },
        {
          "indexed": true,
          "internalType": "uint256",
          "name": "_tokenId",
          "type": "uint256"
        }
      ],
      "name": "Transfer",
      "type": "event"
    },
    {
      "inputs": [
        {
          "internalType": "string",
          "name": "_name",
          "type": "string"
        },
        {
          "internalType": "uint256",
          "name": "_dna",
          "type": "uint256"
        },
        {
          "internalType": "enum AntFactory.Species",
          "name": "_species",
          "type": "uint8"
        },
        {
          "internalType": "uint256",
          "name": "_winCount",
          "type": "uint256"
        },
        {
          "internalType": "uint256",
          "name": "_lossCount",
          "type": "uint256"
        }
      ],
      "name": "_createAnt",
      "outputs": [],
      "stateMutability": "nonpayable",
      "type": "function"
    },
    {
      "inputs": [
        {
          "internalType": "string",
          "name": "_str",
          "type": "string"
        }
      ],
      "name": "_generateRandomDna",
      "outputs": [
        {
          "internalType": "uint256",
          "name": "",
          "type": "uint256"
        }
      ],
      "stateMutability": "view",
      "type": "function"
    },
    {
      "inputs": [],
      "name": "_generateRandomSpecies",
      "outputs": [
        {
          "internalType": "enum AntFactory.Species",
          "name": "",
          "type": "uint8"
        }
      ],
      "stateMutability": "view",
      "type": "function"
    },
    {
      "inputs": [],
      "name": "antPrice",
      "outputs": [
        {
          "internalType": "uint256",
          "name": "",
          "type": "uint256"
        }
      ],
      "stateMutability": "view",
      "type": "function"
    },
    {
      "inputs": [
        {
          "internalType": "uint256",
          "name": "",
          "type": "uint256"
        }
      ],
      "name": "antToOwner",
      "outputs": [
        {
          "internalType": "address",
          "name": "",
          "type": "address"
        }
      ],
      "stateMutability": "view",
      "type": "function"
    },
    {
      "inputs": [
        {
          "internalType": "uint256",
          "name": "",
          "type": "uint256"
        }
      ],
      "name": "ants",
      "outputs": [
        {
          "internalType": "string",
          "name": "name",
          "type": "string"
        },
        {
          "internalType": "uint256",
          "name": "dna",
          "type": "uint256"
        },
        {
          "internalType": "enum AntFactory.Species",
          "name": "species",
          "type": "uint8"
        },
        {
          "internalType": "uint256",
          "name": "winCount",
          "type": "uint256"
        },
        {
          "internalType": "uint256",
          "name": "lossCount",
          "type": "uint256"
        }
      ],
      "stateMutability": "view",
      "type": "function"
    },
    {
      "inputs": [
        {
          "internalType": "uint256",
          "name": "_antId",
          "type": "uint256"
        },
        {
          "internalType": "uint256",
          "name": "_targetId",
          "type": "uint256"
        }
      ],
      "name": "attack",
      "outputs": [],
      "stateMutability": "nonpayable",
      "type": "function"
    },
    {
      "inputs": [
        {
          "internalType": "string",
          "name": "_name",
          "type": "string"
        },
        {
          "internalType": "enum AntFactory.Species",
          "name": "_species",
          "type": "uint8"
        }
      ],
      "name": "buyAntByChoice",
      "outputs": [],
      "stateMutability": "nonpayable",
      "type": "function"
    },
    {
      "inputs": [
        {
          "internalType": "string",
          "name": "_name",
          "type": "string"
        }
      ],
      "name": "createRandomAnt",
      "outputs": [],
      "stateMutability": "nonpayable",
      "type": "function"
    },
    {
      "inputs": [],
      "name": "getAnts",
      "outputs": [
        {
          "components": [
            {
              "internalType": "string",
              "name": "name",
              "type": "string"
            },
            {
              "internalType": "uint256",
              "name": "dna",
              "type": "uint256"
            },
            {
              "internalType": "enum AntFactory.Species",
              "name": "species",
              "type": "uint8"
            },
            {
              "internalType": "uint256",
              "name": "winCount",
              "type": "uint256"
            },
            {
              "internalType": "uint256",
              "name": "lossCount",
              "type": "uint256"
            }
          ],
          "internalType": "struct AntFactory.Ant[]",
          "name": "",
          "type": "tuple[]"
        }
      ],
      "stateMutability": "view",
      "type": "function"
    },
    {
      "inputs": [
        {
          "internalType": "address",
          "name": "_owner",
          "type": "address"
        }
      ],
      "name": "getAntsByOwner",
      "outputs": [
        {
          "internalType": "uint256[]",
          "name": "",
          "type": "uint256[]"
        }
      ],
      "stateMutability": "view",
      "type": "function"
    },
    {
      "inputs": [
        {
          "internalType": "address",
          "name": "",
          "type": "address"
        }
      ],
      "name": "ownerAntCount",
      "outputs": [
        {
          "internalType": "uint256",
          "name": "",
          "type": "uint256"
        }
      ],
      "stateMutability": "view",
      "type": "function"
    },
    {
      "inputs": [],
      "name": "victoryToken",
      "outputs": [
        {
          "internalType": "contract VictoryToken",
          "name": "",
          "type": "address"
        }
      ],
      "stateMutability": "view",
      "type": "function"
    },
    {
      "inputs": [
        {
          "internalType": "address",
          "name": "_owner",
          "type": "address"
        }
      ],
      "name": "balanceOf",
      "outputs": [
        {
          "internalType": "uint256",
          "name": "",
          "type": "uint256"
        }
      ],
      "stateMutability": "view",
      "type": "function"
    },
    {
      "inputs": [
        {
          "internalType": "uint256",
          "name": "_tokenId",
          "type": "uint256"
        }
      ],
      "name": "ownerOf",
      "outputs": [
        {
          "internalType": "address",
          "name": "",
          "type": "address"
        }
      ],
      "stateMutability": "view",
      "type": "function"
    }
  ],
  "bytecode": "0x60806040526010600055600054600a6200001a91906200037b565b600155600360025560038055600060085560326009553480156200003d57600080fd5b50604051620028b6380380620028b6833981810160405281019062000063919062000436565b808080600460006101000a81548173ffffffffffffffffffffffffffffffffffffffff021916908373ffffffffffffffffffffffffffffffffffffffff160217905550506014600a6000806002811115620000c357620000c262000468565b5b8152602001908152602001600020600060016002811115620000ea57620000e962000468565b5b8152602001908152602001600020819055506014600a60006001600281111562000119576200011862000468565b5b815260200190815260200160002060006002808111156200013f576200013e62000468565b5b8152602001908152602001600020819055506014600a60006002808111156200016d576200016c62000468565b5b8152602001908152602001600020600080600281111562000193576200019262000468565b5b81526020019081526020016000208190555080600460006101000a81548173ffffffffffffffffffffffffffffffffffffffff021916908373ffffffffffffffffffffffffffffffffffffffff160217905550505062000497565b7f4e487b7100000000000000000000000000000000000000000000000000000000600052601160045260246000fd5b60008160011c9050919050565b6000808291508390505b60018511156200027c57808604811115620002545762000253620001ee565b5b6001851615620002645780820291505b808102905062000274856200021d565b945062000234565b94509492505050565b6000826200029757600190506200036a565b81620002a757600090506200036a565b8160018114620002c05760028114620002cb5762000301565b60019150506200036a565b60ff841115620002e057620002df620001ee565b5b8360020a915084821115620002fa57620002f9620001ee565b5b506200036a565b5060208310610133831016604e8410600b84101617156200033b5782820a905083811115620003355762000334620001ee565b5b6200036a565b6200034a84848460016200022a565b92509050818404811115620003645762000363620001ee565b5b81810290505b9392505050565b6000819050919050565b6000620003888262000371565b9150620003958362000371565b9250620003c47fffffffffffffffffffffffffffffffffffffffffffffffffffffffffffffffff848462000285565b905092915050565b600080fd5b600073ffffffffffffffffffffffffffffffffffffffff82169050919050565b6000620003fe82620003d1565b9050919050565b6200041081620003f1565b81146200041c57600080fd5b50565b600081519050620004308162000405565b92915050565b6000602082840312156200044f576200044e620003cc565b5b60006200045f848285016200041f565b91505092915050565b7f4e487b7100000000000000000000000000000000000000000000000000000000600052602160045260246000fd5b61240f80620004a76000396000f3fe608060405234801561001057600080fd5b50600436106100f55760003560e01c80635bd49b2d11610097578063df30775411610066578063df3077541461029e578063df57a6ec146102ba578063e1fa7638146102ea578063f770031c14610306576100f5565b80635bd49b2d146102025780636352211e1461022057806370a0823114610250578063a8847d9d14610280576100f5565b8063109dcfe6116100d3578063109dcfe614610150578063265f980a146101845780635126443b146101b4578063520f7c0e146101e4576100f5565b80630192e414146100fa57806308e64aac146101185780630e0fda4514610134575b600080fd5b610102610336565b60405161010f91906111e1565b60405180910390f35b610132600480360381019061012d91906113b1565b61035c565b005b61014e60048036038101906101499190611448565b61052c565b005b61016a600480360381019061016591906114a4565b6107a9565b60405161017b9594939291906115d6565b60405180910390f35b61019e6004803603810190610199919061166e565b610884565b6040516101ab9190611759565b60405180910390f35b6101ce60048036038101906101c9919061166e565b6109d6565b6040516101db919061177b565b60405180910390f35b6101ec6109ee565b6040516101f9919061177b565b60405180910390f35b61020a6109f4565b6040516102179190611796565b60405180910390f35b61023a600480360381019061023591906114a4565b610a4b565b60405161024791906117c0565b60405180910390f35b61026a6004803603810190610265919061166e565b610a88565b604051610277919061177b565b60405180910390f35b610288610ad1565b604051610295919061196c565b60405180910390f35b6102b860048036038101906102b3919061198e565b610c1b565b005b6102d460048036038101906102cf919061198e565b610ce8565b6040516102e1919061177b565b60405180910390f35b61030460048036038101906102ff91906119d7565b610d2d565b005b610320600480360381019061031b91906114a4565b611099565b60405161032d91906117c0565b60405180910390f35b600460009054906101000a900473ffffffffffffffffffffffffffffffffffffffff1681565b60056040518060a001604052808781526020018681526020018560028111156103885761038761155f565b5b815260200184815260200183815250908060018154018082558091505060019003906000526020600020906005020160009091909190915060008201518160000190816103d59190611c19565b506020820151816001015560408201518160020160006101000a81548160ff0219169083600281111561040b5761040a61155f565b5b0217905550606082015181600301556080820151816004015550506000600160058054905061043a9190611d1a565b9050336006600083815260200190815260200160002060006101000a81548173ffffffffffffffffffffffffffffffffffffffff021916908373ffffffffffffffffffffffffffffffffffffffff160217905550600760003373ffffffffffffffffffffffffffffffffffffffff1673ffffffffffffffffffffffffffffffffffffffff16815260200190815260200160002060008154809291906104de90611d4e565b91905055507f97b1514c5150294825105d3d34fda558beea8e579828e9a7d2f63b8259ff220181878787878760405161051c96959493929190611d96565b60405180910390a1505050505050565b6000600760003373ffffffffffffffffffffffffffffffffffffffff1673ffffffffffffffffffffffffffffffffffffffff16815260200190815260200160002054116105ae576040517f08c379a00000000000000000000000000000000000000000000000000000000081526004016105a590611e70565b60405180910390fd5b600354600460009054906101000a900473ffffffffffffffffffffffffffffffffffffffff1673ffffffffffffffffffffffffffffffffffffffff166370a08231336040518263ffffffff1660e01b815260040161060c91906117c0565b602060405180830381865afa158015610629573d6000803e3d6000fd5b505050506040513d601f19601f8201168201806040525081019061064d9190611ea5565b101561068e576040517f08c379a000000000000000000000000000000000000000000000000000000000815260040161068590611f1e565b60405180910390fd5b600460009054906101000a900473ffffffffffffffffffffffffffffffffffffffff1673ffffffffffffffffffffffffffffffffffffffff1663a9059cbb306003546040518363ffffffff1660e01b81526004016106ed929190611f3e565b6020604051808303816000875af115801561070c573d6000803e3d6000fd5b505050506040513d601f19601f820116820180604052508101906107309190611f9f565b61076f576040517f08c379a000000000000000000000000000000000000000000000000000000000815260040161076690612018565b60405180910390fd5b600061077a83610ce8565b90506064816107899190612067565b816107949190611d1a565b90506107a483828460008061035c565b505050565b600581815481106107b957600080fd5b90600052602060002090600502016000915090508060000180546107dc90611a46565b80601f016020809104026020016040519081016040528092919081815260200182805461080890611a46565b80156108555780601f1061082a57610100808354040283529160200191610855565b820191906000526020600020905b81548152906001019060200180831161083857829003601f168201915b5050505050908060010154908060020160009054906101000a900460ff16908060030154908060040154905085565b60606000600760008473ffffffffffffffffffffffffffffffffffffffff1673ffffffffffffffffffffffffffffffffffffffff1681526020019081526020016000205467ffffffffffffffff8111156108e1576108e061122b565b5b60405190808252806020026020018201604052801561090f5781602001602082028036833780820191505090505b5090506000805b6005805490508110156109cb578473ffffffffffffffffffffffffffffffffffffffff166006600083815260200190815260200160002060009054906101000a900473ffffffffffffffffffffffffffffffffffffffff1673ffffffffffffffffffffffffffffffffffffffff16036109b8578083838151811061099d5761099c612098565b5b60200260200101818152505081806109b490611d4e565b9250505b80806109c390611d4e565b915050610916565b508192505050919050565b60076020528060005260406000206000915090505481565b60035481565b6000806002544233604051602001610a0d929190612130565b6040516020818303038152906040528051906020012060001c610a309190612067565b9050806002811115610a4557610a4461155f565b5b91505090565b60006006600083815260200190815260200160002060009054906101000a900473ffffffffffffffffffffffffffffffffffffffff169050919050565b6000600760008373ffffffffffffffffffffffffffffffffffffffff1673ffffffffffffffffffffffffffffffffffffffff168152602001908152602001600020549050919050565b60606005805480602002602001604051908101604052809291908181526020016000905b82821015610c1257838290600052602060002090600502016040518060a0016040529081600082018054610b2890611a46565b80601f0160208091040260200160405190810160405280929190818152602001828054610b5490611a46565b8015610ba15780601f10610b7657610100808354040283529160200191610ba1565b820191906000526020600020905b815481529060010190602001808311610b8457829003601f168201915b50505050508152602001600182015481526020016002820160009054906101000a900460ff166002811115610bd957610bd861155f565b5b6002811115610beb57610bea61155f565b5b81526020016003820154815260200160048201548152505081526020019060010190610af5565b50505050905090565b6000600760003373ffffffffffffffffffffffffffffffffffffffff1673ffffffffffffffffffffffffffffffffffffffff1681526020019081526020016000205403610caa576000610c6d82610ce8565b9050606481610c7c9190612067565b81610c879190611d1a565b90506000610c936109f4565b9050610ca383838360008061035c565b5050610ce5565b6040517f08c379a0000000000000000000000000000000000000000000000000000000008152600401610cdc906121ce565b60405180910390fd5b50565b60008082604051602001610cfc919061222a565b6040516020818303038152906040528051906020012060001c905060015481610d259190612067565b915050919050565b6006600083815260200190815260200160002060009054906101000a900473ffffffffffffffffffffffffffffffffffffffff1673ffffffffffffffffffffffffffffffffffffffff163373ffffffffffffffffffffffffffffffffffffffff1614610dce576040517f08c379a0000000000000000000000000000000000000000000000000000000008152600401610dc5906122b3565b60405180910390fd5b600060058381548110610de457610de3612098565b5b90600052602060002090600502019050600060058381548110610e0a57610e09612098565b5b906000526020600020906005020190506000610e2660646110cc565b905060008360020160009054906101000a900460ff16905060008360020160009054906101000a900460ff1690506000600a6000846002811115610e6d57610e6c61155f565b5b81526020019081526020016000206000836002811115610e9057610e8f61155f565b5b8152602001908152602001600020549050600060095490506000821115610ec0578181610ebd91906122d3565b90505b808511610fbb57866003016000815480929190610edc90611d4e565b9190505550600a8660010154610ef29190612307565b876001016000828254610f0591906122d3565b92505081905550856004016000815480929190610f2190611d4e565b9190505550600460009054906101000a900473ffffffffffffffffffffffffffffffffffffffff1673ffffffffffffffffffffffffffffffffffffffff16634e6ec2473360016040518363ffffffff1660e01b8152600401610f84929190612373565b600060405180830381600087803b158015610f9e57600080fd5b505af1158015610fb2573d6000803e3d6000fd5b5050505061108e565b866004016000815480929190610fd090611d4e565b9190505550856003016000815480929190610fea90611d4e565b91905055506000610ffa89611125565b9050600460009054906101000a900473ffffffffffffffffffffffffffffffffffffffff1673ffffffffffffffffffffffffffffffffffffffff16634e6ec2478260016040518363ffffffff1660e01b815260040161105a929190612373565b600060405180830381600087803b15801561107457600080fd5b505af1158015611088573d6000803e3d6000fd5b50505050505b505050505050505050565b60066020528060005260406000206000915054906101000a900473ffffffffffffffffffffffffffffffffffffffff1681565b600060016008546110dd91906122d3565b6008819055508142336008546040516020016110fb9392919061239c565b6040516020818303038152906040528051906020012060001c61111e9190612067565b9050919050565b60006006600083815260200190815260200160002060009054906101000a900473ffffffffffffffffffffffffffffffffffffffff169050919050565b600073ffffffffffffffffffffffffffffffffffffffff82169050919050565b6000819050919050565b60006111a76111a261119d84611162565b611182565b611162565b9050919050565b60006111b98261118c565b9050919050565b60006111cb826111ae565b9050919050565b6111db816111c0565b82525050565b60006020820190506111f660008301846111d2565b92915050565b6000604051905090565b600080fd5b600080fd5b600080fd5b600080fd5b6000601f19601f8301169050919050565b7f4e487b7100000000000000000000000000000000000000000000000000000000600052604160045260246000fd5b6112638261121a565b810181811067ffffffffffffffff821117156112825761128161122b565b5b80604052505050565b60006112956111fc565b90506112a1828261125a565b919050565b600067ffffffffffffffff8211156112c1576112c061122b565b5b6112ca8261121a565b9050602081019050919050565b82818337600083830152505050565b60006112f96112f4846112a6565b61128b565b90508281526020810184848401111561131557611314611215565b5b6113208482856112d7565b509392505050565b600082601f83011261133d5761133c611210565b5b813561134d8482602086016112e6565b91505092915050565b6000819050919050565b61136981611356565b811461137457600080fd5b50565b60008135905061138681611360565b92915050565b6003811061139957600080fd5b50565b6000813590506113ab8161138c565b92915050565b600080600080600060a086880312156113cd576113cc611206565b5b600086013567ffffffffffffffff8111156113eb576113ea61120b565b5b6113f788828901611328565b955050602061140888828901611377565b94505060406114198882890161139c565b935050606061142a88828901611377565b925050608061143b88828901611377565b9150509295509295909350565b6000806040838503121561145f5761145e611206565b5b600083013567ffffffffffffffff81111561147d5761147c61120b565b5b61148985828601611328565b925050602061149a8582860161139c565b9150509250929050565b6000602082840312156114ba576114b9611206565b5b60006114c884828501611377565b91505092915050565b600081519050919050565b600082825260208201905092915050565b60005b8381101561150b5780820151818401526020810190506114f0565b60008484015250505050565b6000611522826114d1565b61152c81856114dc565b935061153c8185602086016114ed565b6115458161121a565b840191505092915050565b61155981611356565b82525050565b7f4e487b7100000000000000000000000000000000000000000000000000000000600052602160045260246000fd5b6003811061159f5761159e61155f565b5b50565b60008190506115b08261158e565b919050565b60006115c0826115a2565b9050919050565b6115d0816115b5565b82525050565b600060a08201905081810360008301526115f08188611517565b90506115ff6020830187611550565b61160c60408301866115c7565b6116196060830185611550565b6116266080830184611550565b9695505050505050565b600061163b82611162565b9050919050565b61164b81611630565b811461165657600080fd5b50565b60008135905061166881611642565b92915050565b60006020828403121561168457611683611206565b5b600061169284828501611659565b91505092915050565b600081519050919050565b600082825260208201905092915050565b6000819050602082019050919050565b6116d081611356565b82525050565b60006116e283836116c7565b60208301905092915050565b6000602082019050919050565b60006117068261169b565b61171081856116a6565b935061171b836116b7565b8060005b8381101561174c57815161173388826116d6565b975061173e836116ee565b92505060018101905061171f565b5085935050505092915050565b6000602082019050818103600083015261177381846116fb565b905092915050565b60006020820190506117906000830184611550565b92915050565b60006020820190506117ab60008301846115c7565b92915050565b6117ba81611630565b82525050565b60006020820190506117d560008301846117b1565b92915050565b600081519050919050565b600082825260208201905092915050565b6000819050602082019050919050565b600082825260208201905092915050565b6000611823826114d1565b61182d8185611807565b935061183d8185602086016114ed565b6118468161121a565b840191505092915050565b61185a816115b5565b82525050565b600060a083016000830151848203600086015261187d8282611818565b915050602083015161189260208601826116c7565b5060408301516118a56040860182611851565b5060608301516118b860608601826116c7565b5060808301516118cb60808601826116c7565b508091505092915050565b60006118e28383611860565b905092915050565b6000602082019050919050565b6000611902826117db565b61190c81856117e6565b93508360208202850161191e856117f7565b8060005b8581101561195a578484038952815161193b85826118d6565b9450611946836118ea565b925060208a01995050600181019050611922565b50829750879550505050505092915050565b6000602082019050818103600083015261198681846118f7565b905092915050565b6000602082840312156119a4576119a3611206565b5b600082013567ffffffffffffffff8111156119c2576119c161120b565b5b6119ce84828501611328565b91505092915050565b600080604083850312156119ee576119ed611206565b5b60006119fc85828601611377565b9250506020611a0d85828601611377565b9150509250929050565b7f4e487b7100000000000000000000000000000000000000000000000000000000600052602260045260246000fd5b60006002820490506001821680611a5e57607f821691505b602082108103611a7157611a70611a17565b5b50919050565b60008190508160005260206000209050919050565b60006020601f8301049050919050565b600082821b905092915050565b600060088302611ad97fffffffffffffffffffffffffffffffffffffffffffffffffffffffffffffffff82611a9c565b611ae38683611a9c565b95508019841693508086168417925050509392505050565b6000611b16611b11611b0c84611356565b611182565b611356565b9050919050565b6000819050919050565b611b3083611afb565b611b44611b3c82611b1d565b848454611aa9565b825550505050565b600090565b611b59611b4c565b611b64818484611b27565b505050565b5b81811015611b8857611b7d600082611b51565b600181019050611b6a565b5050565b601f821115611bcd57611b9e81611a77565b611ba784611a8c565b81016020851015611bb6578190505b611bca611bc285611a8c565b830182611b69565b50505b505050565b600082821c905092915050565b6000611bf060001984600802611bd2565b1980831691505092915050565b6000611c098383611bdf565b9150826002028217905092915050565b611c22826114d1565b67ffffffffffffffff811115611c3b57611c3a61122b565b5b611c458254611a46565b611c50828285611b8c565b600060209050601f831160018114611c835760008415611c71578287015190505b611c7b8582611bfd565b865550611ce3565b601f198416611c9186611a77565b60005b82811015611cb957848901518255600182019150602085019450602081019050611c94565b86831015611cd65784890151611cd2601f891682611bdf565b8355505b6001600288020188555050505b505050505050565b7f4e487b7100000000000000000000000000000000000000000000000000000000600052601160045260246000fd5b6000611d2582611356565b9150611d3083611356565b9250828203905081811115611d4857611d47611ceb565b5b92915050565b6000611d5982611356565b91507fffffffffffffffffffffffffffffffffffffffffffffffffffffffffffffffff8203611d8b57611d8a611ceb565b5b600182019050919050565b600060c082019050611dab6000830189611550565b8181036020830152611dbd8188611517565b9050611dcc6040830187611550565b611dd960608301866115c7565b611de66080830185611550565b611df360a0830184611550565b979650505050505050565b7f596f75206d757374206f776e206174206c65617374206f6e6520616e7420746f60008201527f20627579206d6f72652e00000000000000000000000000000000000000000000602082015250565b6000611e5a602a836114dc565b9150611e6582611dfe565b604082019050919050565b60006020820190508181036000830152611e8981611e4d565b9050919050565b600081519050611e9f81611360565b92915050565b600060208284031215611ebb57611eba611206565b5b6000611ec984828501611e90565b91505092915050565b7f496e73756666696369656e7420566963746f7279546f6b656e732e0000000000600082015250565b6000611f08601b836114dc565b9150611f1382611ed2565b602082019050919050565b60006020820190508181036000830152611f3781611efb565b9050919050565b6000604082019050611f5360008301856117b1565b611f606020830184611550565b9392505050565b60008115159050919050565b611f7c81611f67565b8114611f8757600080fd5b50565b600081519050611f9981611f73565b92915050565b600060208284031215611fb557611fb4611206565b5b6000611fc384828501611f8a565b91505092915050565b7f546f6b656e207472616e73666572206661696c65642e00000000000000000000600082015250565b60006120026016836114dc565b915061200d82611fcc565b602082019050919050565b6000602082019050818103600083015261203181611ff5565b9050919050565b7f4e487b7100000000000000000000000000000000000000000000000000000000600052601260045260246000fd5b600061207282611356565b915061207d83611356565b92508261208d5761208c612038565b5b828206905092915050565b7f4e487b7100000000000000000000000000000000000000000000000000000000600052603260045260246000fd5b6000819050919050565b6120e26120dd82611356565b6120c7565b82525050565b60008160601b9050919050565b6000612100826120e8565b9050919050565b6000612112826120f5565b9050919050565b61212a61212582611630565b612107565b82525050565b600061213c82856120d1565b60208201915061214c8284612119565b6014820191508190509392505050565b7f596f7520616c7265616479206f776e20616e20616e742e20557365206275794160008201527f6e74427943686f69636520746f20627579206d6f72652e000000000000000000602082015250565b60006121b86037836114dc565b91506121c38261215c565b604082019050919050565b600060208201905081810360008301526121e7816121ab565b9050919050565b600081905092915050565b6000612204826114d1565b61220e81856121ee565b935061221e8185602086016114ed565b80840191505092915050565b600061223682846121f9565b915081905092915050565b7f596f752063616e206f6e6c792061747461636b207769746820796f7572206f7760008201527f6e20616e74000000000000000000000000000000000000000000000000000000602082015250565b600061229d6025836114dc565b91506122a882612241565b604082019050919050565b600060208201905081810360008301526122cc81612290565b9050919050565b60006122de82611356565b91506122e983611356565b925082820190508082111561230157612300611ceb565b5b92915050565b600061231282611356565b915061231d83611356565b92508261232d5761232c612038565b5b828204905092915050565b6000819050919050565b600061235d61235861235384612338565b611182565b611356565b9050919050565b61236d81612342565b82525050565b600060408201905061238860008301856117b1565b6123956020830184612364565b9392505050565b60006123a882866120d1565b6020820191506123b88285612119565b6014820191506123c882846120d1565b60208201915081905094935050505056fea264697066735822122043bc1eb920fdbf8cc079ad8662fb223defd251f0d6123e0213c094b080cc46eb64736f6c63430008110033",
  "immutableReferences": {},
  "source": "// SPDX-License-Identifier: MIT\r\npragma solidity ^0.8.0;\r\n\r\nimport \"./ownable.sol\";\r\nimport \"./antbattle.sol\";\r\n\r\ncontract AntToken is AntBattle {\r\n  constructor(address _victoryTokenAddress) AntBattle(_victoryTokenAddress) {\r\n  }\r\n\r\n  event Transfer(address indexed _from, address indexed _to, uint256 indexed _tokenId);\r\n  // event Approval(address indexed _owner, address indexed _approved, uint256 indexed _tokenId);\r\n\r\n  // function balanceOf(address _owner) external view virtual returns (uint256);\r\n  // function ownerOf(uint256 _tokenId) external view virtual returns (address);\r\n  // function transferFrom(address _from, address _to, uint256 _tokenId) external payable virtual;\r\n  // function approve(address _approved, uint256 _tokenId) external payable virtual;\r\n\r\n  mapping (uint => address) antApprovals;\r\n\r\n  function balanceOf(address _owner) external view returns (uint256) {\r\n    return ownerAntCount[_owner];\r\n  }\r\n\r\n  function ownerOf(uint256 _tokenId) external view returns (address) {\r\n    return antToOwner[_tokenId];\r\n  }\r\n\r\n  // function _transfer(address _from, address _to, uint256 _tokenId) private {\r\n  //   ownerAntCount[_to]++;\r\n  //   ownerAntCount[_from]--;\r\n\r\n  //   antToOwner[_tokenId] = _to;\r\n  //   emit Transfer(_from, _to, _tokenId);\r\n  // }\r\n\r\n  // function transferFrom(address _from, address _to, uint256 _tokenId) external payable {\r\n  //   require (antToOwner[_tokenId] == msg.sender || antApprovals[_tokenId] == msg.sender);\r\n  //   _transfer(_from, _to, _tokenId);\r\n  // }\r\n\r\n  // function approve(address _approved, uint256 _tokenId) external payable override onlyOwnerOf(_tokenId) {\r\n  //   antApprovals[_tokenId] = _approved;\r\n  //   emit Approval(msg.sender, _approved, _tokenId);\r\n  // }\r\n}\r\n",
  "sourcePath": "C:\\Users\\brand\\Desktop\\erasmus\\blockchain\\blockchain_home_assignment\\contracts\\antToken.sol",
  "compiler": {
    "name": "solc",
    "version": "0.8.17+commit.8df45f5f.Emscripten.clang"
  },
  "schemaVersion": "3.4.16",
  "updatedAt": "2024-06-07T09:24:52.667Z",
  "devdoc": {
    "kind": "dev",
    "methods": {},
    "version": 1
  },
  "userdoc": {
    "kind": "user",
    "methods": {},
    "version": 1
  }
}