{
  "contractName": "AntToken",
  "abi": [
    {
      "inputs": [
        {
          "internalType": "address",
          "name": "_victoryTokenAddress",
          "type": "address"
        }
      ],
      "stateMutability": "nonpayable",
      "type": "constructor"
    },
    {
      "anonymous": false,
      "inputs": [
        {
          "indexed": false,
          "internalType": "uint256",
          "name": "antId",
          "type": "uint256"
        },
        {
          "indexed": false,
          "internalType": "string",
          "name": "name",
          "type": "string"
        },
        {
          "indexed": false,
          "internalType": "uint256",
          "name": "dna",
          "type": "uint256"
        },
        {
          "indexed": false,
          "internalType": "enum AntFactory.Species",
          "name": "species",
          "type": "uint8"
        },
        {
          "indexed": false,
          "internalType": "uint256",
          "name": "winCount",
          "type": "uint256"
        },
        {
          "indexed": false,
          "internalType": "uint256",
          "name": "lossCount",
          "type": "uint256"
        }
      ],
      "name": "NewAnt",
      "type": "event"
    },
    {
      "anonymous": false,
      "inputs": [
        {
          "indexed": true,
          "internalType": "address",
          "name": "_from",
          "type": "address"
        },
        {
          "indexed": true,
          "internalType": "address",
          "name": "_to",
          "type": "address"
        },
        {
          "indexed": true,
          "internalType": "uint256",
          "name": "_tokenId",
          "type": "uint256"
        }
      ],
      "name": "Transfer",
      "type": "event"
    },
    {
      "inputs": [
        {
          "internalType": "string",
          "name": "_name",
          "type": "string"
        },
        {
          "internalType": "uint256",
          "name": "_dna",
          "type": "uint256"
        },
        {
          "internalType": "enum AntFactory.Species",
          "name": "_species",
          "type": "uint8"
        },
        {
          "internalType": "uint256",
          "name": "_winCount",
          "type": "uint256"
        },
        {
          "internalType": "uint256",
          "name": "_lossCount",
          "type": "uint256"
        }
      ],
      "name": "_createAnt",
      "outputs": [],
      "stateMutability": "nonpayable",
      "type": "function"
    },
    {
      "inputs": [
        {
          "internalType": "string",
          "name": "_str",
          "type": "string"
        }
      ],
      "name": "_generateRandomDna",
      "outputs": [
        {
          "internalType": "uint256",
          "name": "",
          "type": "uint256"
        }
      ],
      "stateMutability": "view",
      "type": "function",
      "constant": true
    },
    {
      "inputs": [],
      "name": "_generateRandomSpecies",
      "outputs": [
        {
          "internalType": "enum AntFactory.Species",
          "name": "",
          "type": "uint8"
        }
      ],
      "stateMutability": "view",
      "type": "function",
      "constant": true
    },
    {
      "inputs": [],
      "name": "antPrice",
      "outputs": [
        {
          "internalType": "uint256",
          "name": "",
          "type": "uint256"
        }
      ],
      "stateMutability": "view",
      "type": "function",
      "constant": true
    },
    {
      "inputs": [
        {
          "internalType": "uint256",
          "name": "",
          "type": "uint256"
        }
      ],
      "name": "antToOwner",
      "outputs": [
        {
          "internalType": "address",
          "name": "",
          "type": "address"
        }
      ],
      "stateMutability": "view",
      "type": "function",
      "constant": true
    },
    {
      "inputs": [
        {
          "internalType": "uint256",
          "name": "",
          "type": "uint256"
        }
      ],
      "name": "ants",
      "outputs": [
        {
          "internalType": "string",
          "name": "name",
          "type": "string"
        },
        {
          "internalType": "uint256",
          "name": "dna",
          "type": "uint256"
        },
        {
          "internalType": "enum AntFactory.Species",
          "name": "species",
          "type": "uint8"
        },
        {
          "internalType": "uint256",
          "name": "winCount",
          "type": "uint256"
        },
        {
          "internalType": "uint256",
          "name": "lossCount",
          "type": "uint256"
        }
      ],
      "stateMutability": "view",
      "type": "function",
      "constant": true
    },
    {
      "inputs": [
        {
          "internalType": "uint256",
          "name": "_antDna",
          "type": "uint256"
        },
        {
          "internalType": "uint256",
          "name": "_targetDna",
          "type": "uint256"
        }
      ],
      "name": "attack",
      "outputs": [],
      "stateMutability": "nonpayable",
      "type": "function"
    },
    {
      "inputs": [
        {
          "internalType": "string",
          "name": "_name",
          "type": "string"
        },
        {
          "internalType": "enum AntFactory.Species",
          "name": "_species",
          "type": "uint8"
        }
      ],
      "name": "buyAntByChoice",
      "outputs": [],
      "stateMutability": "nonpayable",
      "type": "function"
    },
    {
      "inputs": [
        {
          "internalType": "string",
          "name": "_name",
          "type": "string"
        }
      ],
      "name": "createRandomAnt",
      "outputs": [],
      "stateMutability": "nonpayable",
      "type": "function"
    },
    {
      "inputs": [
        {
          "internalType": "uint256",
          "name": "",
          "type": "uint256"
        }
      ],
      "name": "dnaToId",
      "outputs": [
        {
          "internalType": "uint256",
          "name": "",
          "type": "uint256"
        }
      ],
      "stateMutability": "view",
      "type": "function",
      "constant": true
    },
    {
      "inputs": [
        {
          "internalType": "uint256",
          "name": "_dna",
          "type": "uint256"
        }
      ],
      "name": "getAntId",
      "outputs": [
        {
          "internalType": "uint256",
          "name": "",
          "type": "uint256"
        }
      ],
      "stateMutability": "view",
      "type": "function",
      "constant": true
    },
    {
      "inputs": [
        {
          "internalType": "uint256",
          "name": "_antId",
          "type": "uint256"
        }
      ],
      "name": "getAntOwner",
      "outputs": [
        {
          "internalType": "address",
          "name": "",
          "type": "address"
        }
      ],
      "stateMutability": "view",
      "type": "function",
      "constant": true
    },
    {
      "inputs": [],
      "name": "getAnts",
      "outputs": [
        {
          "components": [
            {
              "internalType": "string",
              "name": "name",
              "type": "string"
            },
            {
              "internalType": "uint256",
              "name": "dna",
              "type": "uint256"
            },
            {
              "internalType": "enum AntFactory.Species",
              "name": "species",
              "type": "uint8"
            },
            {
              "internalType": "uint256",
              "name": "winCount",
              "type": "uint256"
            },
            {
              "internalType": "uint256",
              "name": "lossCount",
              "type": "uint256"
            }
          ],
          "internalType": "struct AntFactory.Ant[]",
          "name": "",
          "type": "tuple[]"
        }
      ],
      "stateMutability": "view",
      "type": "function",
      "constant": true
    },
    {
      "inputs": [
        {
          "internalType": "address",
          "name": "_owner",
          "type": "address"
        }
      ],
      "name": "getAntsByOwner",
      "outputs": [
        {
          "components": [
            {
              "internalType": "string",
              "name": "name",
              "type": "string"
            },
            {
              "internalType": "uint256",
              "name": "dna",
              "type": "uint256"
            },
            {
              "internalType": "enum AntFactory.Species",
              "name": "species",
              "type": "uint8"
            },
            {
              "internalType": "uint256",
              "name": "winCount",
              "type": "uint256"
            },
            {
              "internalType": "uint256",
              "name": "lossCount",
              "type": "uint256"
            }
          ],
          "internalType": "struct AntFactory.Ant[]",
          "name": "",
          "type": "tuple[]"
        }
      ],
      "stateMutability": "view",
      "type": "function",
      "constant": true
    },
    {
      "inputs": [
        {
          "internalType": "address",
          "name": "",
          "type": "address"
        }
      ],
      "name": "ownerAntCount",
      "outputs": [
        {
          "internalType": "uint256",
          "name": "",
          "type": "uint256"
        }
      ],
      "stateMutability": "view",
      "type": "function",
      "constant": true
    },
    {
      "inputs": [],
      "name": "victoryToken",
      "outputs": [
        {
          "internalType": "contract VictoryToken",
          "name": "",
          "type": "address"
        }
      ],
      "stateMutability": "view",
      "type": "function",
      "constant": true
    },
    {
      "inputs": [
        {
          "internalType": "address",
          "name": "_owner",
          "type": "address"
        }
      ],
      "name": "balanceOf",
      "outputs": [
        {
          "internalType": "uint256",
          "name": "",
          "type": "uint256"
        }
      ],
      "stateMutability": "view",
      "type": "function",
      "constant": true
    },
    {
      "inputs": [
        {
          "internalType": "uint256",
          "name": "_tokenId",
          "type": "uint256"
        }
      ],
      "name": "ownerOf",
      "outputs": [
        {
          "internalType": "address",
          "name": "",
          "type": "address"
        }
      ],
      "stateMutability": "view",
      "type": "function",
      "constant": true
    }
  ],
  "bytecode": "0x60806040526010600055600054600a6200001a91906200037b565b60015560036002556003805560006009556032600a553480156200003d57600080fd5b506040516200243938038062002439833981810160405281019062000063919062000436565b808080600460006101000a81548173ffffffffffffffffffffffffffffffffffffffff021916908373ffffffffffffffffffffffffffffffffffffffff160217905550506014600b6000806002811115620000c357620000c262000468565b5b8152602001908152602001600020600060016002811115620000ea57620000e962000468565b5b8152602001908152602001600020819055506014600b60006001600281111562000119576200011862000468565b5b815260200190815260200160002060006002808111156200013f576200013e62000468565b5b8152602001908152602001600020819055506014600b60006002808111156200016d576200016c62000468565b5b8152602001908152602001600020600080600281111562000193576200019262000468565b5b81526020019081526020016000208190555080600460006101000a81548173ffffffffffffffffffffffffffffffffffffffff021916908373ffffffffffffffffffffffffffffffffffffffff160217905550505062000497565b7f4e487b7100000000000000000000000000000000000000000000000000000000600052601160045260246000fd5b60008160011c9050919050565b6000808291508390505b60018511156200027c57808604811115620002545762000253620001ee565b5b6001851615620002645780820291505b808102905062000274856200021d565b945062000234565b94509492505050565b6000826200029757600190506200036a565b81620002a757600090506200036a565b8160018114620002c05760028114620002cb5762000301565b60019150506200036a565b60ff841115620002e057620002df620001ee565b5b8360020a915084821115620002fa57620002f9620001ee565b5b506200036a565b5060208310610133831016604e8410600b84101617156200033b5782820a905083811115620003355762000334620001ee565b5b6200036a565b6200034a84848460016200022a565b92509050818404811115620003645762000363620001ee565b5b81810290505b9392505050565b6000819050919050565b6000620003888262000371565b9150620003958362000371565b9250620003c47fffffffffffffffffffffffffffffffffffffffffffffffffffffffffffffffff848462000285565b905092915050565b600080fd5b600073ffffffffffffffffffffffffffffffffffffffff82169050919050565b6000620003fe82620003d1565b9050919050565b6200041081620003f1565b81146200041c57600080fd5b50565b600081519050620004308162000405565b92915050565b6000602082840312156200044f576200044e620003cc565b5b60006200045f848285016200041f565b91505092915050565b7f4e487b7100000000000000000000000000000000000000000000000000000000600052602160045260246000fd5b611f9280620004a76000396000f3fe608060405234801561001057600080fd5b50600436106101165760003560e01c80635bd49b2d116100a2578063a8847d9d11610071578063a8847d9d14610331578063df3077541461034f578063df57a6ec1461036b578063e1fa76381461039b578063f770031c146103b757610116565b80635bd49b2d146102835780636352211e146102a157806370a08231146102d1578063a294f4db1461030157610116565b8063265f980a116100e9578063265f980a146101a557806341b4d82d146101d55780635126443b14610205578063520f7c0e146102355780635b5fce5d1461025357610116565b80630192e4141461011b57806308e64aac146101395780630e0fda4514610155578063109dcfe614610171575b600080fd5b6101236103e7565b60405161013091906110d3565b60405180910390f35b610153600480360381019061014e91906112a3565b61040d565b005b61016f600480360381019061016a919061133a565b6105f5565b005b61018b60048036038101906101869190611396565b6106b1565b60405161019c9594939291906114c8565b60405180910390f35b6101bf60048036038101906101ba9190611560565b61078c565b6040516101cc919061172d565b60405180910390f35b6101ef60048036038101906101ea9190611396565b610a05565b6040516101fc919061175e565b60405180910390f35b61021f600480360381019061021a9190611560565b610a42565b60405161022c9190611779565b60405180910390f35b61023d610a5a565b60405161024a9190611779565b60405180910390f35b61026d60048036038101906102689190611396565b610a60565b60405161027a9190611779565b60405180910390f35b61028b610a7d565b6040516102989190611794565b60405180910390f35b6102bb60048036038101906102b69190611396565b610ad4565b6040516102c8919061175e565b60405180910390f35b6102eb60048036038101906102e69190611560565b610b11565b6040516102f89190611779565b60405180910390f35b61031b60048036038101906103169190611396565b610b5a565b6040516103289190611779565b60405180910390f35b610339610b72565b604051610346919061172d565b60405180910390f35b610369600480360381019061036491906117af565b610cbc565b005b610385600480360381019061038091906117af565b610d89565b6040516103929190611779565b60405180910390f35b6103b560048036038101906103b091906117f8565b610dce565b005b6103d160048036038101906103cc9190611396565b610f87565b6040516103de919061175e565b60405180910390f35b600460009054906101000a900473ffffffffffffffffffffffffffffffffffffffff1681565b60056040518060a0016040528087815260200186815260200185600281111561043957610438611451565b5b815260200184815260200183815250908060018154018082558091505060019003906000526020600020906005020160009091909190915060008201518160000190816104869190611a3a565b506020820151816001015560408201518160020160006101000a81548160ff021916908360028111156104bc576104bb611451565b5b021790555060608201518160030155608082015181600401555050600060016005805490506104eb9190611b3b565b9050336006600083815260200190815260200160002060006101000a81548173ffffffffffffffffffffffffffffffffffffffff021916908373ffffffffffffffffffffffffffffffffffffffff160217905550600760003373ffffffffffffffffffffffffffffffffffffffff1673ffffffffffffffffffffffffffffffffffffffff168152602001908152602001600020600081548092919061058f90611b6f565b91905055508060086000878152602001908152602001600020819055507f97b1514c5150294825105d3d34fda558beea8e579828e9a7d2f63b8259ff22018187878787876040516105e596959493929190611bb7565b60405180910390a1505050505050565b6000600760003373ffffffffffffffffffffffffffffffffffffffff1673ffffffffffffffffffffffffffffffffffffffff1681526020019081526020016000205411610677576040517f08c379a000000000000000000000000000000000000000000000000000000000815260040161066e90611c91565b60405180910390fd5b600061068283610d89565b90506064816106919190611ce0565b8161069c9190611b3b565b90506106ac83828460008061040d565b505050565b600581815481106106c157600080fd5b90600052602060002090600502016000915090508060000180546106e490611867565b80601f016020809104026020016040519081016040528092919081815260200182805461071090611867565b801561075d5780601f106107325761010080835404028352916020019161075d565b820191906000526020600020905b81548152906001019060200180831161074057829003601f168201915b5050505050908060010154908060020160009054906101000a900460ff16908060030154908060040154905085565b60606000600760008473ffffffffffffffffffffffffffffffffffffffff1673ffffffffffffffffffffffffffffffffffffffff16815260200190815260200160002054905060008167ffffffffffffffff8111156107ee576107ed61111d565b5b60405190808252806020026020018201604052801561082757816020015b610814611013565b81526020019060019003908161080c5790505b5090506000805b6005805490508110156109f9578573ffffffffffffffffffffffffffffffffffffffff166006600083815260200190815260200160002060009054906101000a900473ffffffffffffffffffffffffffffffffffffffff1673ffffffffffffffffffffffffffffffffffffffff16036109e657600581815481106108b5576108b4611d11565b5b90600052602060002090600502016040518060a00160405290816000820180546108de90611867565b80601f016020809104026020016040519081016040528092919081815260200182805461090a90611867565b80156109575780601f1061092c57610100808354040283529160200191610957565b820191906000526020600020905b81548152906001019060200180831161093a57829003601f168201915b50505050508152602001600182015481526020016002820160009054906101000a900460ff16600281111561098f5761098e611451565b5b60028111156109a1576109a0611451565b5b8152602001600382015481526020016004820154815250508383815181106109cc576109cb611d11565b5b602002602001018190525081806109e290611b6f565b9250505b80806109f190611b6f565b91505061082e565b50819350505050919050565b60006006600083815260200190815260200160002060009054906101000a900473ffffffffffffffffffffffffffffffffffffffff169050919050565b60076020528060005260406000206000915090505481565b60035481565b600060086000838152602001908152602001600020549050919050565b6000806002544233604051602001610a96929190611da9565b6040516020818303038152906040528051906020012060001c610ab99190611ce0565b9050806002811115610ace57610acd611451565b5b91505090565b60006006600083815260200190815260200160002060009054906101000a900473ffffffffffffffffffffffffffffffffffffffff169050919050565b6000600760008373ffffffffffffffffffffffffffffffffffffffff1673ffffffffffffffffffffffffffffffffffffffff168152602001908152602001600020549050919050565b60086020528060005260406000206000915090505481565b60606005805480602002602001604051908101604052809291908181526020016000905b82821015610cb357838290600052602060002090600502016040518060a0016040529081600082018054610bc990611867565b80601f0160208091040260200160405190810160405280929190818152602001828054610bf590611867565b8015610c425780601f10610c1757610100808354040283529160200191610c42565b820191906000526020600020905b815481529060010190602001808311610c2557829003601f168201915b50505050508152602001600182015481526020016002820160009054906101000a900460ff166002811115610c7a57610c79611451565b5b6002811115610c8c57610c8b611451565b5b81526020016003820154815260200160048201548152505081526020019060010190610b96565b50505050905090565b6000600760003373ffffffffffffffffffffffffffffffffffffffff1673ffffffffffffffffffffffffffffffffffffffff1681526020019081526020016000205403610d4b576000610d0e82610d89565b9050606481610d1d9190611ce0565b81610d289190611b3b565b90506000610d34610a7d565b9050610d4483838360008061040d565b5050610d86565b6040517f08c379a0000000000000000000000000000000000000000000000000000000008152600401610d7d90611e47565b60405180910390fd5b50565b60008082604051602001610d9d9190611ea3565b6040516020818303038152906040528051906020012060001c905060015481610dc69190611ce0565b915050919050565b6000610dd983610a60565b90506000610de683610a60565b9050600060058381548110610dfe57610dfd611d11565b5b90600052602060002090600502019050600060058381548110610e2457610e23611d11565b5b906000526020600020906005020190506000610e406064610fba565b905060008360020160009054906101000a900460ff16905060008360020160009054906101000a900460ff1690506000600b6000846002811115610e8757610e86611451565b5b81526020019081526020016000206000836002811115610eaa57610ea9611451565b5b81526020019081526020016000205490506000600a5490506000821115610eda578181610ed79190611eba565b90505b808511610f4557866003016000815480929190610ef690611b6f565b9190505550600a8660010154610f0c9190611eee565b876001016000828254610f1f9190611eba565b92505081905550856004016000815480929190610f3b90611b6f565b9190505550610f7a565b866004016000815480929190610f5a90611b6f565b9190505550856003016000815480929190610f7490611b6f565b91905055505b5050505050505050505050565b60066020528060005260406000206000915054906101000a900473ffffffffffffffffffffffffffffffffffffffff1681565b60006001600954610fcb9190611eba565b600981905550814233600954604051602001610fe993929190611f1f565b6040516020818303038152906040528051906020012060001c61100c9190611ce0565b9050919050565b6040518060a001604052806060815260200160008152602001600060028111156110405761103f611451565b5b815260200160008152602001600081525090565b600073ffffffffffffffffffffffffffffffffffffffff82169050919050565b6000819050919050565b600061109961109461108f84611054565b611074565b611054565b9050919050565b60006110ab8261107e565b9050919050565b60006110bd826110a0565b9050919050565b6110cd816110b2565b82525050565b60006020820190506110e860008301846110c4565b92915050565b6000604051905090565b600080fd5b600080fd5b600080fd5b600080fd5b6000601f19601f8301169050919050565b7f4e487b7100000000000000000000000000000000000000000000000000000000600052604160045260246000fd5b6111558261110c565b810181811067ffffffffffffffff821117156111745761117361111d565b5b80604052505050565b60006111876110ee565b9050611193828261114c565b919050565b600067ffffffffffffffff8211156111b3576111b261111d565b5b6111bc8261110c565b9050602081019050919050565b82818337600083830152505050565b60006111eb6111e684611198565b61117d565b90508281526020810184848401111561120757611206611107565b5b6112128482856111c9565b509392505050565b600082601f83011261122f5761122e611102565b5b813561123f8482602086016111d8565b91505092915050565b6000819050919050565b61125b81611248565b811461126657600080fd5b50565b60008135905061127881611252565b92915050565b6003811061128b57600080fd5b50565b60008135905061129d8161127e565b92915050565b600080600080600060a086880312156112bf576112be6110f8565b5b600086013567ffffffffffffffff8111156112dd576112dc6110fd565b5b6112e98882890161121a565b95505060206112fa88828901611269565b945050604061130b8882890161128e565b935050606061131c88828901611269565b925050608061132d88828901611269565b9150509295509295909350565b60008060408385031215611351576113506110f8565b5b600083013567ffffffffffffffff81111561136f5761136e6110fd565b5b61137b8582860161121a565b925050602061138c8582860161128e565b9150509250929050565b6000602082840312156113ac576113ab6110f8565b5b60006113ba84828501611269565b91505092915050565b600081519050919050565b600082825260208201905092915050565b60005b838110156113fd5780820151818401526020810190506113e2565b60008484015250505050565b6000611414826113c3565b61141e81856113ce565b935061142e8185602086016113df565b6114378161110c565b840191505092915050565b61144b81611248565b82525050565b7f4e487b7100000000000000000000000000000000000000000000000000000000600052602160045260246000fd5b6003811061149157611490611451565b5b50565b60008190506114a282611480565b919050565b60006114b282611494565b9050919050565b6114c2816114a7565b82525050565b600060a08201905081810360008301526114e28188611409565b90506114f16020830187611442565b6114fe60408301866114b9565b61150b6060830185611442565b6115186080830184611442565b9695505050505050565b600061152d82611054565b9050919050565b61153d81611522565b811461154857600080fd5b50565b60008135905061155a81611534565b92915050565b600060208284031215611576576115756110f8565b5b60006115848482850161154b565b91505092915050565b600081519050919050565b600082825260208201905092915050565b6000819050602082019050919050565b600082825260208201905092915050565b60006115d5826113c3565b6115df81856115b9565b93506115ef8185602086016113df565b6115f88161110c565b840191505092915050565b61160c81611248565b82525050565b61161b816114a7565b82525050565b600060a083016000830151848203600086015261163e82826115ca565b91505060208301516116536020860182611603565b5060408301516116666040860182611612565b5060608301516116796060860182611603565b50608083015161168c6080860182611603565b508091505092915050565b60006116a38383611621565b905092915050565b6000602082019050919050565b60006116c38261158d565b6116cd8185611598565b9350836020820285016116df856115a9565b8060005b8581101561171b57848403895281516116fc8582611697565b9450611707836116ab565b925060208a019950506001810190506116e3565b50829750879550505050505092915050565b6000602082019050818103600083015261174781846116b8565b905092915050565b61175881611522565b82525050565b6000602082019050611773600083018461174f565b92915050565b600060208201905061178e6000830184611442565b92915050565b60006020820190506117a960008301846114b9565b92915050565b6000602082840312156117c5576117c46110f8565b5b600082013567ffffffffffffffff8111156117e3576117e26110fd565b5b6117ef8482850161121a565b91505092915050565b6000806040838503121561180f5761180e6110f8565b5b600061181d85828601611269565b925050602061182e85828601611269565b9150509250929050565b7f4e487b7100000000000000000000000000000000000000000000000000000000600052602260045260246000fd5b6000600282049050600182168061187f57607f821691505b60208210810361189257611891611838565b5b50919050565b60008190508160005260206000209050919050565b60006020601f8301049050919050565b600082821b905092915050565b6000600883026118fa7fffffffffffffffffffffffffffffffffffffffffffffffffffffffffffffffff826118bd565b61190486836118bd565b95508019841693508086168417925050509392505050565b600061193761193261192d84611248565b611074565b611248565b9050919050565b6000819050919050565b6119518361191c565b61196561195d8261193e565b8484546118ca565b825550505050565b600090565b61197a61196d565b611985818484611948565b505050565b5b818110156119a95761199e600082611972565b60018101905061198b565b5050565b601f8211156119ee576119bf81611898565b6119c8846118ad565b810160208510156119d7578190505b6119eb6119e3856118ad565b83018261198a565b50505b505050565b600082821c905092915050565b6000611a11600019846008026119f3565b1980831691505092915050565b6000611a2a8383611a00565b9150826002028217905092915050565b611a43826113c3565b67ffffffffffffffff811115611a5c57611a5b61111d565b5b611a668254611867565b611a718282856119ad565b600060209050601f831160018114611aa45760008415611a92578287015190505b611a9c8582611a1e565b865550611b04565b601f198416611ab286611898565b60005b82811015611ada57848901518255600182019150602085019450602081019050611ab5565b86831015611af75784890151611af3601f891682611a00565b8355505b6001600288020188555050505b505050505050565b7f4e487b7100000000000000000000000000000000000000000000000000000000600052601160045260246000fd5b6000611b4682611248565b9150611b5183611248565b9250828203905081811115611b6957611b68611b0c565b5b92915050565b6000611b7a82611248565b91507fffffffffffffffffffffffffffffffffffffffffffffffffffffffffffffffff8203611bac57611bab611b0c565b5b600182019050919050565b600060c082019050611bcc6000830189611442565b8181036020830152611bde8188611409565b9050611bed6040830187611442565b611bfa60608301866114b9565b611c076080830185611442565b611c1460a0830184611442565b979650505050505050565b7f596f75206d757374206f776e206174206c65617374206f6e6520616e7420746f60008201527f20627579206d6f72652e00000000000000000000000000000000000000000000602082015250565b6000611c7b602a836113ce565b9150611c8682611c1f565b604082019050919050565b60006020820190508181036000830152611caa81611c6e565b9050919050565b7f4e487b7100000000000000000000000000000000000000000000000000000000600052601260045260246000fd5b6000611ceb82611248565b9150611cf683611248565b925082611d0657611d05611cb1565b5b828206905092915050565b7f4e487b7100000000000000000000000000000000000000000000000000000000600052603260045260246000fd5b6000819050919050565b611d5b611d5682611248565b611d40565b82525050565b60008160601b9050919050565b6000611d7982611d61565b9050919050565b6000611d8b82611d6e565b9050919050565b611da3611d9e82611522565b611d80565b82525050565b6000611db58285611d4a565b602082019150611dc58284611d92565b6014820191508190509392505050565b7f596f7520616c7265616479206f776e20616e20616e742e20557365206275794160008201527f6e74427943686f69636520746f20627579206d6f72652e000000000000000000602082015250565b6000611e316037836113ce565b9150611e3c82611dd5565b604082019050919050565b60006020820190508181036000830152611e6081611e24565b9050919050565b600081905092915050565b6000611e7d826113c3565b611e878185611e67565b9350611e978185602086016113df565b80840191505092915050565b6000611eaf8284611e72565b915081905092915050565b6000611ec582611248565b9150611ed083611248565b9250828201905080821115611ee857611ee7611b0c565b5b92915050565b6000611ef982611248565b9150611f0483611248565b925082611f1457611f13611cb1565b5b828204905092915050565b6000611f2b8286611d4a565b602082019150611f3b8285611d92565b601482019150611f4b8284611d4a565b60208201915081905094935050505056fea2646970667358221220e34e34a0a5b117e7da6d3af6353d05bb70abe470ed35272f69b560365fee7c9364736f6c63430008110033",
  "immutableReferences": {},
  "source": "// SPDX-License-Identifier: MIT\r\npragma solidity ^0.8.0;\r\n\r\nimport \"./ownable.sol\";\r\nimport \"./antbattle.sol\";\r\n\r\ncontract AntToken is AntBattle {\r\n  constructor(address _victoryTokenAddress) AntBattle(_victoryTokenAddress) {\r\n  }\r\n\r\n  event Transfer(address indexed _from, address indexed _to, uint256 indexed _tokenId);\r\n  // event Approval(address indexed _owner, address indexed _approved, uint256 indexed _tokenId);\r\n\r\n  // function balanceOf(address _owner) external view virtual returns (uint256);\r\n  // function ownerOf(uint256 _tokenId) external view virtual returns (address);\r\n  // function transferFrom(address _from, address _to, uint256 _tokenId) external payable virtual;\r\n  // function approve(address _approved, uint256 _tokenId) external payable virtual;\r\n\r\n  mapping (uint => address) antApprovals;\r\n\r\n  function balanceOf(address _owner) external view returns (uint256) {\r\n    return ownerAntCount[_owner];\r\n  }\r\n\r\n  function ownerOf(uint256 _tokenId) external view returns (address) {\r\n    return antToOwner[_tokenId];\r\n  }\r\n\r\n  // function _transfer(address _from, address _to, uint256 _tokenId) private {\r\n  //   ownerAntCount[_to]++;\r\n  //   ownerAntCount[_from]--;\r\n\r\n  //   antToOwner[_tokenId] = _to;\r\n  //   emit Transfer(_from, _to, _tokenId);\r\n  // }\r\n\r\n  // function transferFrom(address _from, address _to, uint256 _tokenId) external payable {\r\n  //   require (antToOwner[_tokenId] == msg.sender || antApprovals[_tokenId] == msg.sender);\r\n  //   _transfer(_from, _to, _tokenId);\r\n  // }\r\n\r\n  // function approve(address _approved, uint256 _tokenId) external payable override onlyOwnerOf(_tokenId) {\r\n  //   antApprovals[_tokenId] = _approved;\r\n  //   emit Approval(msg.sender, _approved, _tokenId);\r\n  // }\r\n}\r\n",
  "sourcePath": "C:\\Users\\brand\\Desktop\\erasmus\\blockchain\\blockchain_home_assignment\\contracts\\antToken.sol",
  "compiler": {
    "name": "solc",
    "version": "0.8.17+commit.8df45f5f.Emscripten.clang"
  },
  "schemaVersion": "3.4.16",
  "updatedAt": "2024-06-07T13:57:32.913Z",
  "networkType": "ethereum",
  "devdoc": {
    "kind": "dev",
    "methods": {},
    "version": 1
  },
  "userdoc": {
    "kind": "user",
    "methods": {},
    "version": 1
  }
}