{
  "contractName": "VictoryToken",
  "abi": [
    {
      "anonymous": false,
      "inputs": [
        {
          "indexed": true,
          "internalType": "address",
          "name": "owner",
          "type": "address"
        },
        {
          "indexed": true,
          "internalType": "address",
          "name": "spender",
          "type": "address"
        },
        {
          "indexed": false,
          "internalType": "uint256",
          "name": "value",
          "type": "uint256"
        }
      ],
      "name": "Approval",
      "type": "event"
    },
    {
      "anonymous": false,
      "inputs": [
        {
          "indexed": true,
          "internalType": "address",
          "name": "to",
          "type": "address"
        },
        {
          "indexed": false,
          "internalType": "uint256",
          "name": "value",
          "type": "uint256"
        }
      ],
      "name": "MintToken",
      "type": "event"
    },
    {
      "anonymous": false,
      "inputs": [
        {
          "indexed": true,
          "internalType": "address",
          "name": "from",
          "type": "address"
        },
        {
          "indexed": true,
          "internalType": "address",
          "name": "to",
          "type": "address"
        },
        {
          "indexed": false,
          "internalType": "uint256",
          "name": "value",
          "type": "uint256"
        }
      ],
      "name": "Transfer",
      "type": "event"
    },
    {
      "inputs": [
        {
          "internalType": "address",
          "name": "",
          "type": "address"
        },
        {
          "internalType": "address",
          "name": "",
          "type": "address"
        }
      ],
      "name": "allowance",
      "outputs": [
        {
          "internalType": "uint256",
          "name": "",
          "type": "uint256"
        }
      ],
      "stateMutability": "view",
      "type": "function",
      "constant": true
    },
    {
      "inputs": [],
      "name": "name",
      "outputs": [
        {
          "internalType": "string",
          "name": "",
          "type": "string"
        }
      ],
      "stateMutability": "view",
      "type": "function",
      "constant": true
    },
    {
      "inputs": [],
      "name": "symbol",
      "outputs": [
        {
          "internalType": "string",
          "name": "",
          "type": "string"
        }
      ],
      "stateMutability": "view",
      "type": "function",
      "constant": true
    },
    {
      "inputs": [
        {
          "internalType": "address",
          "name": "",
          "type": "address"
        }
      ],
      "name": "tokenCount",
      "outputs": [
        {
          "internalType": "uint256",
          "name": "",
          "type": "uint256"
        }
      ],
      "stateMutability": "view",
      "type": "function",
      "constant": true
    },
    {
      "inputs": [],
      "name": "totalSupply",
      "outputs": [
        {
          "internalType": "uint256",
          "name": "",
          "type": "uint256"
        }
      ],
      "stateMutability": "view",
      "type": "function",
      "constant": true
    },
    {
      "inputs": [
        {
          "internalType": "address",
          "name": "_owner",
          "type": "address"
        }
      ],
      "name": "getTokenCount",
      "outputs": [
        {
          "internalType": "uint256",
          "name": "",
          "type": "uint256"
        }
      ],
      "stateMutability": "view",
      "type": "function",
      "constant": true
    },
    {
      "inputs": [
        {
          "internalType": "address",
          "name": "_to",
          "type": "address"
        },
        {
          "internalType": "uint256",
          "name": "_value",
          "type": "uint256"
        }
      ],
      "name": "_mintVictoryTokens",
      "outputs": [],
      "stateMutability": "nonpayable",
      "type": "function"
    },
    {
      "inputs": [
        {
          "internalType": "address",
          "name": "_to",
          "type": "address"
        },
        {
          "internalType": "uint256",
          "name": "_value",
          "type": "uint256"
        }
      ],
      "name": "transfer",
      "outputs": [
        {
          "internalType": "bool",
          "name": "success",
          "type": "bool"
        }
      ],
      "stateMutability": "nonpayable",
      "type": "function"
    },
    {
      "inputs": [
        {
          "internalType": "address",
          "name": "_spender",
          "type": "address"
        },
        {
          "internalType": "uint256",
          "name": "_value",
          "type": "uint256"
        }
      ],
      "name": "approve",
      "outputs": [
        {
          "internalType": "bool",
          "name": "success",
          "type": "bool"
        }
      ],
      "stateMutability": "nonpayable",
      "type": "function"
    }
  ],
  "bytecode": "0x60806040526040518060400160405280600d81526020017f566963746f727920546f6b656e00000000000000000000000000000000000000815250600090816200004a919062000320565b506040518060400160405280600381526020017f56435400000000000000000000000000000000000000000000000000000000008152506001908162000091919062000320565b503480156200009f57600080fd5b5062000407565b600081519050919050565b7f4e487b7100000000000000000000000000000000000000000000000000000000600052604160045260246000fd5b7f4e487b7100000000000000000000000000000000000000000000000000000000600052602260045260246000fd5b600060028204905060018216806200012857607f821691505b6020821081036200013e576200013d620000e0565b5b50919050565b60008190508160005260206000209050919050565b60006020601f8301049050919050565b600082821b905092915050565b600060088302620001a87fffffffffffffffffffffffffffffffffffffffffffffffffffffffffffffffff8262000169565b620001b4868362000169565b95508019841693508086168417925050509392505050565b6000819050919050565b6000819050919050565b600062000201620001fb620001f584620001cc565b620001d6565b620001cc565b9050919050565b6000819050919050565b6200021d83620001e0565b620002356200022c8262000208565b84845462000176565b825550505050565b600090565b6200024c6200023d565b6200025981848462000212565b505050565b5b8181101562000281576200027560008262000242565b6001810190506200025f565b5050565b601f821115620002d0576200029a8162000144565b620002a58462000159565b81016020851015620002b5578190505b620002cd620002c48562000159565b8301826200025e565b50505b505050565b600082821c905092915050565b6000620002f560001984600802620002d5565b1980831691505092915050565b6000620003108383620002e2565b9150826002028217905092915050565b6200032b82620000a6565b67ffffffffffffffff811115620003475762000346620000b1565b5b6200035382546200010f565b6200036082828562000285565b600060209050601f83116001811462000398576000841562000383578287015190505b6200038f858262000302565b865550620003ff565b601f198416620003a88662000144565b60005b82811015620003d257848901518255600182019150602085019450602081019050620003ab565b86831015620003f25784890151620003ee601f891682620002e2565b8355505b6001600288020188555050505b505050505050565b610b4f80620004176000396000f3fe608060405234801561001057600080fd5b50600436106100935760003560e01c806376727fa31161006657806376727fa31461013457806384bc05121461016457806395d89b4114610180578063a9059cbb1461019e578063dd62ed3e146101ce57610093565b806306fdde0314610098578063095ea7b3146100b657806318160ddd146100e657806356225a0914610104575b600080fd5b6100a06101fe565b6040516100ad91906107ee565b60405180910390f35b6100d060048036038101906100cb91906108a9565b61028c565b6040516100dd9190610904565b60405180910390f35b6100ee61037e565b6040516100fb919061092e565b60405180910390f35b61011e60048036038101906101199190610949565b610384565b60405161012b919061092e565b60405180910390f35b61014e60048036038101906101499190610949565b61039c565b60405161015b919061092e565b60405180910390f35b61017e600480360381019061017991906108a9565b6103e5565b005b61018861050c565b60405161019591906107ee565b60405180910390f35b6101b860048036038101906101b391906108a9565b61059a565b6040516101c59190610904565b60405180910390f35b6101e860048036038101906101e39190610976565b610739565b6040516101f5919061092e565b60405180910390f35b6000805461020b906109e5565b80601f0160208091040260200160405190810160405280929190818152602001828054610237906109e5565b80156102845780601f1061025957610100808354040283529160200191610284565b820191906000526020600020905b81548152906001019060200180831161026757829003601f168201915b505050505081565b600081600460003373ffffffffffffffffffffffffffffffffffffffff1673ffffffffffffffffffffffffffffffffffffffff16815260200190815260200160002060008573ffffffffffffffffffffffffffffffffffffffff1673ffffffffffffffffffffffffffffffffffffffff168152602001908152602001600020819055508273ffffffffffffffffffffffffffffffffffffffff163373ffffffffffffffffffffffffffffffffffffffff167f8c5be1e5ebec7d5bd14f71427d1e84f3dd0314c0f7b2291e5b200ac8c7c3b9258460405161036c919061092e565b60405180910390a36001905092915050565b60025481565b60036020528060005260406000206000915090505481565b6000600360008373ffffffffffffffffffffffffffffffffffffffff1673ffffffffffffffffffffffffffffffffffffffff168152602001908152602001600020549050919050565b80600260008282546103f79190610a45565b9250508190555080600360008473ffffffffffffffffffffffffffffffffffffffff1673ffffffffffffffffffffffffffffffffffffffff168152602001908152602001600020600082825461044d9190610a45565b925050819055508173ffffffffffffffffffffffffffffffffffffffff167fdcdea898caf5576419f89caf69301592a4758349a0bd62300b58849213420a728260405161049a919061092e565b60405180910390a28173ffffffffffffffffffffffffffffffffffffffff16600073ffffffffffffffffffffffffffffffffffffffff167fddf252ad1be2c89b69c2b068fc378daa952ba7f163c4a11628f55a4df523b3ef83604051610500919061092e565b60405180910390a35050565b60018054610519906109e5565b80601f0160208091040260200160405190810160405280929190818152602001828054610545906109e5565b80156105925780601f1061056757610100808354040283529160200191610592565b820191906000526020600020905b81548152906001019060200180831161057557829003601f168201915b505050505081565b600081600360003373ffffffffffffffffffffffffffffffffffffffff1673ffffffffffffffffffffffffffffffffffffffff16815260200190815260200160002054101561061e576040517f08c379a000000000000000000000000000000000000000000000000000000000815260040161061590610ac5565b60405180910390fd5b81600360003373ffffffffffffffffffffffffffffffffffffffff1673ffffffffffffffffffffffffffffffffffffffff168152602001908152602001600020600082825461066d9190610ae5565b9250508190555081600360008573ffffffffffffffffffffffffffffffffffffffff1673ffffffffffffffffffffffffffffffffffffffff16815260200190815260200160002060008282546106c39190610a45565b925050819055508273ffffffffffffffffffffffffffffffffffffffff163373ffffffffffffffffffffffffffffffffffffffff167fddf252ad1be2c89b69c2b068fc378daa952ba7f163c4a11628f55a4df523b3ef84604051610727919061092e565b60405180910390a36001905092915050565b6004602052816000526040600020602052806000526040600020600091509150505481565b600081519050919050565b600082825260208201905092915050565b60005b8381101561079857808201518184015260208101905061077d565b60008484015250505050565b6000601f19601f8301169050919050565b60006107c08261075e565b6107ca8185610769565b93506107da81856020860161077a565b6107e3816107a4565b840191505092915050565b6000602082019050818103600083015261080881846107b5565b905092915050565b600080fd5b600073ffffffffffffffffffffffffffffffffffffffff82169050919050565b600061084082610815565b9050919050565b61085081610835565b811461085b57600080fd5b50565b60008135905061086d81610847565b92915050565b6000819050919050565b61088681610873565b811461089157600080fd5b50565b6000813590506108a38161087d565b92915050565b600080604083850312156108c0576108bf610810565b5b60006108ce8582860161085e565b92505060206108df85828601610894565b9150509250929050565b60008115159050919050565b6108fe816108e9565b82525050565b600060208201905061091960008301846108f5565b92915050565b61092881610873565b82525050565b6000602082019050610943600083018461091f565b92915050565b60006020828403121561095f5761095e610810565b5b600061096d8482850161085e565b91505092915050565b6000806040838503121561098d5761098c610810565b5b600061099b8582860161085e565b92505060206109ac8582860161085e565b9150509250929050565b7f4e487b7100000000000000000000000000000000000000000000000000000000600052602260045260246000fd5b600060028204905060018216806109fd57607f821691505b602082108103610a1057610a0f6109b6565b5b50919050565b7f4e487b7100000000000000000000000000000000000000000000000000000000600052601160045260246000fd5b6000610a5082610873565b9150610a5b83610873565b9250828201905080821115610a7357610a72610a16565b5b92915050565b7f496e73756666696369656e742062616c616e6365000000000000000000000000600082015250565b6000610aaf601483610769565b9150610aba82610a79565b602082019050919050565b60006020820190508181036000830152610ade81610aa2565b9050919050565b6000610af082610873565b9150610afb83610873565b9250828203905081811115610b1357610b12610a16565b5b9291505056fea2646970667358221220950d0f2c5185fe2d1c4adb48bd7340343149fdc766470d2ec119e17abe5c9c6264736f6c63430008110033",
  "immutableReferences": {},
  "source": "pragma solidity ^0.8.0;\r\n\r\ncontract VictoryToken {\r\n    string public name = \"Victory Token\";\r\n    string public symbol = \"VCT\";\r\n    // uint8 public decimals = 18;\r\n    uint256 public totalSupply;\r\n\r\n    mapping(address => uint256) public tokenCount;\r\n    mapping(address => mapping(address => uint256)) public allowance;\r\n\r\n    event Transfer(address indexed from, address indexed to, uint256 value);\r\n    event Approval(address indexed owner, address indexed spender, uint256 value);\r\n    event MintToken(address indexed to, uint256 value);\r\n\r\n    function getTokenCount(address _owner) external view returns (uint256) {\r\n        return tokenCount[_owner];\r\n    }\r\n    \r\n    function _mintVictoryTokens(address _to, uint256 _value) public {\r\n        totalSupply += _value;\r\n        tokenCount[_to] += _value;\r\n        emit MintToken(_to, _value);\r\n        emit Transfer(address(0), _to, _value);\r\n    }\r\n\r\n    function transfer(address _to, uint256 _value) public returns (bool success) {\r\n        require(tokenCount[msg.sender] >= _value, \"Insufficient balance\");\r\n        tokenCount[msg.sender] -= _value;\r\n        tokenCount[_to] += _value;\r\n        emit Transfer(msg.sender, _to, _value);\r\n        return true;\r\n    }\r\n\r\n    function approve(address _spender, uint256 _value) public returns (bool success) {\r\n        allowance[msg.sender][_spender] = _value;\r\n        emit Approval(msg.sender, _spender, _value);\r\n        return true;\r\n    }\r\n\r\n    // function transferFrom(address _from, address _to, uint256 _value) public returns (bool success) {\r\n    //     require(_value <= balanceOf[_from], \"Insufficient balance\");\r\n    //     require(_value <= allowance[_from][msg.sender], \"Allowance exceeded\");\r\n    //     balanceOf[_from] -= _value;\r\n    //     balanceOf[_to] += _value;\r\n    //     allowance[_from][msg.sender] -= _value;\r\n    //     emit Transfer(_from, _to, _value);\r\n    //     return true;\r\n    // }\r\n}\r\n",
  "sourcePath": "C:\\Users\\brand\\Desktop\\erasmus\\blockchain\\blockchain_home_assignment\\contracts\\victoryToken.sol",
  "compiler": {
    "name": "solc",
    "version": "0.8.17+commit.8df45f5f.Emscripten.clang"
  },
  "schemaVersion": "3.4.16",
  "updatedAt": "2024-06-07T13:57:32.893Z",
  "networkType": "ethereum",
  "devdoc": {
    "kind": "dev",
    "methods": {},
    "version": 1
  },
  "userdoc": {
    "kind": "user",
    "methods": {},
    "version": 1
  }
}